:100000000C9475000C940A020C940A020C947C0166
:100010000C940A020C940A020C940A020C940A0230
:100020000C940A020C940A020C940A020C940A0220
:100030000C940A020C940A020C940A020C940A0210
:100040000C940A020C940A020C940A020C940A0200
:100050000C940A020C940A020C940A020C940A02F0
:100060000C940A020C940A020C940A020C940A02E0
:100070000C940A020C9495010C940A020C940A0246
:100080000C940A020C940A020C940A020C940A02C0
:100090000C940A020C940A020C940A020C940A02B0
:1000A0000C940A020C940A020C940A020C940A02A0
:1000B0000C940A020C940A020C940A020C940A0290
:1000C0000C940A020C940A020C940A020C940A0280
:1000D0000C940A020C940A020C940A020C940A0270
:1000E0000C940A0202000203800011241FBECFEF0D
:1000F000D1E2DEBFCDBF00E00CBFE4EEF0E040E0B7
:1001000019C0B791A79137912791079107FD0EC0AC
:1001100097918791EF01F92FE82F0BBF07900D9270
:10012000A217B307D9F7FE011BBE04C01D92A21788
:10013000B307E1F7E93EF40721F70E945E010C9452
:06014000E701F894FFCF77
:10014600CF93C82F2FEF86E791E021508040904053
:10015600E1F700C0000087B18F6087B987B180687A
:1001660087B987B1806487B987B1806287B988B15A
:10017600807F88B988B18F7788B988B18F7D88B933
:1001860088B18F7B88B900C000C0000088B1806844
:1001960088B988B1826088B925E02A95F1F7000010
:1001A60088B18F7788B985E08A95F1F700000E94BB
:1001B600E70060E08C2F8C600E94260160E088E2F8
:0801C6000E942601CF9108956B
:1001CE0087B1807F87B988B1806288B988B18F7B0B
:1001DE0088B982E08A95F1F700C088B1806888B945
:1001EE0092E09A95F1F700C086B18295807F92E0F9
:1001FE009A95F1F700C098B19F7798B995E09A95C6
:10020E00F1F7000098B1906898B992E09A95F1F7DD
:10021E0000C096B1807892E09A95F1F700C098B13F
:10022E009F7798B995E09A95F1F700008111D5CF97
:0E023E0088B18F7D88B987B18F6087B9089528
:10024C00282F22952F708F70611104C098B19F7B5D
:10025C0098B903C098B1906498B992E09A95F1F767
:10026C0000C098B1906898B998B1907F922B98B9CA
:10027C0095E09A95F1F7000098B19F7798B995E0C1
:10028C009A95F1F7000098B1906898B998B1907F61
:10029C00892B88B985E08A95F1F7000088B18F77B2
:1002AC0088B995E09A95F1F700000E94E70008954F
:1002BC00F894E1E6F0E080E8808381E080838FEFC2
:1002CC0080930A0111B883E00E94A30060E081E0F2
:1002DC000E9426010E94C3010E94D7010E94AD0119
:0C02EC000E94F2010E94FC017894FFCFF8
:1002F8001F920F920FB60F9211240BB60F928F9385
:10030800EF93FF93EAE7F0E0808180648083FF91B8
:10031800EF918F910F900BBE0F900FBE0F901F9013
:02032800189526
:10032A001F920F920FB60F9211248F939F93809171
:10033A0079008093000281E090E09093020280931A
:10034A0001029F918F910F900FBE0F901F901895E9
:10035A008DB384608DBBE9E6F0E0808180638083A1
:10036A00EAE7F0E08081806880838081886080830A
:0C037A00ECE7F0E080818066808308954D
:1003860084B5836084BDEEE6F0E080818260808380
:1003960084B5806884BD85B5826085BD8FE787BDDD
:0803A60084B1806884B9089558
:1003AE0084B18F6084B985B180718F6085B985B154
:1003BE008E7F85B985B18295807F80930B010895DC
:1003CE00EC010E9410020E940F02CE010E94110247
:0603DE00CE010E940C029A
:1003E4000E940302EAE7F0E08081806280830E9439
:0403F400FC0108956B
:0E03F8007894EAE7F0E08081806480830895C5
:0E040600EAE7F0E080818F7B8083F894089510
:040414000C940E0234
:040418000E94A1009D
:02041C00189531
:02041E0008953F
:0204200008953D
:0204220008953B
:00000001FF
