:100000000C9475000C9453020C9489020C942903EF
:100010000C94F9030C94F9030C94F9030C94F90370
:100020000C94F9030C94F9030C94F9030C94F90360
:100030000C94F9030C94F9030C94F9030C94F90350
:100040000C94F9030C94F9030C94F9030C94F90340
:100050000C94F9030C94F9030C94F9030C94F90330
:100060000C94F9030C94F9030C94F9030C94F90320
:100070000C94F9030C945A030C94F9030C94F903AF
:100080000C94F9030C94F9030C94F9030C94F90300
:100090000C94F9030C94F9030C94F9030C94F903F0
:1000A0000C94F9030C94F9030C94F9030C94F903E0
:1000B0000C94F9030C94F9030C94F9030C94F903D0
:1000C0000C94F9030C94F9030C94F9030C94F903C0
:1000D0000C94F9030C94F9030C94F9030C94F903B0
:1000E0000C94F9030200020D800011241FBECFEF13
:1000F000D1E2DEBFCDBF00E00CBFE4EEF0E040E0B7
:1001000019C0B791A79137912791079107FD0EC0AC
:1001100097918791EF01F92FE82F0BBF07900D9270
:10012000A217B307D9F7FE011BBE04C01D92A21788
:10013000B307E1F7E93EF40721F70E94BB000C94F6
:06014000C603F894FFCF96
:10014600494E4954202D20466F72776172640042F1
:1001560061636B7761726400466F727761726400E7
:070166004B696C6C6564003D
:08016D0050574D3A2000250017
:10017600F894E1E6F0E080E8808381E080838FEF09
:1001860080930A0111B88DB383608DBBE9E6F0E078
:1001960080818A60808383E00E94980160E081E02C
:1001A6000E941B020E9488030E9410030E94720391
:1001B6000E94D1030E94E4037894809105029091F5
:1001C6000602892B29F180910B0290910C028F3F38
:1001D600910529F410920C0210920B0209C080912D
:1001E6000B0290910C02019690930C0280930B02E5
:1001F600109206021092050260E088E00E94DB037E
:1002060080910B0290910C0263E070E00E9436012F
:100216008091070290910802892B79F280910B0256
:1002260090910C02892B29F410920C0210920B0269
:1002360009C080910B0290910C02019790930C02D9
:1002460080930B02109208021092070260E088E089
:100256000E94DB0380910B0290910C0263E070E038
:060266000E943601AACF40
:10026C00EF92FF920F931F93CF93DF9300D00F92D7
:10027C000F92CDB7DEB77B01FE01319625E0DF0191
:10028C001D922A95E9F724E030E00FC06AE070E097
:10029C000E949E03E1E0F0E0EC0FFD1FE20FF31F64
:1002AC008083862F972F21503109009779F7BFEF64
:1002BC00EB16FB0681F403C00F5F1F4F02C000E07A
:1002CC0010E0E1E0F0E0EC0FFD1FE00FF11F2081EA
:1002DC00222391F304C005E010E00E191F099923A5
:1002EC0094F461E08DE20E941B020DC0E1E0F0E0AD
:1002FC00EC0FFD1FE00FF11F808161E0805D0E941B
:10030C001B020F5F1F4F0530110584F30F900F90E8
:10031C000F900F900F90DF91CF911F910F91FF9045
:04032C00EF900895B1
:10033000CF93C82F2FEF86E791E021508040904067
:10034000E1F700C0000087B18F6087B987B180688E
:1003500087B987B1806487B987B1806287B988B16E
:10036000807F88B988B18F7788B988B18F7D88B947
:1003700088B18F7B88B900C000C0000088B1806858
:1003800088B988B1826088B925E02A95F1F7000024
:1003900088B18F7788B985E08A95F1F700000E94CF
:1003A000DC0160E08C2F8C600E941B0260E088E220
:0803B0000E941B02CF91089589
:1003B80087B1807F87B988B1806288B988B18F7B1F
:1003C80088B982E08A95F1F700C088B1806888B959
:1003D80092E09A95F1F700C086B18295807F92E00D
:1003E8009A95F1F700C098B19F7798B995E09A95DA
:1003F800F1F7000098B1906898B992E09A95F1F7F2
:1004080000C096B1807892E09A95F1F700C098B153
:100418009F7798B995E09A95F1F700008111D5CFAB
:0E04280088B18F7D88B987B18F6087B908953C
:10043600282F22952F708F70611104C098B19F7B71
:1004460098B903C098B1906498B992E09A95F1F77B
:1004560000C098B1906898B998B1907F922B98B9DE
:1004660095E09A95F1F7000098B19F7798B995E0D5
:100476009A95F1F7000098B1906898B998B1907F75
:10048600892B88B985E08A95F1F7000088B18F77C6
:1004960088B995E09A95F1F700000E94DC0108956D
:1004A6001F920F920FB60F9211240BB60F922F9335
:1004B6003F934F935F936F937F938F939F93AF93E6
:1004C600BF93EF93FF9389E190E00E94EB0281E0F6
:1004D60090E09093060280930502019BFECF89E18E
:1004E60090E00E94EB02FF91EF91BF91AF919F9137
:1004F6008F917F916F915F914F913F912F910F90C7
:0C0506000BBE0F900FBE0F901F901895B9
:100512001F920F920FB60F9211240BB60F922F93C8
:100522003F934F935F936F937F938F939F93AF9379
:10053200BF93EF93FF9389E190E00E94EB0281E089
:1005420090E09093080280930702009BFECF89E11E
:1005520090E00E94EB02FF91EF91BF91AF919F91CA
:100562008F917F916F915F914F913F912F910F905A
:0C0572000BBE0F900FBE0F901F9018954D
:10057E0061E080E00E94DB036DE671E080E00E94A6
:10058E00420361E085E00E94DB0387B590E00196AF
:10059E0044E6489F9001499F300D1124332314F4F3
:1005AE0021503F4F63E070E0832F932F990F990BEB
:1005BE000E94360161E089E00E94DB0363E771E08F
:0805CE0080E00E944203089541
:1005D600E1E8F0E020812A6020832BEE33E03093BF
:1005E6008900209388001092850010928400EFE61F
:1005F600F0E020812260208326B3226026BB20E023
:1006060030E007C0B19B05C046B3426046BB2F5FD2
:0A0616003F4F28173907B4F3089589
:1006200084B18F6084B985B180718F6085B985B1DF
:100630008E7F85B960E080E00E94DB0366E471E0B4
:1006400080E00E94420385B18295807F80930B01F8
:0206500008950B
:100652001F920F920FB60F9211240BB60F928F9327
:10066200EF93FF93EAE7F0E0808180648083FF915B
:10067200EF918F910F900BBE0F900FBE0F901F90B6
:020682001895C9
:10068400CF92DF92EF926B01E82E07C061E00E94E7
:100694001B028FEFC81AD80AE80AF6015E2D0E94E1
:1006A400F203862F6111F2CFEF90DF90CF9008957F
:1006B4001F920F920FB60F9211248F939F938091E4
:1006C40079008093000281E090E09093040280938B
:1006D40003029F918F910F900FBE0F901F9018955A
:1006E4008DB384608DBBE9E6F0E080818063808314
:1006F400EAE7F0E08081806880838081886080837D
:0C070400ECE7F0E08081806680830895BF
:1007100084B5836084BDEEE6F0E0808182608083F2
:1007200084B5806884BD85B5826085BD8FE787BD4F
:0C07300084B1806884B90E94BF02089563
:10073C0097FB072E16F4009407D077FD09D00E9482
:10074C00B20307FC05D03EF4909581959F4F089518
:08075C00709561957F4F08952F
:10076400AA1BBB1B51E107C0AA1FBB1FA617B707D3
:1007740010F0A61BB70B881F991F5A95A9F78095EF
:080784009095BC01CD01089520
:10078C00EC010E94FF030E94FE03CE010E940004B4
:06079C00CE010E94FB03E8
:1007A2000E94EB03EAE7F0E08081806280830E948E
:0407B200E4030895BF
:1007B600883230F46111806460E080680E941B0218
:0207C600089594
:0E07C8007894EAE7F0E08081806480830895F1
:0E07D600EAE7F0E080818F7B8083F89408953D
:0E07E40057FD03C05BBF6791089560810895C3
:0407F2000C94FD0363
:0407F6000E94A100BC
:0207FA00189550
:0207FC0008955E
:0207FE0008955C
:02080000089559
:00000001FF
