:100000000C9481000C9431040C9431040C9454032E
:100010000C9431040C94BC020C94F2020C94310444
:100020000C9431040C9431040C9431040C9431047C
:100030000C9431040C9431040C9431040C9431046C
:100040000C9431040C9431040C9431040C9431045C
:100050000C9431040C9431040C9431040C9431044C
:100060000C9431040C9431040C9431040C9431043C
:100070000C9431040C9425030C9431040C94310439
:100080000C9431040C9431040C9431040C9431041C
:100090000C9431040C9431040C9431040C9431040C
:1000A0000C9431040C9431040C9431040C943104FC
:1000B0000C9431040C9431040C9431040C943104EC
:1000C0000C9431040C9431040C9431040C943104DC
:1000D0000C9431040C9431040C9431040C943104CC
:1000E0000C9431040200020A80020A020C00087615
:1000F000020C020E80020E0210000878021002119B
:10010000800011241FBECFEFD1E2DEBFCDBF00E0E3
:100110000CBFE4EEF0E041E019C0B791A791379130
:100120002791079107FD0EC097918791EF01F92F55
:10013000E82F0BBF07900D92A217B307D9F7FE0166
:100140001BBE04C01D92A217B307E1F7E130F4070C
:0E01500021F70E94AF000C940104F894FFCF39
:10015E00F894E1E6F0E080E8808381E080838FEF21
:10016E0080930A0111B883E00E94010260E081E0F1
:10017E000E9484020E949E030E94B4038CE390E0CE
:10018E000E9433040E94F0030E942804789480E1B8
:10019E0080930B0121C00E94150480E280930B0115
:1001AE0080911002882399F020910202309103026F
:1001BE0080910A0290910B022817390740F4809122
:1001CE0002029091030290930B0280930A02109206
:1001DE00100281E0809305021C99DDCF809105020B
:1001EE00882309F483C00E941C04809104028F5F4F
:1001FE008093040280910402813089F480910A0276
:10020E0090910B0290930F0280930E0280910A023E
:10021E0090910B0290930D0280930C0226C02091B8
:10022E000E0230910F0280910A0290910B028217FA
:10023E00930740F480910A0290910B0290930F0263
:10024E0080930E0220910C0230910D0280910A02D1
:10025E0090910B022817390740F480910A02909171
:10026E000B0290930D0280930C0260E080E00E94DE
:10027E000C048091040263E070E090E00E949F0104
:10028E0060E085E00E940C048091070290910802C4
:10029E0065E070E00E949F0161E080E00E940C0426
:1002AE0080910E0290910F0264E070E00E949F0117
:1002BE0061E085E00E940C0480910C0290910D0289
:1002CE0064E070E00E949F0161E08AE00E940C04ED
:1002DE0080910A0290910B0264E070E00E949F01EF
:1002EE0010920502109208021092070280910002ED
:1002FE0090910102892B11F00E942D048091090228
:10030E00882309F444CF10920D0210920C028FEF45
:10031E0093E090930F0280930E0290930B028093C2
:10032E000A021092040210920802109207022FCFB6
:10033E00EF92FF920F931F93CF93DF9300D00F9204
:10034E000F92CDB7DEB77B01FE01319625E0DF01BE
:10035E001D922A95E9F724E030E00FC06AE070E0C4
:10036E000E94C803E1E0F0E0EC0FFD1FE20FF31F67
:10037E008083862F972F21503109009779F7BFEF91
:10038E00EB16FB0681F403C00F5F1F4F02C000E0A7
:10039E0010E0E1E0F0E0EC0FFD1FE00FF11F208117
:1003AE00222391F304C005E010E00E191F099923D2
:1003BE0094F461E08DE20E9484020DC0E1E0F0E071
:1003CE00EC0FFD1FE00FF11F808161E0805D0E9448
:1003DE0084020F5F1F4F0530110584F30F900F90AD
:1003EE000F900F900F90DF91CF911F910F91FF9073
:0403FE00EF900895DF
:10040200CF93C82F2FEF86E791E021508040904094
:10041200E1F700C0000087B18F6087B987B18068BB
:1004220087B987B1806487B987B1806287B988B19B
:10043200807F88B988B18F7788B988B18F7D88B974
:1004420088B18F7B88B900C000C0000088B1806885
:1004520088B988B1826088B925E02A95F1F7000051
:1004620088B18F7788B985E08A95F1F700000E94FC
:10047200450260E08C2F8C600E94840260E088E27A
:080482000E948402CF9108954D
:10048A0087B1807F87B988B1806288B988B18F7B4C
:10049A0088B982E08A95F1F700C088B1806888B986
:1004AA0092E09A95F1F700C086B18295807F92E03A
:1004BA009A95F1F700C098B19F7798B995E09A9507
:1004CA00F1F7000098B1906898B992E09A95F1F71F
:1004DA0000C096B1807892E09A95F1F700C098B181
:1004EA009F7798B995E09A95F1F700008111D5CFD9
:0E04FA0088B18F7D88B987B18F6087B908956A
:10050800282F22952F708F70611104C098B19F7B9E
:1005180098B903C098B1906498B992E09A95F1F7A8
:1005280000C098B1906898B998B1907F922B98B90B
:1005380095E09A95F1F7000098B19F7798B995E002
:100548009A95F1F7000098B1906898B998B1907FA2
:10055800892B88B985E08A95F1F7000088B18F77F3
:1005680088B995E09A95F1F700000E944502089530
:100578001F920F920FB60F9211240BB60F922F9362
:100588003F934F935F936F937F938F939F93AF9313
:10059800BF93EF93FF9389E190E00E947E0381E08F
:1005A80090E09093010280930002619BFECF89E165
:1005B80090E00E947E03FF91EF91BF91AF919F91D0
:1005C8008F917F916F915F914F913F912F910F90F4
:0C05D8000BBE0F900FBE0F901F901895E7
:1005E4001F920F920FB60F9211240BB60F922F93F6
:1005F4003F934F935F936F937F938F939F93AF93A7
:10060400BF93EF93FF9389E190E00E947E0381E022
:1006140080930902609BFECF89E190E00E947E03F3
:10062400FF91EF91BF91AF919F918F917F916F91C6
:100634005F914F913F912F910F900BBE0F900FBE82
:060644000F901F901895B5
:10064A001F920F920FB60F9211242F938F939F939D
:10065A00209178002295269526952370809179001D
:10066A0090E0880F991F880F991F820F911D909310
:10067A0003028093020281E08093100280910702B4
:10068A0090910802019690930802809307029F9125
:0E069A008F912F910F900FBE0F901F9018950B
:1006A8001F920F920FB60F9211240BB60F922F9331
:1006B8003F934F935F936F937F938F939F93AF93E2
:1006C800BF93EF93FF930E9422040E941504FF91A9
:1006D800EF91BF91AF919F918F917F916F915F91B2
:1006E8004F913F912F910F900BBE0F900FBE0F901F
:0406F8001F901895A2
:1006FC00E1E8F0E020812A6020832BEE33E0309398
:10070C00890020938800109285001092840026B3F3
:10071C00226026BB20E030E007C0B19B05C046B389
:10072C00426046BB2F5F3F4F28173907B4F308953B
:10073C008DB384608DBBE9E6F0E0808180638083BB
:10074C00EAE7F0E080818068808380818860808324
:0C075C00ECE7F0E0808180668083089567
:1007680084B5836084BDEEE6F0E08081826080839A
:1007780084B5806884BD85B5826085BD8FE787BDF7
:0807880084B1806884B9089572
:1007900097FB072E16F4009407D077FD09D00E942E
:1007A000DC0307FC05D03EF4909581959F4F08959A
:0807B000709561957F4F0895DB
:1007B800AA1BBB1B51E107C0AA1FBB1FA617B7077F
:1007C80010F0A61BB70B881F991F5A95A9F780959B
:0807D8009095BC01CD010895CC
:1007E0008DB380638DBBEAE6F0E080818A60808310
:1007F00084B18F6084B98DB18C7F8DB90E942D0436
:02080000089559
:10080200EC010E9439040E943804CE010E943A048D
:06081200CE010E94350436
:10081800883230F46111806460E080680E9484024C
:02082800089531
:0E082A007894EAE7F0E080818064808308958E
:0C083800EAE7F0E080818F77808308956C
:0C084400EAE7F0E080818068808308957E
:0A08500085B1807F8B6085B90895A3
:08085A0085B18F6085B9089596
:040862000C943704B7
:0408660087BD0895AD
:04086A000E94AD003B
:02086E001895DB
:020870000895E9
:020872000895E7
:020874000895E5
:02087600FF037E
:02087800FF037C
:00000001FF
