:100000000C9485000C9412070C9414080C940F099E
:100010000C940F090C94DF060C9470060C940F09D5
:100020000C940F090C940F090C940F090C940F09F0
:100030000C940F090C940F090C940F090C940F09E0
:100040000C940F090C940F090C940F090C940F09D0
:100050000C940F090C940F090C940F090C940F09C0
:100060000C940F090C940F090C940F090C940F09B0
:100070000C940F090C94CA040C940F090C940F09EA
:100080000C940F090C940F090C940F090C940F0990
:100090000C940F090C940F090C940F090C940F0980
:1000A0000C940F090C940F090C940F090C940F0970
:1000B0000C940F090C940F090C940F090C940F0960
:1000C0000C940F090C940F090C940F090C940F0950
:1000D0000C940F090C940F090C940F090C940F0940
:1000E0000C940F0902000225800225026200122EE4
:1000F0000262026A80026A026E00126B026E027075
:1001000080000C9444030C94FC0511241FBECFEF17
:10011000D1E2DEBFCDBF00E00CBFE4EEF0E041E095
:1001200019C0B791A79137912791079107FD0EC08C
:1001300097918791EF01F92FE82F0BBF07900D9250
:10014000A217B307D9F7FE011BBE04C01D92A21768
:10015000B307E1F7E130F40721F70E94BA000C94ED
:06016000BE08F894FFCF79
:0D016600410053005700420052414D50002F
:100174000F931F93CF93DF93E1E6F0E080E8808351
:1001840081E0808310926F02F89480EF80930A01DB
:1001940083E00E94790560E081E00E9438060E94B5
:1001A40063080E9495080E94F40883E790E00E9487
:1001B40050080E9475080E9441071092190269E0D4
:1001C40072E08BE092E00E94DA0860E080E00E9436
:1001D400C90866E671E080E00E94E40760E083E01D
:1001E4000E94C90868E671E080E00E94E40760E0CC
:1001F40086E00E94C9086AE671E080E00E94E40794
:1002040060E089E00E94C9086CE671E080E00E9429
:10021400E407789480E180930B010E9406091C99FD
:100224000DC080916E02882349F080E780930B0112
:100234000E94FA080E94EE080E946E0480910D024A
:10024400803339F488EC90E00E946F0785E0809356
:100254006F0280911B028823B9F069E072E08BE0A1
:1002640092E00E94B108892B79F4809101028823DD
:1002740059F088EC90E00E946F0780E780930B01AF
:1002840083E080936F02D5C080916F02833009F4BC
:10029400D0C018F4823041F0BDCF843009F41FC1BE
:1002A400853009F457C1B6CF10926F0280E4809371
:1002B4000B01809101028F5F809301020E940B0960
:1002C400E0910B02F0910C0280818130F1F008F48E
:1002D4004AC0823089F1833009F05AC0E091190292
:1002E40084E0E89FF0011124EB5DFD4F8381082E2B
:1002F400000C990B0E94A308809104028F5F8093E5
:10030400040283E08093190243C0E091190284E05F
:10031400E89FF0011124EB5DFD4F8181082E000C54
:10032400990B0E94A308809110028F5F80931002A2
:1003340081E0809319022CC0E091190284E0E89FC7
:10034400F0011124EB5DFD4F8281082E000C990B06
:100354000E94A308809115028F5F8093150282E0AA
:100364008093190215C0E091190284E0E89FF0011E
:100374001124EB5DFD4F8081082E000C990B0E9427
:10038400A30880911C028F5F80931C0210921902B3
:100394000E94060945E052E069E072E08BE092E0D9
:1003A4000E94FC0780910502909106020E94FC05C0
:1003B4001C990DC080916E02882349F080E78093D8
:1003C4000B010E94FA080E94EE080E946E048091BC
:1003D4000D028F5F80930D0261E080E00E94C908E6
:1003E4008091040262E070E090E00E94AB0361E05F
:1003F40083E00E94C9088091100262E070E090E0FE
:100404000E94AB0361E086E00E94C9088091150256
:1004140062E070E090E00E94AB0361E089E00E943A
:10042400C90880911C0262E070E090E00E94AB0376
:10043400F1CE80EC80930B010E940B0961E080E017
:100444000E94C9088091040262E070E090E00E947A
:10045400AB0361E083E00E94C9088091100262E06E
:1004640070E090E00E94AB0361E086E00E94C9085E
:100474008091150262E070E090E00E94AB0361E0BD
:1004840089E00E94C90880911C0262E070E090E05B
:100494000E94AB0360E08BE00E94C9086EE671E045
:1004A40080E00E94E407109204021092100210925D
:1004B400150210921C028FEF93E0909361028093D7
:1004C400600210921E0210921D0210921A021092E3
:1004D40016021092110210921F0210926F0283E012
:1004E40080930B010E940B0961E080E00E94C9081F
:1004F4008091170262E070E090E00E94AB0361E03B
:1005040083E00E94C9088091120262E070E090E0EA
:100514000E94AB0361E086E00E94C9088091180242
:1005240062E070E090E00E94AB0361E089E00E9429
:10053400C9088091080262E070E090E00E94AB0379
:1005440010921702109212021092180210920802CE
:1005540010926F020E94FA080E94D208F894C0E038
:10056400D0E010C00BE011E080EFF801808384EF4D
:1005740091E00E946F07F801108284EF91E00E94DD
:100584006F072196CA30D1056CF380E090E0DF91CB
:08059400CF911F910F91089512
:10059C00EF92FF920F931F93CF93DF9360916202C0
:1005AC00709163026115710509F45BC0FB01A0E059
:1005BC00B0E040E050E0C0E0D0E000811181228149
:1005CC0033810817190771F4109729F013963C938F
:1005DC002E93129704C03093630220936202CF01D2
:1005EC00029641C08017910748F4209729F0E880C3
:1005FC00F9800E151F0510F4AD01EF01DF01211577
:10060C00310511F0F901D9CF209759F10A811B81DD
:10061C00FE0121913191281B390B2530310588F0D1
:10062C0099838883DF01A80FB91F225031091196D5
:10063C003C932E9312960C93129713961C9313972C
:10064C008D01C617D70729F4009362021093630239
:10065C0006C0DA0112960C93129713961C93CF01D5
:10066C0002C080E090E0CDB7DEB7E6E00C94D50791
:10067C00A2E0B0E0E4E4F3E00C94B7078C018CEF5B
:10068C0095E00115110509F455C0892B79F002305C
:10069C00110510F402E010E0C8010E94CE02009790
:1006AC0009F04FC092E0E92EF12C04C08CEFE82E3B
:1006BC0085E0F82E8091640290916502209166028B
:1006CC0030916702821B930B6701C00ED11E8017FD
:1006DC009107F0F4DA82C982CE0101960E94A80635
:1006EC00009719F480E090E02CC0209164023091C6
:1006FC0065028217930721F090936702809366023C
:10070C0029813A81820F931F909365028093640232
:10071C00E0916602F0916702CF01E114F10419F047
:10072C00029611830083CE0EDF1ED0926702C09218
:10073C00660207C0009709F0ADCF7C0101E010E024
:0A074C00B9CF2296E8E00C94D30721
:10075600EF92FF920F931F93CF93DF9300D00F92E8
:100766000F92CDB7DEB77B01FE01319625E0DF01A2
:100776001D922A95E9F724E030E00FC06AE070E0A8
:100786000E942808E1E0F0E0EC0FFD1FE20FF31FE6
:100796008083862F972F21503109009779F7BFEF75
:1007A600EB16FB0681F403C00F5F1F4F02C000E08B
:1007B60010E0E1E0F0E0EC0FFD1FE00FF11F2081FB
:1007C600222391F304C005E010E00E191F099923B6
:1007D60094F461E08DE20E9438060DC0E1E0F0E09D
:1007E600EC0FFD1FE00FF11F808161E0805D0E942C
:1007F60038060F5F1F4F0530110584F30F900F90D9
:100806000F900F900F90DF91CF911F910F91FF9056
:04081600EF900895C2
:10081A00EF92FF920F931F93CF93DF937C0140E0F7
:10082A0050E000E010E046C08091220290E0EA0128
:10083A0021969E0123703078332334F421503109F4
:10084A002C6F3F6F2F5F3F4F880F991F880F991F9B
:10085A008B5C9D4FFC01E20FF31F80818093200285
:10086A0082B1E0912002F0E0E45AFD4F9081807C51
:10087A00892B82B94E30510544F4FA01EB5BFD4FE6
:10088A00808190E00E946F0714C0C7010A978417FD
:10089A00950754F4F801ED5AFD4F808190E00E94CB
:1008AA006F070F5F1F4F05C08091520290E00E94B0
:1008BA006F07AE014E155F050CF4B6CF809120028A
:1008CA0080932202DF91CF911F910F91FF90EF90B9
:0208DA0008957F
:1008DC0083E192E00E94860880916002909161020F
:1008EC008339934058F0E0911302F0911402108276
:1008FC00809108028F5F8093080231C08091600262
:10090C00909161028C3B924060F0E0911302F09167
:10091C00140282E08083809118028F5F809318020A
:10092C001EC080916002909161028039914060F00C
:10093C00E0911302F091140281E080838091120205
:10094C008F5F809312020BC0E0911302F09114029E
:10095C0083E08083809117028F5F8093170243E1BD
:10096C0052E069E072E08BE092E00E948F078FEF1B
:10097C0093E0909361028093600210921E02109299
:08098C001D0210926E02089595
:100994001F920F920FB60F9211240BB60F922F9342
:1009A4003F934F935F936F937F938F939F93AF93F3
:1009B400BF93EF93FF932091780022952695269577
:1009C40023708091790090E0880F991F880F991FF8
:1009D400820F911D909303028093020220910202E0
:1009E40030910302809160029091610228173907C7
:1009F40040F48091020290910302909361028093EB
:100A040060020E94E80880911D0290911E020196E6
:100A140090931E0280931D0281E080936E02FF91E9
:100A2400EF91BF91AF919F918F917F916F915F9162
:100A34004F913F912F910F900BBE0F900FBE0F90CF
:040A44001F90189552
:100A4800EF92FF920F931F93CF93DF937C01C0E047
:100A5800D0E000E010E03BC0809122029E01280F08
:100A6800311DC901019683709078992324F4019768
:100A78008C6F9F6F01968093200282B1E0912002D3
:100A8800F0E0E45AFD4F9081807C892B82B9CE300A
:100A9800D10544F4FE01EB5BFD4F808190E00E949C
:100AA8006F0714C0C7010A978C179D0754F4F80103
:100AB800ED5AFD4F808190E00E946F070F5F1F4F36
:100AC80005C08091520290E00E946F072196CE15D2
:100AD800DF0514F28091200280932202DF91CF91EA
:0A0AE8001F910F91FF90EF90089509
:100AF200CF93C82F2FEF86E791E02150804090409E
:100B0200E1F700C0000087B18F6087B987B18068C4
:100B120087B987B1806487B987B1806287B988B1A4
:100B2200807F88B988B18F7788B988B18F7D88B97D
:100B320088B18F7B88B900C000C0000088B180688E
:100B420088B988B1826088B925E02A95F1F700005A
:100B520088B18F7788B985E08A95F1F700000E9405
:100B6200BD0560E08C2F8C600E94380660E088E250
:080B72000E943806CF9108959E
:100B7A0087B1807F87B988B1806288B988B18F7B55
:100B8A0088B982E08A95F1F700C088B1806888B98F
:100B9A0092E09A95F1F700C086B18295807F92E043
:100BAA009A95F1F700C098B19F7798B995E09A9510
:100BBA00F1F7000098B1906898B992E09A95F1F728
:100BCA0000C096B1807892E09A95F1F700C098B18A
:100BDA009F7798B995E09A95F1F700008111D5CFE2
:0E0BEA0088B18F7D88B987B18F6087B9089573
:100BF8000097C9F1FC013297A0916202B09163029B
:100C0800109759F1408151819C01240F351FA2177B
:100C1800B30779F412968D919C91139793838283ED
:100C28002D913C91CA01820F931F02969183808374
:100C380016C08D919C9111979C012E5F3F4F2A0FF2
:100C48003B1FE217F30731F4840F951F02968D932B
:100C58009C930895B383A28302C013821282F093F7
:080C68006302E09362020895AB
:100C7000282F22952F708F70611104C098B19F7B2F
:100C800098B903C098B1906498B992E09A95F1F739
:100C900000C098B1906898B998B1907F922B98B99C
:100CA00095E09A95F1F7000098B19F7798B995E093
:100CB0009A95F1F7000098B1906898B998B1907F33
:100CC000892B88B985E08A95F1F7000088B18F7784
:100CD00088B995E09A95F1F700000E94BD05089546
:100CE0001F920F920FB60F9211240BB60F922F93F3
:100CF0003F934F935F936F937F938F939F93AF93A4
:100D0000BF93EF93FF9380911F028F5F80931F0229
:100D100089E190E00E946F07619BFECF89E190E03E
:100D20000E946F0781E080931B02FF91EF91BF91BA
:100D3000AF919F918F917F916F915F914F913F9173
:100D40002F910F900BBE0F900FBE0F901F90189514
:100D5000FC01408151818091680290916902892B48
:100D600041F480916C0290916D029093690280939E
:100D7000680280916A0290916B02009719F48DB716
:100D80009EB7809720916802309169022817390731
:100D900048F08CE090E0909324028093230280E05E
:100DA00090E00895821B930B8417950790F3420FF0
:0E0DB000531F5093690240936802C9010895D1
:100DBE001F920F920FB60F9211240BB60F922F9314
:100DCE003F934F935F936F937F938F939F93AF93C5
:100DDE00BF93EF93FF9389E190E00E946F07609BB2
:100DEE00FECF89E190E00E946F0784E080936F024E
:100DFE00FF91EF91BF91AF919F918F917F916F91E5
:100E0E005F914F913F912F910F900BBE0F900FBEA0
:060E1E000F901F901895D3
:100E24001F920F920FB60F9211240BB60F922F93AD
:100E34003F934F935F936F937F938F939F93AF935E
:100E4400BF93EF93FF930E9400090E94E8088091EA
:100E54001A028F5F80931A02FF91EF91BF91AF91B5
:100E64009F918F917F916F915F914F913F912F91BE
:0E0E74000F900BBE0F900FBE0F901F901895A1
:100E8200CF93DF9381B18F6381B980EF80930B01A0
:100E9200C0E0D0E01AC0CE0183709078992324F488
:100EA20001978C6F9F6F01968093200282B1E0912F
:100EB2002002F0E0E45AFD4F9081807C892B82B9B8
:100EC20082E190E00E946F0721961E99E4CF809103
:0C0ED200200280932202DF91CF9108954E
:100EDE00E1E8F0E020812A60208328EE33E03093B1
:100EEE00890020938800109285001092840026B30A
:100EFE00226026BB20E030E007C0B19B05C046B3A0
:100F0E00426046BB2F5F3F4F28173907B4F3089551
:100F1E00DB01ED91FC91309761F0DA018D919C919E
:100F2E001197928381838D919C91FB019183808394
:100F3E000895DA012D913C911197FC0131832083A4
:0C0F4E008D919C91DB018D939C93089584
:100F5A002F923F924F925F926F927F928F929F92BF
:100F6A00AF92BF92CF92DF92EF92FF920F931F93AD
:100F7A00CF93DF93CDB7DEB7CA1BDB0B0FB6F8945E
:080F8A00DEBF0FBECDBF1994BC
:100F92002A88398848885F846E847D848C849B8407
:100FA200AA84B984C884DF80EE80FD800C811B8115
:100FB200AA81B981CE0FD11D0FB6F894DEBF0FBE44
:060FC200CDBFED01089512
:100FC800CF92DF92EF926B01E82E07C061E00E949A
:100FD80038068FEFC81AD80AE80AF6015E2D0E9473
:100FE800E108862F6111F2CFEF90DF90CF9008953E
:100FF800FC0180819181DA018D939C93A081B1815C
:10100800109731F011968D919C911297918380835E
:1010180080819181892B19F4FB0111821082089536
:101028001F920F920FB60F9211248F938091160280
:101038008F5F8093160282E080936F028F910F90EA
:081048000FBE0F901F901895D8
:1010500097FB072E16F4009407D077FD09D00E9465
:101060003C0807FC05D03EF4909581959F4F08956C
:08107000709561957F4F089512
:10107800AA1BBB1B51E107C0AA1FBB1FA617B707B6
:1010880010F0A61BB70B881F991F5A95A9F78095D2
:081098009095BC01CD01089503
:1010A00094B5936094BDEEE6F0E0908192609083F9
:1010B00094B5906894BD95B5926095BD87BD84B197
:0610C000806884B9089568
:1010C6008DB381608DBBE9E6F0E08081836080832B
:1010D6008DB382608DBB80818860808384B18F7878
:0410E60084B908952C
:1010EA008DB380638DBBEAE6F0E080818A608083FD
:1010FA008DB18C7F8DB984B18F6084B90E940B0940
:02110A00089546
:10110C00CF93DF93EC0183E090E00E943E03998340
:0E111C008883FC0112821182DF91CF91089529
:10112A00EAE7F0E08081806880838081886080833C
:0C113A00ECE7F0E080818066808308957F
:10114600181619061CF40E940D04089599232CF410
:0C1156009195819591090E94240508954F
:10116200DC01ED91FC9180E090E004C001960180E9
:0A117200F281E02D3097D1F70895C7
:10117C00EC010E9415090E941409CE010E94160967
:06118C00CE010E941109D2
:10119200883230F46111806460E080680E94380611
:0211A2000895AE
:1011A40085B1807F85B985E090E00E946F0708953E
:0E11B400FC0111821082FB011182108208954D
:0E11C20057FD03C05BBF6791089560810895DB
:0C11D000EAE7F0E08081806480830895ED
:0C11DC00EAE7F0E080818F7B80830895BB
:0C11E800EAE7F0E08081806280830895D7
:0C11F400EAE7F0E080818F7780830895A7
:0C120000EAE7F0E08081806880830895B8
:0A120C0085B1807F8B6085B90895DD
:0812160085B18F6085B90895D0
:04121E000C94130910
:041222000E94B10075
:02122600189519
:02122800089527
:02122A00089525
:02122C00089523
:10122E00003264CECE00326464CE00323264CE0020
:10123E000003020101000302020100030302010088
:0E124E0014131211100F0E0D0C0B0A090807D5
:09125C0008090A0B0C0E10121413
:0412650035362E2DBF
:02126900FF0381
:02126B00000081
:02126D0070020D
:00000001FF
