:100000000C948B000C9471070C9471070C94E1050F
:100010000C9471070C9416050C944C050C94710704
:100020000C9471070C9471070C9471070C94710770
:100030000C9471070C9471070C9471070C94710760
:100040000C9471070C9471070C9471070C94710750
:100050000C9471070C9471070C9471070C94710740
:100060000C9471070C9471070C9471070C94710730
:100070000C9471070C94E8030C9471070C947107AD
:100080000C9471070C9471070C9471070C94710710
:100090000C9471070C9471070C9471070C94710700
:1000A0000C9471070C9471070C9471070C947107F0
:1000B0000C9471070C9471070C9471070C947107E0
:1000C0000C9471070C9471070C9471070C947107D0
:1000D0000C9471070C9471070C9471070C947107C0
:1000E0000C94710702000219800219021F000EF61B
:1000F000021F02218002210223000EFC0223022B98
:1001000080022B022F000EFE022F023080000C9482
:100110006B040C94DB0211241FBECFEFD1E2DEBFD3
:10012000CDBF00E00CBFE4EEF0E041E019C0B791B4
:10013000A79137912791079107FD0EC0979187915D
:10014000EF01F92FE82F0BBF07900D92A217B3070D
:10015000D9F7FE011BBE04C01D92A217B307E1F739
:10016000ED30F40721F70E94B9000C943407F8949D
:02017000FFCFBF
:10017200F894E1E6F0E080E8808381E0808380EF1C
:1001820080930A0181B18F7381B983E00E94A40335
:1001920060E081E00E94A7040E94C2060E94560706
:1001A2000E94D8068CE390E00E9473070E94140715
:1001B20078940E940B0684E08093120267E072E05A
:1001C20089E092E00E944F070E94680780E88093CE
:1001D2000B0155C080E280930B010E946D0760E025
:1001E2008EE00E943F07E0910902F0910A028081AD
:1001F20061E070E090E00E944203E0910902F09118
:100202000A028081823089F018F4813031F020C0F6
:10021200833099F08430C9F01BC080E180930B01D8
:1002220082E390E00E94B20513C080E280930B014A
:1002320082E390E00E947F050BC080E380930B0174
:1002420084E690E00E947F0503C080E980930B0161
:1002520080EA80930B010E94680788E592E00E9481
:10026200350645E052E067E072E089E092E00E94E4
:10027200AA0680910502909106020E946B041D9BC2
:10028200A9CF21C00E94480780E880930B0180918A
:100292002F02882399F02091030230910402809169
:1002A2001D0290911E022817390740F48091030223
:1002B2009091040290931E0280931D0210922F02CD
:1002C20081E080930D021C99DDCF80910D0288237D
:1002D20009F4D3C08EE092E00E9425070E945C07D9
:1002E20080910B028F5F80930B0280910B02813011
:1002F20089F480911D0290911E02909322028093B4
:10030200210280911D0290911E02909320028093FF
:100312001F0226C0209121023091220280911D02EB
:1003220090911E028217930740F480911D029091D2
:100332001E02909322028093210220911F0230918B
:10034200200280911D0290911E022817390740F465
:1003520080911D0290911E029093200280931F02B1
:1003620080911D0290911E028939934038F0E091EC
:100372000E02F0910F0284E0808322C080911D0260
:1003820090911E028132934038F0E0910E02F0917A
:100392000F0283E0808314C080911D0290911E029F
:1003A2008536910538F0E0910E02F0910F0282E05D
:1003B200808306C0E0910E02F0910F0281E08083FB
:1003C2004EE052E067E072E089E092E00E9455065A
:1003D20060E080E00E943F0780910B0263E070E0E2
:1003E20090E00E94420360E085E00E943F07809116
:1003F20013029091140265E070E00E94420360E0F3
:100402008CE00E943F07E0910E02F0910F02808182
:1004120061E070E090E00E94420361E080E00E94AF
:100422003F07809121029091220264E070E00E94D5
:10043200420361E085E00E943F0780911F02909194
:10044200200264E070E00E94420361E08AE00E94C0
:100452003F0780911D0290911E0264E070E00E94AD
:10046200420310920D0210921402109213028FEFA7
:1004720093E090931E0280931D0280912F028111BE
:1004820010922F028091000290910102892B11F0AB
:100492000E946D0780911502882309F497CE10926D
:1004A200200210921F028FEF93E09093220280931A
:1004B200210290931E0280931D0210920B02109251
:0804C20014021092130282CE15
:1004CA00EF92FF920F931F93CF93DF9360912302D2
:1004DA00709124026115710509F45BC0FB01A0E06B
:1004EA00B0E040E050E0C0E0D0E00081118122811C
:1004FA0033810817190771F4109729F013963C9362
:10050A002E93129704C03093240220932302CF0122
:10051A00029641C08017910748F4209729F0E88095
:10052A00F9800E151F0510F4AD01EF01DF01211549
:10053A00310511F0F901D9CF209759F10A811B81B0
:10054A00FE0121913191281B390B2530310588F0A4
:10055A0099838883DF01A80FB91F225031091196A8
:10056A003C932E9312960C93129713961C931397FF
:10057A008D01C617D70729F400932302109324028A
:10058A0006C0DA0112960C93129713961C93CF01A8
:10059A0002C080E090E0CDB7DEB7E6E00C949B069F
:1005AA00A2E0B0E0EBEDF2E00C947D068C018BE664
:1005BA0094E00115110509F455C0892B79F0023030
:1005CA00110510F402E010E0C8010E9465020097CC
:1005DA0009F04FC092E0E92EF12C04C08BE6E82E18
:1005EA0084E0F82E8091250290912602209127021C
:1005FA0030912802821B930B6701C00ED11E80170F
:10060A009107F0F4DA82C982CE0101960E94DF04D2
:10061A00009719F480E090E02CC0209125023091D7
:10062A0026028217930721F09093280280932702CB
:10063A0029813A81820F931F909326028093250283
:10064A00E0912702F0912802CF01E114F10419F098
:10065A00029611830083CE0EDF1ED0922802C0922A
:10066A00270207C0009709F0ADCF7C0101E010E036
:0A067A00B9CF2296E8E00C9499062F
:10068400EF92FF920F931F93CF93DF9300D00F92BB
:100694000F92CDB7DEB77B01FE01319625E0DF0175
:1006A4001D922A95E9F724E030E00FC06AE070E07B
:1006B4000E94EC06E1E0F0E0EC0FFD1FE20FF31FF7
:1006C4008083862F972F21503109009779F7BFEF48
:1006D400EB16FB0681F403C00F5F1F4F02C000E05E
:1006E40010E0E1E0F0E0EC0FFD1FE00FF11F2081CE
:1006F400222391F304C005E010E00E191F09992389
:1007040094F461E08DE20E94A7040DC0E1E0F0E002
:10071400EC0FFD1FE00FF11F808161E0805D0E94FE
:10072400A7040F5F1F4F0530110584F30F900F903E
:100734000F900F900F90DF91CF911F910F91FF9029
:04074400EF90089595
:10074800CF93C82F2FEF86E791E02150804090404B
:10075800E1F700C0000087B18F6087B987B1806872
:1007680087B987B1806487B987B1806287B988B152
:10077800807F88B988B18F7788B988B18F7D88B92B
:1007880088B18F7B88B900C000C0000088B180683C
:1007980088B988B1826088B925E02A95F1F7000008
:1007A80088B18F7788B985E08A95F1F700000E94B3
:1007B8002C0460E08C2F8C600E94A70460E088E223
:0807C8000E94A704CF910895DF
:1007D0001F920F920FB60F9211242F933F938F9376
:1007E0009F932091780022952695269523708091DD
:1007F000790090E0880F991F880F991F820F911D33
:10080000909304028093030220910302309104022A
:1008100080911D0290911E022817390740F48091A3
:1008200003029091040290931E0280931D0281E0C6
:1008300080932F028091130290911402019690935D
:100840001402809313029F918F913F912F910F90EB
:080850000FBE0F901F901895D8
:1008580087B1807F87B988B1806288B988B18F7B7A
:1008680088B982E08A95F1F700C088B1806888B9B4
:1008780092E09A95F1F700C086B18295807F92E068
:100888009A95F1F700C098B19F7798B995E09A9535
:10089800F1F7000098B1906898B992E09A95F1F74D
:1008A80000C096B1807892E09A95F1F700C098B1AF
:1008B8009F7798B995E09A95F1F700008111D5CF07
:0E08C80088B18F7D88B987B18F6087B9089598
:1008D6000097C9F1FC013297A0912302B09124023E
:1008E600109759F1408151819C01240F351FA217A1
:1008F600B30779F412968D919C9113979383828313
:100906002D913C91CA01820F931F02969183808399
:1009160016C08D919C9111979C012E5F3F4F2A0F17
:100926003B1FE217F30731F4840F951F02968D9350
:100936009C930895B383A28302C013821282F0931C
:080946002402E093230208954E
:10094E00282F22952F708F70611104C098B19F7B54
:10095E0098B903C098B1906498B992E09A95F1F75E
:10096E0000C098B1906898B998B1907F922B98B9C1
:10097E0095E09A95F1F7000098B19F7798B995E0B8
:10098E009A95F1F7000098B1906898B998B1907F58
:10099E00892B88B985E08A95F1F7000088B18F77A9
:1009AE0088B995E09A95F1F700000E942C040895FD
:1009BE00FC01408151818091290290912A02892B5C
:1009CE0041F480912D0290912E0290932A028093F1
:1009DE00290280912B0290912C02009719F48DB769
:1009EE009EB780972091290230912A022817390745
:1009FE0048F08CE090E0909318028093170280E00C
:100A0E0090E00895821B930B8417950790F3420F85
:0E0A1E00531F50932A0240932902C9010895E4
:100A2C001F920F920FB60F9211240BB60F922F93A9
:100A3C003F934F935F936F937F938F939F93AF935A
:100A4C00BF93EF93FF9389E190E00E94350681E01C
:100A5C0090E09093010280930002619BFECF89E1AC
:100A6C0090E00E943506FF91EF91BF91AF919F915D
:100A7C008F917F916F915F914F913F912F910F903B
:0C0A8C000BBE0F900FBE0F901F9018952E
:100A98001F920F920FB60F9211240BB60F922F933D
:100AA8003F934F935F936F937F938F939F93AF93EE
:100AB800BF93EF93FF9389E190E00E94350681E0B0
:100AC80080931502609BFECF89E190E00E94350675
:100AD800FF91EF91BF91AF919F918F917F916F910E
:100AE8005F914F913F912F910F900BBE0F900FBECA
:060AF8000F901F901895FD
:100AFE000F931F93CF93DF93EC0100E010E020C023
:100B0E0022B180911602A801480F511DCA018370AF
:100B1E009078992324F401978C6F9F6F0196E3E0F0
:100B2E00F0E0E81BF90BE75EFD4F9081822F807C91
:100B3E00892B82B90F5F1F4F84E190E00E9435062A
:100B4E000C171D07ECF281E080931102DF91CF911B
:060B5E001F910F910895A4
:100B64000F931F93CF93DF938C01C0E0D0E01CC0A0
:100B740022B180911602AE01480F511DCA01837043
:100B84009078992324F401978C6F9F6F0196FC0150
:100B9400E75EFD4F9081822F807C892B82B921965C
:100BA40084E190E00E943506C017D1070CF381E080
:0E0BB40080931102DF91CF911F910F91089550
:100BC2001F920F920FB60F9211240BB60F922F9312
:100BD2003F934F935F936F937F938F939F93AF93C3
:100BE200BF93EF93FF930E9462070E944807FF9111
:100BF200EF91BF91AF919F918F917F916F915F9193
:100C02004F913F912F910F900BBE0F900FBE0F90FF
:040C12001F90189582
:100C1600CF93DF9381B18F6381B980EF80930B010E
:100C2600C0E0D0E017C022B1CE018370907899233E
:100C360024F401978C6F9F6F0196FC01E75EFD4FD0
:100C46009081822F807C892B82B984E190E00E947A
:100C5600350621961E99E7CF82E080931602DF9132
:040C6600CF9108958D
:100C6A00E1E8F0E020812A6020832BEE33E0309324
:100C7A00890020938800109285001092840026B380
:100C8A00226026BB20E030E007C0B19B05C046B316
:100C9A00426046BB2F5F3F4F28173907B4F30895C8
:100CAA00DB01ED91FC91309761F0DA018D919C9115
:100CBA001197928381838D919C91FB01918380830B
:100CCA000895DA012D913C911197FC01318320831B
:0C0CDA008D919C91DB018D939C930895FB
:100CE6002F923F924F925F926F927F928F929F9236
:100CF600AF92BF92CF92DF92EF92FF920F931F9324
:100D0600CF93DF93CDB7DEB7CA1BDB0B0FB6F894D4
:080D1600DEBF0FBECDBF199432
:100D1E002A88398848885F846E847D848C849B847D
:100D2E00AA84B984C884DF80EE80FD800C811B818B
:100D3E00AA81B981CE0FD11D0FB6F894DEBF0FBEBA
:060D4E00CDBFED01089588
:100D5400FC0180819181DA018D939C93A081B18102
:100D6400109731F011968D919C9112979183808305
:100D740080819181892B19F4FB01118210820895DD
:100D84008DB384608DBBE9E6F0E08081806380836D
:100D9400EAE7F0E0808180688083808188608083D6
:0C0DA400ECE7F0E0808180668083089519
:100DB00084B5836084BDEEE6F0E08081826080834C
:100DC00084B5806884BD85B5826085BD8FE787BDA9
:080DD00084B1806884B9089524
:100DD80097FB072E16F4009407D077FD09D00E94E0
:100DE800000707FC05D03EF4909581959F4F089524
:080DF800709561957F4F08958D
:100E0000AA1BBB1B51E107C0AA1FBB1FA617B70730
:100E100010F0A61BB70B881F991F5A95A9F780954C
:080E20009095BC01CD0108957D
:100E28008DB380638DBBEAE6F0E080818A608083C1
:100E380084B18F6084B98DB18C7F8DB90E946D07A4
:020E480008950B
:100E4A00CF93DF93EC0183E090E00E94D50299836F
:0E0E5A008883FC0112821182DF91CF910895EE
:100E6800EC010E9479070E947807CE010E947A0758
:060E7800CE010E94750787
:100E7E00883230F46111806460E080680E94A704BB
:020E8E000895C5
:0E0E90007894EAE7F0E0808180648083089522
:0E0E9E00FC0111821082FB0111821082089566
:0C0EAC00EAE7F0E0808180628083089516
:0C0EB800EAE7F0E080818F7780830895E6
:0C0EC400EAE7F0E08081806880830895F8
:0A0ED00085B1807F8B6085B908951D
:080EDA0085B18F6085B9089510
:040EE2000C947707EE
:040EE60087BD089527
:040EEA000E94B700AB
:020EEE00189555
:020EF000089563
:020EF200089561
:020EF40008955F
:040EF6003006280595
:020EFA00FF03F4
:020EFC00FF03F2
:020EFE000000F2
:020F00003002BD
:00000001FF
