:100000000C948B000C9498070C94AC070C949308F8
:100010000C9493080C9490060C9493080C949308F9
:100020000C9493080C9493080C9493080C949308E4
:100030000C9493080C9493080C9493080C949308D4
:100040000C9493080C9493080C9493080C949308C4
:100050000C9493080C9493080C9493080C949308B4
:100060000C9493080C9493080C9493080C949308A4
:100070000C9493080C9462050C9493080C949308C8
:100080000C9493080C9493080C9493080C94930884
:100090000C9493080C9493080C9493080C94930874
:1000A0000C9493080C9493080C9493080C94930864
:1000B0000C9493080C9493080C9493080C94930854
:1000C0000C9493080C9493080C9493080C94930844
:1000D0000C9493080C9493080C9493080C94930834
:1000E0000C9493080200021A80021A02540011367E
:1000F00002540256800256025800117002580260E3
:1001000080026002640011720264026D80000C942F
:1001100055040C94E50511241FBECFEFD1E2DEBFDC
:10012000CDBF00E00CBFE4EEF0E041E019C0B791B4
:10013000A79137912791079107FD0EC0979187915D
:10014000EF01F92FE82F0BBF07900D92A217B3070D
:10015000D9F7FE011BBE04C01D92A217B307E1F739
:10016000ED30F40721F70E94B9000C944908F89487
:02017000FFCFBF
:100172000F931F93CF93DF93E1E6F0E080E8808353
:1001820081E0808310926C02F89480EF80930A01E0
:1001920083E00E941E0560E081E00E9421060E9429
:1001A200FB070E942D080E94780886E490E00E94D6
:1001B200E8070E940D080E94C306109217026BE026
:1001C20072E08DE092E00E946508789480E180936D
:1001D2000B010E948A0860E088E00E945408809126
:1001E200690262E070E090E00E94BC041C9953C076
:1001F20080916B02882309F44EC080E780930B0143
:100202000E947E080E94720884E192E00E941E0809
:1002120080915602909157028339934030F0E091D9
:100222001402F0911502108222C080915602909120
:1002320057028C3B924038F0E0911402F091150283
:1002420082E0808314C08091560290915702883CCC
:10025200910538F0E0911402F091150281E080835B
:1002620006C0E0911402F091150283E0808344E11C
:1002720052E06BE072E08DE092E00E9411078FEF96
:1002820093E0909357028093560210925502109277
:10029200540210926B0280916802803341F488EC20
:1002A20090E00E94F10685E080936C0279C1809112
:1002B2006C02823001F118F4813041F087CF843032
:1002C20009F447C1853009F46BC180CF80E2809385
:1002D2000B0160E08AE00E94540880916A0262E0A9
:1002E20070E090E00E94BC040E9484080E946C08A6
:1002F20010926C026BCF80E480930B0160E08EE081
:100302000E9454088091690262E070E090E00E94CD
:10031200BC040E948F0860E080E00E945408E091D3
:100322000D02F0910E02808161E070E090E00E9487
:10033200BC0461E080E00E945408E0910D02F0915B
:100342000E020180F281E02D808161E070E090E098
:100352000E94BC0410920F0210920A02109205022F
:10036200E0910D02F0910E02808190E0AC014150CB
:100372005109A181B2812C9130E04217530759F4FF
:1003820081E080931002809306029EEC90930F020C
:10039200809305020EC001962817390751F481E0B7
:1003A200809310028093020292E390930F02809353
:1003B20005028081813061F108F472C0823009F453
:1003C2004BC0833009F08AC0E091170224E0E29F1B
:1003D200F0011124E05DFD4F238180910F02082E70
:1003E200000C990B820F911D27FD9A950E943B08E4
:1003F200809167028F5F8093670280910A0290E08A
:10040200039664E070E00E94C0078093170266C002
:10041200E091170284E0E89FF0011124E05DFD4FB6
:10042200218180910F02082E000C990B820F911DE1
:1004320027FD9A950E943B08809166028F5F809308
:10044200660280910A0290E0019664E070E00E94E8
:10045200C0078093170242C0E091170224E0E29F96
:10046200F0011124E05DFD4F228180910F02082EE0
:10047200000C990B820F911D27FD9A950E943B0853
:10048200809165028F5F8093650280910A0290E0FD
:10049200029664E070E00E94C007809317021EC0BB
:1004A200E091170284E0E89FF0011124E05DFD4F26
:1004B200208180910F02082E000C990B820F911D52
:1004C20027FD9A950E943B08809164028F5F80937A
:1004D200640280910A028370809317020E948A0844
:1004E20047E052E06BE072E08DE092E00E9480070C
:1004F20080910702909108020E94E5058091100206
:100502008823A9F047E052E06BE072E08DE092E0D0
:100512000E94800780910702909108020E94E505DF
:1005220080EC80930B0188EE93E00E94F1068091AB
:10053200050290E0019690916802890F809368020B
:1005420010921002109206021092020210926C0295
:100552003DCE80EF80930B010E948F086BE072E02A
:100562008DE092E00E9466076BE072E08DE092E01F
:100572000E9465088FEF93E0909357028093560292
:100582001092550210925402109267021092660263
:1005920010926402109265021092690210926A022D
:1005A2000E947E080E945D08F894C0E0D0E010C06E
:1005B2000BE011E080EFF801808384EF91E00E946C
:1005C200F106F801108284EF91E00E94F106219673
:1005D200CA30D1056CF380E090E0DF91CF911F919A
:0405E2000F910895D8
:1005E600CF92DF92EF92FF920F931F93CF93DF93F9
:1005F6007C01C2E0D0E000E010E056C08091160217
:100606009E01280F311DC90183709078992324F427
:1006160001978C6F9F6F019693E0981B9093010250
:1006260082B1E0910102F0E0E05BFD4F9081807CB9
:10063600892B82B96E0132E0C31AD1088BE0C81645
:10064600D10454F4F601EE0FFF1FE65EFD4F8081E4
:1006560091810E94F10617C0C70109978C159D0567
:1006660064F4F801EE0FFF1FE05CFD4F808191817D
:100676000E94F1060F5F1F4F06C080912E029091D7
:100686002F020E94F10680911002882361F0C701B3
:10069600FF200CF40196959587954E978C159D0530
:1006A60014F40E948A082196C7010296C817D90732
:1006B6000CF4A4CF8091010280931602DF91CF91B2
:0E06C6001F910F91FF90EF90DF90CF9008955D
:1006D400CF92DF92EF92FF920F931F93CF93DF930A
:1006E4007C01C1E0D0E000E010E054C0809116022B
:1006F4009E01280F311DC90183709078992324F439
:1007040001978C6F9F6F01968093010282B1E091F3
:100714000102F0E0E05BFD4F9081807C892B82B97F
:100724006E0131E0C31AD1088BE0C816D10454F429
:10073400F601EE0FFF1FE65EFD4F808191810E945E
:10074400F10617C0C70109978C159D0564F4F801DB
:10075400EE0FFF1FE05CFD4F808191810E94F10646
:100764000F5F1F4F06C080912E0290912F020E94AE
:10077400F10680911002882361F0C701FF200CF478
:100784000196959587950F978C159D0514F40E94F5
:100794008A082196C7010196C817D9070CF4A6CF79
:1007A4008091010280931602DF91CF911F910F91E6
:0A07B400FF90EF90DF90CF900895C2
:1007BE00EF92FF920F931F93CF93DF9360915802A6
:1007CE00709159026115710509F45BC0FB01A0E03F
:1007DE00B0E040E050E0C0E0D0E000811181228125
:1007EE0033810817190771F4109729F013963C936B
:1007FE002E93129704C03093590220935802CF01C2
:10080E00029641C08017910748F4209729F0E8809E
:10081E00F9800E151F0510F4AD01EF01DF01211552
:10082E00310511F0F901D9CF209759F10A811B81B9
:10083E00FE0121913191281B390B2530310588F0AD
:10084E0099838883DF01A80FB91F225031091196B1
:10085E003C932E9312960C93129713961C93139708
:10086E008D01C617D70729F4009358021093590229
:10087E0006C0DA0112960C93129713961C93CF01B1
:10088E0002C080E090E0CDB7DEB7E6E00C945707EB
:10089E00A2E0B0E0E5E5F4E00C9439078C0185EEBA
:1008AE0095E00115110509F455C0892B79F0023038
:1008BE00110510F402E010E0C8010E94DF0300975A
:1008CE0009F04FC092E0E92EF12C04C085EEE82E1F
:1008DE0085E0F82E80915A0290915B0220915C0285
:1008EE0030915D02821B930B6701C00ED11E8017E3
:1008FE009107F0F4DA82C982CE0101960E94590660
:10090E00009719F480E090E02CC020915A023091AB
:10091E005B028217930721F090935D0280935C0235
:10092E0029813A81820F931F90935B0280935A0222
:10093E00E0915C02F0915D02CF01E114F10419F037
:10094E00029611830083CE0EDF1ED0925D02C092FE
:10095E005C0207C0009709F0ADCF7C0101E010E00A
:0A096E00B9CF2296E8E00C9455077B
:10097800EF92FF920F931F93CF93DF9300D00F92C4
:100988000F92CDB7DEB77B01FE01319625E0DF017E
:100998001D922A95E9F724E030E00FC06AE070E084
:1009A8000E94C007E1E0F0E0EC0FFD1FE20FF31F2B
:1009B8008083862F972F21503109009779F7BFEF51
:1009C800EB16FB0681F403C00F5F1F4F02C000E067
:1009D80010E0E1E0F0E0EC0FFD1FE00FF11F2081D7
:1009E800222391F304C005E010E00E191F09992392
:1009F80094F461E08DE20E9421060DC0E1E0F0E090
:100A0800EC0FFD1FE00FF11F808161E0805D0E9407
:100A180021060F5F1F4F0530110584F30F900F90CB
:100A28000F900F900F90DF91CF911F910F91FF9032
:040A3800EF9008959E
:100A3C00CF93C82F2FEF86E791E021508040904054
:100A4C00E1F700C0000087B18F6087B987B180687B
:100A5C0087B987B1806487B987B1806287B988B15B
:100A6C00807F88B988B18F7788B988B18F7D88B934
:100A7C0088B18F7B88B900C000C0000088B1806845
:100A8C0088B988B1826088B925E02A95F1F7000011
:100A9C0088B18F7788B985E08A95F1F700000E94BC
:100AAC00A60560E08C2F8C600E94210660E088E235
:080ABC000E942106CF9108956C
:100AC4001F920F920FB60F9211242F933F938F937F
:100AD4009F932091780022952695269523708091E6
:100AE400790090E0880F991F880F991F820F911D3C
:100AF4009093040280930302209103023091040234
:100B040080915602909157022817390740F480913A
:100B140003029091040290935702809356028091AD
:100B24005402909155020196909355028093540279
:100B340081E080936B029F918F913F912F910F9051
:080B44000FBE0F901F901895E1
:100B4C0087B1807F87B988B1806288B988B18F7B83
:100B5C0088B982E08A95F1F700C088B1806888B9BD
:100B6C0092E09A95F1F700C086B18295807F92E071
:100B7C009A95F1F700C098B19F7798B995E09A953E
:100B8C00F1F7000098B1906898B992E09A95F1F756
:100B9C0000C096B1807892E09A95F1F700C098B1B8
:100BAC009F7798B995E09A95F1F700008111D5CF10
:0E0BBC0088B18F7D88B987B18F6087B90895A1
:100BCA000097C9F1FC013297A0915802B0915902DD
:100BDA00109759F1408151819C01240F351FA217AA
:100BEA00B30779F412968D919C911397938382831C
:100BFA002D913C91CA01820F931F029691838083A3
:100C0A0016C08D919C9111979C012E5F3F4F2A0F20
:100C1A003B1FE217F30731F4840F951F02968D9359
:100C2A009C930895B383A28302C013821282F09325
:080C3A005902E09358020895ED
:100C4200282F22952F708F70611104C098B19F7B5D
:100C520098B903C098B1906498B992E09A95F1F767
:100C620000C098B1906898B998B1907F922B98B9CA
:100C720095E09A95F1F7000098B19F7798B995E0C1
:100C82009A95F1F7000098B1906898B998B1907F61
:100C9200892B88B985E08A95F1F7000088B18F77B2
:100CA20088B995E09A95F1F700000E94A60508958B
:100CB200FC014081518180915E0290915F02892BFB
:100CC20041F4809162029091630290935F0280935B
:100CD2005E028091600290916102009719F48DB7D3
:100CE2009EB7809720915E0230915F0228173907E4
:100CF20048F08CE090E0909319028093180280E013
:100D020090E00895821B930B8417950790F3420F8E
:0E0D1200531F50935F0240935E02C901089583
:100D20001F920F920FB60F9211240BB60F922F93B2
:100D30003F934F935F936F937F938F939F93AF9363
:100D4000BF93EF93FF9389E190E00E94F106609BCF
:100D5000FECF89E190E00E94F10684E080936C026E
:100D6000FF91EF91BF91AF919F918F917F916F9183
:100D70005F914F913F912F910F900BBE0F900FBE3F
:060D80000F901F90189572
:100D8600CF93DF9381B18F6381B980EF80930B019D
:100D9600C0E0D0E01AC0CE0183709078992324F485
:100DA60001978C6F9F6F01968093010282B1E0914B
:100DB6000102F0E0E05BFD4F9081807C892B82B9D7
:100DC60082E190E00E94F10621961E99E4CF80917F
:0C0DD600010280931602DF91CF91089576
:100DE200E1E8F0E020812A60208328EE33E03093AE
:100DF200890020938800109285001092840026B307
:100E0200226026BB20E030E007C0B19B05C046B39C
:100E1200426046BB2F5F3F4F28173907B4F308954E
:100E2200DB01ED91FC91309761F0DA018D919C919B
:100E32001197928381838D919C91FB019183808391
:100E42000895DA012D913C911197FC0131832083A1
:0C0E52008D919C91DB018D939C93089581
:100E5E002F923F924F925F926F927F928F929F92BC
:100E6E00AF92BF92CF92DF92EF92FF920F931F93AA
:100E7E00CF93DF93CDB7DEB7CA1BDB0B0FB6F8945B
:080E8E00DEBF0FBECDBF1994B9
:100E96002A88398848885F846E847D848C849B8404
:100EA600AA84B984C884DF80EE80FD800C811B8112
:100EB600AA81B981CE0FD11D0FB6F894DEBF0FBE41
:060EC600CDBFED0108950F
:100ECC000F931F93CF93DF93EC018B0107C0FC01B1
:100EDC0021813281398328830E94E505888199819B
:100EEC000097A9F7F80111821082DF91CF911F9121
:040EFC000F910895B5
:100F0000FC0180819181DA018D939C93A081B18154
:100F1000109731F011968D919C9112979183808357
:100F200080819181892B19F4FB011182108208952F
:100F30001F920F920FB60F9211248F9380916A0225
:100F40008F5F80936A0281E080936C028F910F9093
:080F50000FBE0F901F901895D1
:100F58001F920F920FB60F9211248F9380916902FE
:100F68008F5F8093690282E080936C028F910F906B
:080F78000FBE0F901F901895A9
:100F800097FB072E16F4009407D077FD09D00E9436
:100F9000D40707FC05D03EF4909581959F4F0895A6
:080FA000709561957F4F0895E3
:100FA800AA1BBB1B51E107C0AA1FBB1FA617B70787
:100FB80010F0A61BB70B881F991F5A95A9F78095A3
:080FC8009095BC01CD010895D4
:100FD00094B5936094BDEEE6F0E0908192609083CA
:100FE00094B5906894BD95B5926095BD87BD84B168
:060FF000806884B9089539
:100FF6008DB381608DBBE9E6F0E0808183608083FC
:101006008DB382608DBB80818860808384B18F7848
:0410160084B90895FC
:10101A008DB380618DBBEAE6F0E0808182608083D7
:10102A008DB18C7F8DB984B18F6084B90E948F088D
:02103A00089517
:10103C00CF93DF93EC0183E090E00E944F049983FF
:0E104C008883FC0112821182DF91CF910895FA
:10105A00EAE7F0E08081806880838081886080830D
:0C106A00ECE7F0E0808180668083089550
:10107600181619061CF40E94F302089599232CF4FD
:0C1086009195819591090E946A030895DC
:10109200EC010E9499080E949808CE010E949A08C9
:0610A200CE010E9495083A
:1010A800883230F46111806460E080680E94210613
:0210B800089599
:1010BA0085B1807F85B985E090E00E94F1060895A8
:0E10CA00FC0111821082FB0111821082089538
:0C10D800EAE7F0E08081806480830895E6
:0C10E400EAE7F0E080818F7B80830895B4
:0C10F000EAE7F0E08081806280830895D0
:0C10FC00EAE7F0E080818F7780830895A0
:0C110800EAE7F0E08081806880830895B1
:0A11140085B1807F8B6085B90895D6
:08111E0085B18F6085B90895C9
:041126000C94970886
:04112A000E94B70068
:02112E00189512
:02113000089520
:0211320008951E
:0211340008951C
:10113600140013001200110010000F000E000D0025
:061146000C000B000A0082
:10114C00003264CECE00326464CE00323264CE0003
:10115C000B000C000D000E0010001100120014000A
:04116C0035362E2DB9
:02117000FF037B
:0211720000007B
:021174006D020A
:00000001FF
