:100000000C948B000C9445050C947F050C9402080D
:100010000C9402080C9427060C9402080C94020815
:100020000C9402080C9402080C9402080C94020828
:100030000C9402080C9402080C9402080C94020818
:100040000C9402080C9402080C9402080C94020808
:100050000C9402080C9402080C9402080C940208F8
:100060000C9402080C9402080C9402080C940208E8
:100070000C9402080C9486040C9402080C94020858
:100080000C9402080C9402080C9402080C940208C8
:100090000C9402080C9402080C9402080C940208B8
:1000A0000C9402080C9402080C9402080C940208A8
:1000B0000C9402080C9402080C9402080C94020898
:1000C0000C9402080C9402080C9402080C94020888
:1000D0000C9402080C9402080C9402080C94020878
:1000E0000C9402080200021480021402540010143E
:1000F0000254025680025602580010540258026000
:1001000080026002640010560264026E80000C944B
:1001100071020C94090511241FBECFEFD1E2DEBF9E
:10012000CDBF00E00CBFE4EEF0E041E019C0B791B4
:10013000A79137912791079107FD0EC0979187915D
:10014000EF01F92FE82F0BBF07900D92A217B3070D
:10015000D9F7FE011BBE04C01D92A217B307E1F739
:10016000ED30F40721F70E94B9000C94B807F89419
:02017000FFCFBF
:100172000F931F93CF93DF93E1E6F0E080E8808353
:1001820081E0808310926D02F89480EF80930A01DF
:1001920083E00E94420460E081E00E94B8050E9470
:1001A2006A070E949C070E94E70782E890E00E948B
:1001B20057070E947C070E945A0610920E0266E0C0
:1001C20072E088E092E00E94D407789480E1809304
:1001D2000B010E94F9071C990DC080916C028823C3
:1001E20049F080E780930B010E94ED070E94E1072E
:1001F2000E94FA0380916902803341F488EC90E016
:100202000E94880685E080936D02D2C080916D02C3
:10021200843009F4A4C0853009F4CAC08230B1F632
:1002220080E480930B0161E08EE00E94C30780911D
:10023200680262E070E090E00E94D8020E94FE072D
:10024200E0910802F091090280818130F1F008F416
:100252004AC0823089F1833009F05AC0E0910E021F
:1002620084E0E89FF0011124E05DFD4F8381082EB8
:10027200000C990B0E94AA07809167028F5F8093FE
:10028200670283E080930E0243C0E0910E0284E095
:10029200E89FF0011124E05DFD4F8181082E000CE2
:1002A200990B0E94AA07809166028F5F8093660273
:1002B20081E080930E022CC0E0910E0284E0E89F60
:1002C200F0011124E05DFD4F8281082E000C990B94
:1002D2000E94AA07809165028F5F8093650282E087
:1002E20080930E0215C0E0910E0284E0E89FF001B7
:1002F2001124E05DFD4F8081082E000C990B0E94B5
:10030200AA07809164028F5F8093640210920E02AA
:100312000E94F90743E052E066E072E088E092E072
:100322000E94170780910302909104020E9409051E
:100332001C990DC080916C02882349F080E780935C
:100342000B010E94ED070E94E1070E94FA038091CF
:1003520069028F5F8093690210926D0237CF80EF3E
:1003620080930B010E94FE0766E072E088E092E053
:100372000E94FD0666E072E088E092E00E94D407E7
:100382008FEF93E09093570280935602109255029A
:100392001092540210926902109267021092660241
:1003A200109264021092650210926A0210926B021D
:1003B2000E94ED070E94CC07F894C0E0D0E010C084
:1003C2000BE011E080EFF801808384EF91E00E945E
:1003D2008806F801108284EF91E00E948806219637
:1003E200CA30D1056CF380E090E0DF91CF911F918C
:0403F2000F910895CA
:1003F600EF92FF920F931F93CF93DF936091580272
:10040600709159026115710509F45BC0FB01A0E00A
:10041600B0E040E050E0C0E0D0E0008111812281F0
:1004260033810817190771F4109729F013963C9336
:100436002E93129704C03093590220935802CF018D
:10044600029641C08017910748F4209729F0E8806A
:10045600F9800E151F0510F4AD01EF01DF0121151E
:10046600310511F0F901D9CF209759F10A811B8185
:10047600FE0121913191281B390B2530310588F079
:1004860099838883DF01A80FB91F2250310911967D
:100496003C932E9312960C93129713961C931397D4
:1004A6008D01C617D70729F40093580210935902F5
:1004B60006C0DA0112960C93129713961C93CF017D
:1004C60002C080E090E0CDB7DEB7E6E00C94EE0621
:1004D600A2E0B0E0E1E7F2E00C94D0068C0189E0FE
:1004E60095E00115110509F455C0892B79F0023004
:1004F600110510F402E010E0C8010E94FB0100970C
:1005060009F04FC092E0E92EF12C04C089E0E82EF4
:1005160085E0F82E80915A0290915B0220915C0250
:1005260030915D02821B930B6701C00ED11E8017AE
:100536009107F0F4DA82C982CE0101960E94F00595
:10054600009719F480E090E02CC020915A02309177
:100556005B028217930721F090935D0280935C0201
:1005660029813A81820F931F90935B0280935A02EE
:10057600E0915C02F0915D02CF01E114F10419F003
:10058600029611830083CE0EDF1ED0925D02C092CA
:100596005C0207C0009709F0ADCF7C0101E010E0D6
:0A05A600B9CF2296E8E00C94EC06B1
:1005B000EF92FF920F931F93CF93DF9300D00F9290
:1005C0000F92CDB7DEB77B01FE01319625E0DF014A
:1005D0001D922A95E9F724E030E00FC06AE070E050
:1005E0000E942F07E1E0F0E0EC0FFD1FE20FF31F88
:1005F0008083862F972F21503109009779F7BFEF1D
:10060000EB16FB0681F403C00F5F1F4F02C000E032
:1006100010E0E1E0F0E0EC0FFD1FE00FF11F2081A2
:10062000222391F304C005E010E00E191F0999235D
:1006300094F461E08DE20E94B8050DC0E1E0F0E0C5
:10064000EC0FFD1FE00FF11F808161E0805D0E94D3
:10065000B8050F5F1F4F0530110584F30F900F9001
:100660000F900F900F90DF91CF911F910F91FF90FE
:04067000EF9008956A
:10067400EF92FF920F931F93CF93DF937C01C2E01D
:10068400D0E000E010E044C0809111029E01280FE8
:10069400311DC90183709078992324F401978C6FDC
:1006A4009F6F019693E0981B90930F0282B1E091A3
:1006B4000F02F0E0E05BFD4F9081807C892B82B9D2
:1006C400CE0102978E30910554F4880F991FFC01D6
:1006D400EC5EFD4F808191810E94880618C09701CD
:1006E400295031092817390764F4F801EE0FFF1F68
:1006F400E05CFD4F808191810E9488060F5F1F4F4F
:1007040006C080912E0290912F020E9488062196A5
:10071400C7010296C817D9070CF4B6CF80910F020F
:1007240080931102DF91CF911F910F91FF90EF9071
:02073400089526
:10073600EF92FF920F931F93CF93DF937C01C1E05B
:10074600D0E000E010E042C0809111029E01280F27
:10075600311DC90183709078992324F401978C6F19
:100766009F6F019680930F0282B1E0910F02F0E035
:10077600E05BFD4F9081807C892B82B9CE01019789
:100786008E30910554F4880F991FFC01EC5EFD4FE5
:10079600808191810E94880618C0970129503109ED
:1007A6002817390764F4F801EE0FFF1FE05CFD4FD0
:1007B600808191810E9488060F5F1F4F06C080913D
:1007C6002E0290912F020E9488062196C70101965B
:1007D600C817D9070CF4B8CF80910F028093110285
:0E07E600DF91CF911F910F91FF90EF9008953A
:1007F4008CE092E00E948D078091560290915702FE
:100804008339934030F0E0910C02F0910D02108294
:1008140022C080915602909157028C3B924038F04E
:10082400E0910C02F0910D0282E0808314C080916B
:10083400560290915702883C910538F0E0910C02E1
:10084400F0910D0281E0808306C0E0910C02F091EA
:100854000D0283E080834CE052E066E072E088E0C1
:1008640092E00E94A8068FEF93E090935702809342
:100874005602109255021092540210926C0208957E
:10088400CF93C82F2FEF86E791E02150804090400E
:10089400E1F700C0000087B18F6087B987B1806835
:1008A40087B987B1806487B987B1806287B988B115
:1008B400807F88B988B18F7788B988B18F7D88B9EE
:1008C40088B18F7B88B900C000C0000088B18068FF
:1008D40088B988B1826088B925E02A95F1F70000CB
:1008E40088B18F7788B985E08A95F1F700000E9476
:1008F400CA0460E08C2F8C600E94B80560E088E236
:080904000E94B805CF9108958F
:10090C001F920F920FB60F9211242F933F938F9338
:10091C009F9320917800229526952695237080919F
:10092C00790090E0880F991F880F991F820F911DF5
:10093C0090930202809301022091010230910202F5
:10094C0080915602909157022817390740F48091F4
:10095C00010290910202909357028093560280916B
:10096C005402909155020196909355028093540233
:10097C0081E080936C029F918F913F912F910F900A
:08098C000FBE0F901F9018959B
:1009940087B1807F87B988B1806288B988B18F7B3D
:1009A40088B982E08A95F1F700C088B1806888B977
:1009B40092E09A95F1F700C086B18295807F92E02B
:1009C4009A95F1F700C098B19F7798B995E09A95F8
:1009D400F1F7000098B1906898B992E09A95F1F710
:1009E40000C096B1807892E09A95F1F700C098B172
:1009F4009F7798B995E09A95F1F700008111D5CFCA
:0E0A040088B18F7D88B987B18F6087B908955A
:100A12000097C9F1FC013297A0915802B091590296
:100A2200109759F1408151819C01240F351FA21763
:100A3200B30779F412968D919C91139793838283D5
:100A42002D913C91CA01820F931F0296918380835C
:100A520016C08D919C9111979C012E5F3F4F2A0FDA
:100A62003B1FE217F30731F4840F951F02968D9313
:100A72009C930895B383A28302C013821282F093DF
:080A82005902E09358020895A7
:100A8A001F920F920FB60F9211240BB60F922F934B
:100A9A003F934F935F936F937F938F939F93AF93FC
:100AAA00BF93EF93FF930E94F3070E94DB078091A5
:100ABA006B028F5F80936B0260E08AE00E94C3073B
:100ACA0080916B0262E070E090E00E94D802FF9190
:100ADA00EF91BF91AF919F918F917F916F915F91AC
:100AEA004F913F912F910F900BBE0F900FBE0F9019
:040AFA001F9018959C
:100AFE001F920F920FB60F9211240BB60F922F93D7
:100B0E003F934F935F936F937F938F939F93AF9387
:100B1E00BF93EF93FF9380916A028F5F80936A0277
:100B2E0060E08EE00E94C30780916A0262E070E08E
:100B3E0090E00E94D80282E080936D02FF91EF91C7
:100B4E00BF91AF919F918F917F916F915F914F91D7
:100B5E003F912F910F900BBE0F900FBE0F901F90D5
:020B6E001895D8
:100B7000282F22952F708F70611104C098B19F7B30
:100B800098B903C098B1906498B992E09A95F1F73A
:100B900000C098B1906898B998B1907F922B98B99D
:100BA00095E09A95F1F7000098B19F7798B995E094
:100BB0009A95F1F7000098B1906898B998B1907F34
:100BC000892B88B985E08A95F1F7000088B18F7785
:100BD00088B995E09A95F1F700000E94CA0408953B
:100BE000FC014081518180915E0290915F02892BCE
:100BF00041F4809162029091630290935F0280932E
:100C00005E028091600290916102009719F48DB7A5
:100C10009EB7809720915E0230915F0228173907B6
:100C200048F08CE090E0909313028093120280E0F1
:100C300090E00895821B930B8417950790F3420F61
:0E0C4000531F50935F0240935E02C901089556
:100C4E001F920F920FB60F9211240BB60F922F9385
:100C5E003F934F935F936F937F938F939F93AF9336
:100C6E00BF93EF93FF9389E190E00E948806609B0B
:100C7E00FECF89E190E00E94880684E080936D02A9
:100C8E00FF91EF91BF91AF919F918F917F916F9156
:100C9E005F914F913F912F910F900BBE0F900FBE12
:060CAE000F901F90189545
:100CB400CF93DF9381B18F6381B980EF80930B0170
:100CC400C0E0D0E01AC0CE0183709078992324F458
:100CD40001978C6F9F6F019680930F0282B1E09110
:100CE4000F02F0E0E05BFD4F9081807C892B82B99C
:100CF40082E190E00E94880621961E99E4CF8091BB
:0C0D04000F0280931102DF91CF9108953F
:100D1000E1E8F0E020812A60208328EE33E0309380
:100D2000890020938800109285001092840026B3D9
:100D3000226026BB20E030E007C0B19B05C046B36F
:100D4000426046BB2F5F3F4F28173907B4F3089521
:100D5000DB01ED91FC91309761F0DA018D919C916E
:100D60001197928381838D919C91FB019183808364
:100D70000895DA012D913C911197FC013183208374
:0C0D80008D919C91DB018D939C93089554
:100D8C002F923F924F925F926F927F928F929F928F
:100D9C00AF92BF92CF92DF92EF92FF920F931F937D
:100DAC00CF93DF93CDB7DEB7CA1BDB0B0FB6F8942E
:080DBC00DEBF0FBECDBF19948C
:100DC4002A88398848885F846E847D848C849B84D7
:100DD400AA84B984C884DF80EE80FD800C811B81E5
:100DE400AA81B981CE0FD11D0FB6F894DEBF0FBE14
:060DF400CDBFED010895E2
:100DFA000F931F93CF93DF93EC018B0107C0FC0184
:100E0A0021813281398328830E9409058881998149
:100E1A000097A9F7F80111821082DF91CF911F91F3
:040E2A000F91089587
:100E2E00FC0180819181DA018D939C93A081B18127
:100E3E00109731F011968D919C911297918380832A
:100E4E0080819181892B19F4FB0111821082089502
:100E5E0097FB072E16F4009407D077FD09D00E9459
:100E6E00430707FC05D03EF4909581959F4F08955A
:080E7E00709561957F4F089506
:100E8600AA1BBB1B51E107C0AA1FBB1FA617B707AA
:100E960010F0A61BB70B881F991F5A95A9F78095C6
:080EA6009095BC01CD010895F7
:100EAE0094B5936094BDEEE6F0E0908192609083ED
:100EBE0094B5906894BD95B5926095BD87BD84B18B
:060ECE00806884B908955C
:100ED4008DB381608DBBE9E6F0E08081836080831F
:100EE4008DB382608DBB80818860808384B18F786C
:040EF40084B9089520
:100EF8008DB380618DBBEAE6F0E0808182608083FB
:100F08008DB18C7F8DB984B18F6084B90E94FE0742
:020F180008953A
:100F1A00CF93DF93EC0183E090E00E946B02998308
:0E0F2A008883FC0112821182DF91CF9108951D
:100F3800EAE7F0E080818068808380818860808330
:0C0F4800ECE7F0E0808180668083089573
:100F5400181619061CF40E943A03089599232CF4D8
:0C0F64009195819591090E949B030895CE
:100F7000EC010E9408080E940708CE010E9409089F
:060F8000CE010E940408EE
:100F8600883230F46111806460E080680E94B805A0
:020F96000895BC
:100F980085B1807F85B985E090E00E948806089534
:0E0FA800FC0111821082FB011182108208955B
:0C0FB600EAE7F0E0808180648083089509
:0C0FC200EAE7F0E080818F7B80830895D7
:0C0FCE00EAE7F0E08081806280830895F3
:0C0FDA00EAE7F0E080818F7780830895C3
:0C0FE600EAE7F0E08081806880830895D5
:0A0FF20085B1807F8B6085B90895FA
:080FFC0085B18F6085B90895ED
:041004000C9406083A
:041008000E94B7008B
:02100C00189535
:02100E00089543
:02101000089541
:0210120008953F
:1010140013001200110010000F000E000D000C0050
:0C1024000B000A0009000800070006008D
:10103000003264CECE00326464CE00323264CE0020
:10104000070009000B000E0010001200130014002E
:0410500035362E2DD6
:02105400FF0398
:02105600000098
:021058006E0226
:00000001FF
