:100000000C9491000C9445060C9461070C944F08D5
:100010000C944F080C9412060C944F080C944F0843
:100020000C944F080C944F080C944F080C944F08F4
:100030000C944F080C944F080C944F080C944F08E4
:100040000C944F080C944F080C944F080C944F08D4
:100050000C944F080C944F080C944F080C944F08C4
:100060000C944F080C944F080C944F080C944F08B4
:100070000C944F080C94E4040C944F080C944F0813
:100080000C944F080C944F080C944F080C944F0894
:100090000C944F080C944F080C944F080C944F0884
:1000A0000C944F080C944F080C944F080C944F0874
:1000B0000C944F080C944F080C944F080C944F0864
:1000C0000C944F080C944F080C944F080C944F0854
:1000D0000C944F080C944F080C944F080C944F0844
:1000E0000C944F080200021480021402560010AE55
:1000F00002560258800258025A0010F0025A025C5E
:1001000080025C025E0010F2025E026680026602FD
:100110006A0010F4026A027480000C9467050C9463
:10012000CF0211241FBECFEFD1E2DEBFCDBF00E072
:100130000CBFE4EEF0E041E019C0B791A791379110
:100140002791079107FD0EC097918791EF01F92F35
:10015000E82F0BBF07900D92A217B307D9F7FE0146
:100160001BBE04C01D92A217B307E1F7E931F407E3
:0E01700021F70E94C3000C94FE07F894FFCF05
:08017E0041005300570042004C
:100186000F931F93CF93DF93E1E6F0E080E880833F
:1001960081E0808310927302F89480EF80930A01C5
:1001A60083E00E94A00460E081E00E94A3050E9413
:1001B600B0070E94E2070E94340883E790E00E949D
:1001C6009D070E94C2070E94740610920E0266E006
:1001D60072E088E092E00E941A0860E080E00E94E7
:1001E60009086EE771E080E00E94310760E083E075
:1001F6000E94090860E871E080E00E94310760E033
:1002060086E00E94090862E871E080E00E943107FA
:1002160060E089E00E94090864E871E080E00E94DD
:100226003107789480E180930B010E9446081C995F
:100236000DC080917202882349F080E780930B01FC
:100246000E943A080E942E080E94580480916F026C
:10025600803341F488EC90E00E94A20685E080930A
:10026600730202C180917302843009F4CAC08530DA
:1002760009F4FAC08230B1F680E480930B018091D4
:100286006E028F5F80936E020E944B08E091080217
:10029600F091090280818130F1F008F44AC0823081
:1002A60089F1833009F05AC0E0910E0284E0E89F9C
:1002B600F0011124EE5BFD4F8381082E000C990B93
:1002C6000E94F00780916D028F5F80936D0283E03C
:1002D60080930E0243C0E0910E0284E0E89FF00195
:1002E6001124EE5BFD4F8181082E000C990B0E94B4
:1002F600F00780916C028F5F80936C0281E080939F
:100306000E022CC0E0910E0284E0E89FF001112459
:10031600EE5BFD4F8281082E000C990B0E94F007C0
:1003260080916B028F5F80936B0282E080930E0256
:1003360015C0E0910E0284E0E89FF0011124EE5B07
:10034600FD4F8081082E000C990B0E94F0078091CA
:100356006A028F5F80936A0210920E020E9446081C
:1003660043E052E066E072E088E092E00E944907CE
:1003760080910302909104020E9467051C990DC0AA
:1003860080917202882349F080E780930B010E94D6
:100396003A080E942E080E94580480916F028F5FCF
:1003A60080936F0261E080E00E94090880916D02EF
:1003B60062E070E090E00E94360361E083E00E9414
:1003C600090880916C0262E070E090E00E943603BA
:1003D60061E086E00E94090880916B0262E070E0AD
:1003E60090E00E94360361E089E00E94090880914E
:1003F6006A0262E070E090E00E9436031092730297
:1004060011CF80EF80930B010E944B0866E072E0EB
:1004160088E092E00E94170766E072E088E092E0CA
:100426000E941A088FEF93E0909359028093580226
:1004360010925B0210925A0290935D0280935C02C6
:10044600109257021092560210926F0210926D028D
:1004560010926C0210926A0210926B021092700255
:1004660010927102109273020E943A080E941208BA
:10047600F894C0E0D0E010C00BE011E080EFF80186
:10048600808384EF91E00E94A206F801108284EF37
:1004960091E00E94A2062196CA30D1056CF380E055
:0C04A60090E0DF91CF911F910F9108951D
:1004B200EF92FF920F931F93CF93DF9360915E02AF
:1004C20070915F026115710509F45BC0FB01A0E048
:1004D200B0E040E050E0C0E0D0E000811181228134
:1004E20033810817190771F4109729F013963C937A
:1004F2002E93129704C030935F0220935E02CF01C5
:10050200029641C08017910748F4209729F0E880AD
:10051200F9800E151F0510F4AD01EF01DF01211561
:10052200310511F0F901D9CF209759F10A811B81C8
:10053200FE0121913191281B390B2530310588F0BC
:1005420099838883DF01A80FB91F225031091196C0
:100552003C932E9312960C93129713961C93139717
:100562008D01C617D70729F400935E0210935F022C
:1005720006C0DA0112960C93129713961C93CF01C0
:1005820002C080E090E0CDB7DEB7E6E00C94080749
:10059200A2E0B0E0EFECF2E00C94EA068C0187E610
:1005A20095E00115110509F455C0892B79F0023047
:1005B200110510F402E010E0C8010E9459020097F0
:1005C20009F04FC092E0E92EF12C04C087E6E82E34
:1005D20085E0F82E80916002909161022091620282
:1005E20030916302821B930B6701C00ED11E8017EC
:1005F2009107F0F4DA82C982CE0101960E94DB05EE
:10060200009719F480E090E02CC0209160023091B4
:1006120061028217930721F0909363028093620232
:1006220029813A81820F931F909361028093600225
:10063200E0916202F0916302CF01E114F10419F03A
:10064200029611830083CE0EDF1ED0926302C09207
:10065200620207C0009709F0ADCF7C0101E010E013
:0A066200B9CF2296E8E00C940607D9
:10066C00EF92FF920F931F93CF93DF9300D00F92D3
:10067C000F92CDB7DEB77B01FE01319625E0DF018D
:10068C001D922A95E9F724E030E00FC06AE070E093
:10069C000E947507E1E0F0E0EC0FFD1FE20FF31F85
:1006AC008083862F972F21503109009779F7BFEF60
:1006BC00EB16FB0681F403C00F5F1F4F02C000E076
:1006CC0010E0E1E0F0E0EC0FFD1FE00FF11F2081E6
:1006DC00222391F304C005E010E00E191F099923A1
:1006EC0094F461E08DE20E94A3050DC0E1E0F0E01E
:1006FC00EC0FFD1FE00FF11F808161E0805D0E9417
:10070C00A3050F5F1F4F0530110584F30F900F9059
:10071C000F900F900F90DF91CF911F910F91FF9041
:04072C00EF900895AD
:10073000EF92FF920F931F93CF93DF937C01C2E060
:10074000D0E000E010E044C0809111029E01280F2B
:10075000311DC90183709078992324F401978C6F1F
:100760009F6F019693E0981B90930F0282B1E091E6
:100770000F02F0E0EE5AFD4F9081807C892B82B908
:10078000CE0102978E30910554F4880F991FFC0119
:10079000EC5EFD4F808191810E94A20618C09701F6
:1007A0002A5031092817390764F4F801EE0FFF1FAA
:1007B000E05DFD4F808191810E94A2060F5F1F4F77
:1007C00006C080912E0290912F020E94A2062196CF
:1007D000C7010296C817D9070CF4B6CF80910F0253
:1007E00080931102DF91CF911F910F91FF90EF90B5
:0207F00008956A
:1007F200EF92FF920F931F93CF93DF937C01C1E09F
:10080200D0E000E010E042C0809111029E01280F6A
:10081200311DC90183709078992324F401978C6F5C
:100822009F6F019680930F0282B1E0910F02F0E078
:10083200EE5AFD4F9081807C892B82B9CE010197BF
:100842008E30910554F4880F991FFC01EC5EFD4F28
:10085200808191810E94A20618C097012A50310915
:100862002817390764F4F801EE0FFF1FE05DFD4F12
:10087200808191810E94A2060F5F1F4F06C0809166
:100882002E0290912F020E94A2062196C701019684
:10089200C817D9070CF4B8CF80910F0280931102C8
:0E08A200DF91CF911F910F91FF90EF9008957D
:1008B0008CE092E00E94D3078091580290915902F7
:1008C0008938934030F0E0910C02F0910D021082D3
:1008D00022C080915802909159028C3B924038F08E
:1008E000E0910C02F0910D0282E0808314C08091AF
:1008F000580290915902883C910538F0E0910C0221
:10090000F0910D0281E0808306C0E0910C02F0912D
:100910000D0283E080834CE052E066E072E088E004
:1009200092E00E94C2068FEF93E090935902809369
:1009300058021092570210925602109272020895B5
:10094000CF93C82F2FEF86E791E021508040904051
:10095000E1F700C0000087B18F6087B987B1806878
:1009600087B987B1806487B987B1806287B988B158
:10097000807F88B988B18F7788B988B18F7D88B931
:1009800088B18F7B88B900C000C0000088B1806842
:1009900088B988B1826088B925E02A95F1F700000E
:1009A00088B18F7788B985E08A95F1F700000E94B9
:1009B000280560E08C2F8C600E94A30560E088E22F
:0809C0000E94A305CF910895E8
:1009C8001F920F920FB60F9211242F933F938F937C
:1009D8009F932091780022952695269523708091E3
:1009E800790090E0880F991F880F991F820F911D39
:1009F8009093020280930102209101023091020239
:100A080080915802909159022817390740F4809133
:100A180001029091020290935902809358028091AA
:100A2800560290915702019690935702809356026E
:100A380081E0809372029F918F913F912F910F9047
:080A48000FBE0F901F901895DE
:100A500087B1807F87B988B1806288B988B18F7B80
:100A600088B982E08A95F1F700C088B1806888B9BA
:100A700092E09A95F1F700C086B18295807F92E06E
:100A80009A95F1F700C098B19F7798B995E09A953B
:100A9000F1F7000098B1906898B992E09A95F1F753
:100AA00000C096B1807892E09A95F1F700C098B1B5
:100AB0009F7798B995E09A95F1F700008111D5CF0D
:0E0AC00088B18F7D88B987B18F6087B908959E
:100ACE000097C9F1FC013297A0915E02B0915F02CE
:100ADE00109759F1408151819C01240F351FA217A7
:100AEE00B30779F412968D919C9113979383828319
:100AFE002D913C91CA01820F931F029691838083A0
:100B0E0016C08D919C9111979C012E5F3F4F2A0F1D
:100B1E003B1FE217F30731F4840F951F02968D9356
:100B2E009C930895B383A28302C013821282F09322
:080B3E005F02E0935E020895DE
:100B4600282F22952F708F70611104C098B19F7B5A
:100B560098B903C098B1906498B992E09A95F1F764
:100B660000C098B1906898B998B1907F922B98B9C7
:100B760095E09A95F1F7000098B19F7798B995E0BE
:100B86009A95F1F7000098B1906898B998B1907F5E
:100B9600892B88B985E08A95F1F7000088B18F77AF
:100BA60088B995E09A95F1F700000E942805089506
:100BB600FC01408151818091640290916502892BEC
:100BC60041F4809168029091690290936502809346
:100BD60064028091660290916702009719F48DB7BE
:100BE6009EB78097209164023091650228173907D5
:100BF60048F08CE090E0909313028093120280E01C
:100C060090E00895821B930B8417950790F3420F8B
:0E0C1600531F5093650240936402C901089574
:100C24001F920F920FB60F9211240BB60F922F93AF
:100C34003F934F935F936F937F938F939F93AF9360
:100C4400BF93EF93FF9389E190E00E94A206609B1B
:100C5400FECF89E190E00E94A20684E080937302B3
:100C6400FF91EF91BF91AF919F918F917F916F9180
:100C74005F914F913F912F910F900BBE0F900FBE3C
:060C84000F901F9018956F
:100C8A001F920F920FB60F9211240BB60F922F9349
:100C9A003F934F935F936F937F938F939F93AF93FA
:100CAA00BF93EF93FF930E9440080E942808809107
:100CBA0071028F5F80937102FF91EF91BF91AF91A3
:100CCA009F918F917F916F915F914F913F912F915A
:0E0CDA000F900BBE0F900FBE0F901F9018953D
:100CE800CF93DF9381B18F6381B980EF80930B013C
:100CF800C0E0D0E01AC0CE0183709078992324F424
:100D080001978C6F9F6F019680930F0282B1E091DB
:100D18000F02F0E0EE5AFD4F9081807C892B82B95A
:100D280082E190E00E94A20621961E99E4CF80916C
:0C0D38000F0280931102DF91CF9108950B
:100D4400E1E8F0E020812A60208328EE33E030934C
:100D5400890020938800109285001092840026B3A5
:100D6400226026BB20E030E007C0B19B05C046B33B
:100D7400426046BB2F5F3F4F28173907B4F30895ED
:100D8400DB01ED91FC91309761F0DA018D919C913A
:100D94001197928381838D919C91FB019183808330
:100DA4000895DA012D913C911197FC013183208340
:0C0DB4008D919C91DB018D939C93089520
:100DC0002F923F924F925F926F927F928F929F925B
:100DD000AF92BF92CF92DF92EF92FF920F931F9349
:100DE000CF93DF93CDB7DEB7CA1BDB0B0FB6F894FA
:080DF000DEBF0FBECDBF199458
:100DF8002A88398848885F846E847D848C849B84A3
:100E0800AA84B984C884DF80EE80FD800C811B81B0
:100E1800AA81B981CE0FD11D0FB6F894DEBF0FBEDF
:060E2800CDBFED010895AD
:100E2E000F931F93CF93DF93EC018B0107C0FC014F
:100E3E0021813281398328830E94670588819981B7
:100E4E000097A9F7F80111821082DF91CF911F91BF
:040E5E000F91089553
:100E6200CF92DF92EF926B01E82E07C061E00E9401
:100E7200A3058FEFC81AD80AE80AF6015E2D0E9470
:100E82002108862F6111F2CFEF90DF90CF90089565
:100E9200FC0180819181DA018D939C93A081B181C3
:100EA200109731F011968D919C91129791838083C6
:100EB20080819181892B19F4FB011182108208959E
:100EC2001F920F920FB60F9211248F93809170028E
:100ED2008F5F8093700282E0809373028F910F90F4
:080EE2000FBE0F901F90189540
:100EEA0097FB072E16F4009407D077FD09D00E94CD
:100EFA00890707FC05D03EF4909581959F4F089588
:080F0A00709561957F4F089579
:100F1200AA1BBB1B51E107C0AA1FBB1FA617B7071D
:100F220010F0A61BB70B881F991F5A95A9F7809539
:080F32009095BC01CD0108956A
:100F3A0094B5936094BDEEE6F0E090819260908360
:100F4A0094B5906894BD95B5926095BD87BD84B1FE
:060F5A00806884B90895CF
:100F60008DB381608DBBE9E6F0E080818360808392
:100F70008DB382608DBB80818860808384B18F78DF
:040F800084B9089593
:100F84008DB380618DBBEAE6F0E08081826080836E
:100F94008DB18C7F8DB984B18F6084B90E944B0868
:020FA4000895AE
:100FA600CF93DF93EC0183E090E00E94C90299831E
:0E0FB6008883FC0112821182DF91CF91089591
:100FC400EAE7F0E0808180688083808188608083A4
:0C0FD400ECE7F0E08081806680830895E7
:100FE000181619061CF40E949803089599232CF4EE
:0C0FF0009195819591090E94F9030895E4
:100FFC00EC010E9455080E945408CE010E9456082C
:06100C00CE010E94510814
:10101200883230F46111806460E080680E94A30528
:0210220008952F
:1010240085B1807F85B985E090E00E94A20608958D
:0E103400FC0111821082FB01118210820895CE
:0E10420057FD03C05BBF67910895608108955C
:0C105000EAE7F0E080818064808308956E
:0C105C00EAE7F0E080818F7B808308953C
:0C106800EAE7F0E0808180628083089558
:0C107400EAE7F0E080818F778083089528
:0C108000EAE7F0E080818068808308953A
:0A108C0085B1807F8B6085B908955F
:0810960085B18F6085B9089552
:04109E000C94530853
:0410A2000E94BD00EB
:0210A60018959B
:0210A8000895A9
:0210AA000895A7
:0210AC000895A5
:1010AE00140013001200110010000F000E000D00AE
:0C10BE000C000B000A00090008000700ED
:1010CA00080009000A000B000C000E0010001200B4
:0210DA00140000
:1010DC00003264CECE00326464CE00323264CE0074
:0410EC0035362E2D3A
:0210F000FF03FC
:0210F200FF03FA
:0210F4000000FA
:0210F600740282
:00000001FF
