:100000000C9491000C943B060C9457070C944508F3
:100010000C9445080C9408060C9445080C9445086B
:100020000C9445080C9445080C9445080C9445081C
:100030000C9445080C9445080C9445080C9445080C
:100040000C9445080C9445080C9445080C944508FC
:100050000C9445080C9445080C9445080C944508EC
:100060000C9445080C9445080C9445080C944508DC
:100070000C9445080C94DA040C9445080C9445083B
:100080000C9445080C9445080C9445080C944508BC
:100090000C9445080C9445080C9445080C944508AC
:1000A0000C9445080C9445080C9445080C9445089C
:1000B0000C9445080C9445080C9445080C9445088C
:1000C0000C9445080C9445080C9445080C9445087C
:1000D0000C9445080C9445080C9445080C9445086C
:1000E0000C94450802000214800214024F00109A7A
:1000F000024F025180025102530010D502530255A3
:1001000080025502570010D70257025F80025F023B
:10011000630010D90263026D80000C94CF020C942E
:100120005D0511241FBECFEFD1E2DEBFCDBF00E0E1
:100130000CBFE4EEF0E041E019C0B791A791379110
:100140002791079107FD0EC097918791EF01F92F35
:10015000E82F0BBF07900D92A217B307D9F7FE0146
:100160001BBE04C01D92A217B307E1F7E931F407E3
:0E01700021F70E94C3000C94F407F894FFCF0F
:08017E0041005300570042004C
:100186000F931F93CF93DF93E1E6F0E080E880833F
:1001960081E0808310926C02F89480EF80930A01CC
:1001A60083E00E94960460E081E00E9499050E9427
:1001B600A6070E94D8070E942A0883E790E00E94BB
:1001C60093070E94B8070E946A0610920E0266E024
:1001D60072E088E092E00E94100860E080E00E94F1
:1001E600FF076EE771E080E00E94270760E083E08A
:1001F6000E94FF0760E871E080E00E94270760E048
:1002060086E00E94FF0762E871E080E00E9427070F
:1002160060E089E00E94FF0764E871E080E00E94E8
:100226002707789480E180930B010E943C081C9973
:100236000DC080916B02882349F080E780930B0103
:100246000E9430080E9424080E944E048091680291
:10025600803341F488EC90E00E94980685E0809314
:100266006C0202C180916C02843009F4CAC08530E8
:1002760009F4FAC08230B1F680E480930B018091D4
:1002860067028F5F809367020E944108E09108022F
:10029600F091090280818130F1F008F44AC0823081
:1002A60089F1833009F05AC0E0910E0284E0E89F9C
:1002B600F0011124EC5EFD4F8381082E000C990B92
:1002C6000E94E607809166028F5F8093660283E054
:1002D60080930E0243C0E0910E0284E0E89FF00195
:1002E6001124EC5EFD4F8181082E000C990B0E94B3
:1002F600E607809165028F5F8093650281E08093B7
:100306000E022CC0E0910E0284E0E89FF001112459
:10031600EC5EFD4F8281082E000C990B0E94E607C9
:10032600809164028F5F8093640282E080930E0264
:1003360015C0E0910E0284E0E89FF0011124EC5E06
:10034600FD4F8081082E000C990B0E94E6078091D4
:1003560063028F5F8093630210920E020E943C0834
:1003660043E052E066E072E088E092E00E943F07D8
:1003760080910302909104020E945D051C990DC0B4
:1003860080916B02882349F080E780930B010E94DD
:1003960030080E9424080E944E04809168028F5FF4
:1003A6008093680261E080E00E94FF078091660208
:1003B60062E070E090E00E94360361E083E00E9414
:1003C600FF078091650262E070E090E00E943603CC
:1003D60061E086E00E94FF078091640262E070E0BF
:1003E60090E00E94360361E089E00E94FF07809159
:1003F600630262E070E090E00E94360310926C02A5
:1004060011CF80EF80930B010E94410866E072E0F5
:1004160088E092E00E940D0766E072E088E092E0D4
:100426000E9410088FEF93E090935202809351023E
:1004360010925402109253029093560280935502E2
:100446001092500210924F021092680210926602A9
:100456001092650210926302109264021092690271
:1004660010926A0210926C020E9430080E940808DC
:10047600F894C0E0D0E010C00BE011E080EFF80186
:10048600808384EF91E00E949806F801108284EF41
:1004960091E00E9498062196CA30D1056CF380E05F
:0C04A60090E0DF91CF911F910F9108951D
:1004B200EF92FF920F931F93CF93DF9360915702B6
:1004C200709158026115710509F45BC0FB01A0E04F
:1004D200B0E040E050E0C0E0D0E000811181228134
:1004E20033810817190771F4109729F013963C937A
:1004F2002E93129704C03093580220935702CF01D3
:10050200029641C08017910748F4209729F0E880AD
:10051200F9800E151F0510F4AD01EF01DF01211561
:10052200310511F0F901D9CF209759F10A811B81C8
:10053200FE0121913191281B390B2530310588F0BC
:1005420099838883DF01A80FB91F225031091196C0
:100552003C932E9312960C93129713961C93139717
:100562008D01C617D70729F400935702109358023A
:1005720006C0DA0112960C93129713961C93CF01C0
:1005820002C080E090E0CDB7DEB7E6E00C94FE0654
:10059200A2E0B0E0EFECF2E00C94E0068C018DE515
:1005A20095E00115110509F455C0892B79F0023047
:1005B200110510F402E010E0C8010E9459020097F0
:1005C20009F04FC092E0E92EF12C04C08DE5E82E2F
:1005D20085E0F82E8091590290915A0220915B0297
:1005E20030915C02821B930B6701C00ED11E8017F3
:1005F2009107F0F4DA82C982CE0101960E94D105F8
:10060200009719F480E090E02CC0209159023091BB
:100612005A028217930721F090935C0280935B0247
:1006220029813A81820F931F90935A028093590233
:10063200E0915B02F0915C02CF01E114F10419F048
:10064200029611830083CE0EDF1ED0925C02C0920E
:100652005B0207C0009709F0ADCF7C0101E010E01A
:0A066200B9CF2296E8E00C94FC06E4
:10066C00EF92FF920F931F93CF93DF9300D00F92D3
:10067C000F92CDB7DEB77B01FE01319625E0DF018D
:10068C001D922A95E9F724E030E00FC06AE070E093
:10069C000E946B07E1E0F0E0EC0FFD1FE20FF31F8F
:1006AC008083862F972F21503109009779F7BFEF60
:1006BC00EB16FB0681F403C00F5F1F4F02C000E076
:1006CC0010E0E1E0F0E0EC0FFD1FE00FF11F2081E6
:1006DC00222391F304C005E010E00E191F099923A1
:1006EC0094F461E08DE20E9499050DC0E1E0F0E028
:1006FC00EC0FFD1FE00FF11F808161E0805D0E9417
:10070C0099050F5F1F4F0530110584F30F900F9063
:10071C000F900F900F90DF91CF911F910F91FF9041
:04072C00EF900895AD
:10073000EF92FF920F931F93CF93DF937C0140E0E2
:1007400050E000E010E046C08091110290E0EA0124
:1007500021969E0123703078332334F421503109DF
:100760002C6F3F6F2F5F3F4F880F991F880F991F86
:100770008C5D9D4FFC01E20FF31F808180930F027F
:1007800082B1E0910F02F0E0E55BFD4F9081807C4B
:10079000892B82B94E30510544F4FA01EC5CFD4FCF
:1007A000808190E00E94980614C0C7010A978417C0
:1007B000950754F4F801EE5BFD4F808190E00E94B4
:1007C00098060F5F1F4F05C08091410290E00E9484
:1007D0009806AE014E155F050CF4B6CF80910F025E
:1007E00080931102DF91CF911F910F91FF90EF90B5
:0207F00008956A
:1007F200EF92FF920F931F93CF93DF937C01C0E0A0
:10080200D0E000E010E03BC0809111029E01280F71
:10081200311DC901019683709078992324F40197C0
:100822008C6F9F6F019680930F0282B1E0910F024D
:10083200F0E0E55BFD4F9081807C892B82B9CE3060
:10084200D10544F4FE01EC5CFD4F808190E00E94F2
:10085200980614C0C7010A978C179D0754F4F80133
:10086200EE5BFD4F808190E00E9498060F5F1F4F64
:1008720005C08091410290E00E9498062196CE1513
:10088200DF0514F280910F0280931102DF91CF9164
:0A0892001F910F91FF90EF90089561
:10089C008CE092E00E94C907809151029091520223
:1008AC008938934030F0E0910C02F0910D021082E7
:1008BC0022C080915102909152028C3B924038F0B0
:1008CC00E0910C02F0910D0282E0808314C08091C3
:1008DC00510290915202883C910538F0E0910C0243
:1008EC00F0910D0281E0808306C0E0910C02F09142
:1008FC000D0283E080834CE052E066E072E088E019
:10090C0092E00E94B8068FEF93E09093520280938E
:10091C0051021092500210924F0210926B020895E5
:10092C00CF93C82F2FEF86E791E021508040904065
:10093C00E1F700C0000087B18F6087B987B180688C
:10094C0087B987B1806487B987B1806287B988B16C
:10095C00807F88B988B18F7788B988B18F7D88B945
:10096C0088B18F7B88B900C000C0000088B1806856
:10097C0088B988B1826088B925E02A95F1F7000022
:10098C0088B18F7788B985E08A95F1F700000E94CD
:10099C001E0560E08C2F8C600E94990560E088E257
:0809AC000E949905CF91089506
:1009B4001F920F920FB60F9211242F933F938F9390
:1009C4009F932091780022952695269523708091F7
:1009D400790090E0880F991F880F991F820F911D4D
:1009E400909302028093010220910102309102024D
:1009F40080915102909152022817390740F4809156
:100A040001029091020290935202809351028091CC
:100A14004F029091500201969093500280934F029E
:100A240081E080936B029F918F913F912F910F9062
:080A34000FBE0F901F901895F2
:100A3C0087B1807F87B988B1806288B988B18F7B94
:100A4C0088B982E08A95F1F700C088B1806888B9CE
:100A5C0092E09A95F1F700C086B18295807F92E082
:100A6C009A95F1F700C098B19F7798B995E09A954F
:100A7C00F1F7000098B1906898B992E09A95F1F767
:100A8C0000C096B1807892E09A95F1F700C098B1C9
:100A9C009F7798B995E09A95F1F700008111D5CF21
:0E0AAC0088B18F7D88B987B18F6087B90895B2
:100ABA000097C9F1FC013297A0915702B0915802F0
:100ACA00109759F1408151819C01240F351FA217BB
:100ADA00B30779F412968D919C911397938382832D
:100AEA002D913C91CA01820F931F029691838083B4
:100AFA0016C08D919C9111979C012E5F3F4F2A0F32
:100B0A003B1FE217F30731F4840F951F02968D936A
:100B1A009C930895B383A28302C013821282F09336
:080B2A005802E0935702089500
:100B3200282F22952F708F70611104C098B19F7B6E
:100B420098B903C098B1906498B992E09A95F1F778
:100B520000C098B1906898B998B1907F922B98B9DB
:100B620095E09A95F1F7000098B19F7798B995E0D2
:100B72009A95F1F7000098B1906898B998B1907F72
:100B8200892B88B985E08A95F1F7000088B18F77C3
:100B920088B995E09A95F1F700000E941E05089524
:100BA200FC014081518180915D0290915E02892B0E
:100BB20041F4809161029091620290935E0280936F
:100BC2005D0280915F0290916002009719F48DB7E7
:100BD2009EB7809720915D0230915E0228173907F7
:100BE20048F08CE090E0909313028093120280E030
:100BF20090E00895821B930B8417950790F3420FA0
:0E0C0200531F50935E0240935D02C901089596
:100C10001F920F920FB60F9211240BB60F922F93C3
:100C20003F934F935F936F937F938F939F93AF9374
:100C3000BF93EF93FF9389E190E00E949806609B39
:100C4000FECF89E190E00E94980684E080936C02D8
:100C5000FF91EF91BF91AF919F918F917F916F9194
:100C60005F914F913F912F910F900BBE0F900FBE50
:060C70000F901F90189583
:100C76001F920F920FB60F9211240BB60F922F935D
:100C86003F934F935F936F937F938F939F93AF930E
:100C9600BF93EF93FF930E9436080E941E0880912F
:100CA6006A028F5F80936A02FF91EF91BF91AF91C5
:100CB6009F918F917F916F915F914F913F912F916E
:0E0CC6000F900BBE0F900FBE0F901F90189551
:100CD400CF93DF9381B18F6381B980EF80930B0150
:100CE400C0E0D0E01AC0CE0183709078992324F438
:100CF40001978C6F9F6F019680930F0282B1E091F0
:100D04000F02F0E0E55BFD4F9081807C892B82B976
:100D140082E190E00E94980621961E99E4CF80918A
:0C0D24000F0280931102DF91CF9108951F
:100D3000E1E8F0E020812A60208328EE33E0309360
:100D4000890020938800109285001092840026B3B9
:100D5000226026BB20E030E007C0B19B05C046B34F
:100D6000426046BB2F5F3F4F28173907B4F3089501
:100D7000DB01ED91FC91309761F0DA018D919C914E
:100D80001197928381838D919C91FB019183808344
:100D90000895DA012D913C911197FC013183208354
:0C0DA0008D919C91DB018D939C93089534
:100DAC002F923F924F925F926F927F928F929F926F
:100DBC00AF92BF92CF92DF92EF92FF920F931F935D
:100DCC00CF93DF93CDB7DEB7CA1BDB0B0FB6F8940E
:080DDC00DEBF0FBECDBF19946C
:100DE4002A88398848885F846E847D848C849B84B7
:100DF400AA84B984C884DF80EE80FD800C811B81C5
:100E0400AA81B981CE0FD11D0FB6F894DEBF0FBEF3
:060E1400CDBFED010895C1
:100E1A000F931F93CF93DF93EC018B0107C0FC0163
:100E2A0021813281398328830E945D0588819981D5
:100E3A000097A9F7F80111821082DF91CF911F91D3
:040E4A000F91089567
:100E4E00CF92DF92EF926B01E82E07C061E00E9415
:100E5E0099058FEFC81AD80AE80AF6015E2D0E948E
:100E6E001708862F6111F2CFEF90DF90CF90089583
:100E7E00FC0180819181DA018D939C93A081B181D7
:100E8E00109731F011968D919C91129791838083DA
:100E9E0080819181892B19F4FB01118210820895B2
:100EAE001F920F920FB60F9211248F9380916902A9
:100EBE008F5F8093690282E080936C028F910F9016
:080ECE000FBE0F901F90189554
:100ED60097FB072E16F4009407D077FD09D00E94E1
:100EE6007F0707FC05D03EF4909581959F4F0895A6
:080EF600709561957F4F08958E
:100EFE00AA1BBB1B51E107C0AA1FBB1FA617B70732
:100F0E0010F0A61BB70B881F991F5A95A9F780954D
:080F1E009095BC01CD0108957E
:100F260094B5936094BDEEE6F0E090819260908374
:100F360094B5906894BD95B5926095BD87BD84B112
:060F4600806884B90895E3
:100F4C008DB381608DBBE9E6F0E0808183608083A6
:100F5C008DB382608DBB80818860808384B18F78F3
:040F6C0084B90895A7
:100F70008DB380618DBBEAE6F0E080818260808382
:100F80008DB18C7F8DB984B18F6084B90E94410886
:020F90000895C2
:100F9200CF93DF93EC0183E090E00E94C902998332
:0E0FA2008883FC0112821182DF91CF910895A5
:100FB000EAE7F0E0808180688083808188608083B8
:0C0FC000ECE7F0E08081806680830895FB
:100FCC00181619061CF40E949803089599232CF402
:0C0FDC009195819591090E94F9030895F8
:100FE800EC010E944B080E944A08CE010E944C085E
:060FF800CE010E94470833
:100FFE00883230F46111806460E080680E94990547
:02100E00089543
:1010100085B1807F85B985E090E00E9498060895AB
:0E102000FC0111821082FB01118210820895E2
:0E102E0057FD03C05BBF679108956081089570
:0C103C00EAE7F0E0808180648083089582
:0C104800EAE7F0E080818F7B8083089550
:0C105400EAE7F0E080818062808308956C
:0C106000EAE7F0E080818F77808308953C
:0C106C00EAE7F0E080818068808308954E
:0A10780085B1807F8B6085B9089573
:0810820085B18F6085B9089566
:04108A000C94490871
:04108E000E94BD00FF
:021092001895AF
:021094000895BD
:021096000895BB
:021098000895B9
:10109A00003264CECE00326464CE00323264CE00B6
:1010AA00000302010100030202010003030201001E
:0E10BA0014131211100F0E0D0C0B0A0908076B
:0910C80008090A0B0C0E101214A9
:0410D10035362E2D55
:0210D500FF0317
:0210D700FF0315
:0210D900000015
:0210DB006D02A4
:00000001FF
