:100000000C948B000C94BE070C94BE070C94010654
:100010000C94BE070C9498050C94CE050C94BE0766
:100020000C94BE070C94BE070C94BE070C94BE073C
:100030000C94BE070C94BE070C94BE070C94BE072C
:100040000C94BE070C94BE070C94BE070C94BE071C
:100050000C94BE070C94BE070C94BE070C94BE070C
:100060000C94BE070C94BE070C94BE070C94BE07FC
:100070000C94BE070C94EE030C94BE070C94BE07C0
:100080000C94BE070C94BE070C94BE070C94BE07DC
:100090000C94BE070C94BE070C94BE070C94BE07CC
:1000A0000C94BE070C94BE070C94BE070C94BE07BC
:1000B0000C94BE070C94BE070C94BE070C94BE07AC
:1000C0000C94BE070C94BE070C94BE070C94BE079C
:1000D0000C94BE070C94BE070C94BE070C94BE078C
:1000E0000C94BE070200021E80021E0234000F9014
:1000F000023402368002360238000FA6023802406F
:100100008002400244000FA80244024580000C9483
:10011000E1020C94B30411241FBECFEFD1E2DEBF85
:10012000CDBF00E00CBFE4EEF0E041E019C0B791B4
:10013000A79137912791079107FD0EC0979187915D
:10014000EF01F92FE82F0BBF07900D92A217B3070D
:10015000D9F7FE011BBE04C01D92A217B307E1F739
:10016000ED30F40721F70E94BD000C947A07F89453
:02017000FFCFBF
:08017200420057005300410058
:10017A00F894E1E6F0E080E8808381E0808380EF14
:10018A0080930A0181B18F7381B983E00E94AA0327
:10019A0060E081E00E9429050E94FA060E94A307F6
:1001AA000E9410078CE390E00E94C0070E944C074F
:1001BA0078940E942B061092160268E072E08AE098
:1001CA0092E00E9495070E94B507E12CF12C00E00D
:1001DA0010E080E180930B0197C080E280930B01CD
:1001EA000E94BA07E0910A02F0910B0280818130E5
:1001FA00C9F0F0F1823049F1833009F04AC0E09148
:10020A001602F0E0EE0FFF1FEE0FFF1FE25EFD4F3A
:10021A008381082E000C990B0E946C0783E080935F
:10022A00160237C0E0911602F0E0EE0FFF1FEE0F44
:10023A00FF1FE25EFD4F8181082E000C990B0E9480
:10024A006C0781E08093160224C0E0911602F0E068
:10025A00EE0FFF1FEE0FFF1FE25EFD4F8281082E99
:10026A00000C990B0E946C0782E08093160211C061
:10027A00E0911602F0E0EE0FFF1FEE0FFF1FE25EA5
:10028A00FD4F8081082E000C990B0E946C0710927A
:10029A0016020E94B50784EF91E00E9455068091EC
:1002AA000C028F5F80930C0261E0802F0E94850709
:1002BA00E0910A02F0910B02808161E070E090E027
:1002CA000E9448030E5F1F4F46E052E068E072E06A
:1002DA008AE092E00E94E20680910602909107026B
:1002EA000E94B3040DC0CBE0D1E080EF888388EC94
:1002FA0090E00E945506188288EC90E00E9455060C
:10030A0080910C02843079F31D9B67CF21C00E9433
:10031A008E0780EF80930B0180914402882399F025
:10032A0020910302309104028091320290913302AB
:10033A002817390740F480910302909104029093A0
:10034A003302809332021092440281E080930F02BA
:10035A001C99DDCF80910F02882309F490C081E1B6
:10036A0092E00E945D070E94A90780913202909153
:10037A00330282389340A0F0E0911102F091120208
:10038A001082809117028F5F8093170260E08E2D92
:10039A000E94850762E771E080E00E94CA064CC0AD
:1003AA00809132029091330280329340A8F0E0911A
:1003BA001102F091120282E08083809113028F5F12
:1003CA008093130260E08E2D0E94850764E771E036
:1003DA0080E00E94CA0630C08091320290913302B6
:1003EA0084369105A8F0E0911102F091120281E0A1
:1003FA008083809110028F5F8093100260E08E2DBF
:10040A000E94850766E771E080E00E94CA0614C070
:10041A00E0911102F091120283E08083809105023B
:10042A008F5F8093050260E08E2D0E94850768E742
:10043A0071E080E00E94CA0682E0E80EF11C41E108
:10044A0052E068E072E08AE092E00E94750661E09C
:10045A008AE00E948507809132029091330264E01B
:10046A0070E00E94480310920F0210921902109233
:10047A0018028FEF93E090933302809332028091B7
:10048A00440281111092440280910002909101026B
:10049A00892B11F00E94BA0780911A02882309F465
:1004AA0098CE10923502109234028FEF93E0909317
:1004BA00370280933602909333028093320210926D
:0C04CA000C02109219021092180283CE4E
:1004D600EF92FF920F931F93CF93DF9360913802B1
:1004E600709139026115710509F45BC0FB01A0E04A
:1004F600B0E040E050E0C0E0D0E000811181228110
:1005060033810817190771F4109729F013963C9355
:100516002E93129704C03093390220933802CF01EC
:10052600029641C08017910748F4209729F0E88089
:10053600F9800E151F0510F4AD01EF01DF0121153D
:10054600310511F0F901D9CF209759F10A811B81A4
:10055600FE0121913191281B390B2530310588F098
:1005660099838883DF01A80FB91F2250310911969C
:100576003C932E9312960C93129713961C931397F3
:100586008D01C617D70729F4009338021093390254
:1005960006C0DA0112960C93129713961C93CF019C
:1005A60002C080E090E0CDB7DEB7E6E00C94BB0673
:1005B600A2E0B0E0E1EEF2E00C949D068C0183EB44
:1005C60094E00115110509F455C0892B79F0023024
:1005D600110510F402E010E0C8010E946B020097BA
:1005E60009F04FC092E0E92EF12C04C083EBE82E0F
:1005F60084E0F82E80913A0290913B0220913C02D1
:1006060030913D02821B930B6701C00ED11E8017ED
:100616009107F0F4DA82C982CE0101960E94610543
:10062600009719F480E090E02CC020913A023091B6
:100636003B028217930721F090933D0280933C0280
:1006460029813A81820F931F90933B0280933A024D
:10065600E0913C02F0913D02CF01E114F10419F062
:10066600029611830083CE0EDF1ED0923D02C09209
:100676003C0207C0009709F0ADCF7C0101E010E015
:0A068600B9CF2296E8E00C94B90603
:10069000EF92FF920F931F93CF93DF9300D00F92AF
:1006A0000F92CDB7DEB77B01FE01319625E0DF0169
:1006B0001D922A95E9F724E030E00FC06AE070E06F
:1006C0000E942407E1E0F0E0EC0FFD1FE20FF31FB2
:1006D0008083862F972F21503109009779F7BFEF3C
:1006E000EB16FB0681F403C00F5F1F4F02C000E052
:1006F00010E0E1E0F0E0EC0FFD1FE00FF11F2081C2
:10070000222391F304C005E010E00E191F0999237C
:1007100094F461E08DE20E9429050DC0E1E0F0E073
:10072000EC0FFD1FE00FF11F808161E0805D0E94F2
:1007300029050F5F1F4F0530110584F30F900F90AF
:100740000F900F900F90DF91CF911F910F91FF901D
:04075000EF90089589
:10075400CF93C82F2FEF86E791E02150804090403F
:10076400E1F700C0000087B18F6087B987B1806866
:1007740087B987B1806487B987B1806287B988B146
:10078400807F88B988B18F7788B988B18F7D88B91F
:1007940088B18F7B88B900C000C0000088B1806830
:1007A40088B988B1826088B925E02A95F1F70000FC
:1007B40088B18F7788B985E08A95F1F700000E94A7
:1007C400740460E08C2F8C600E94290560E088E24C
:0807D4000E942905CF91089550
:1007DC001F920F920FB60F9211242F933F938F936A
:1007EC009F932091780022952695269523708091D1
:1007FC00790090E0880F991F880F991F820F911D27
:10080C00909304028093030220910302309104021E
:10081C0080913202909133022817390740F480916D
:10082C00030290910402909333028093320281E090
:10083C008093440280911802909119020196909332
:10084C001902809318029F918F913F912F910F90D5
:08085C000FBE0F901F901895CC
:100864000F931F93CF93DF93EC0100E010E020C0BF
:1008740022B180911B02A801480F511DCA01837047
:100884009078992324F401978C6F9F6F0196E3E08D
:10089400F0E0E81BF90BE25DFD4F9081822F807C34
:1008A400892B82B90F5F1F4F84E190E00E945506A7
:1008B4000C171D07ECF280911B02080F111D037029
:1008C4001078112334F4015011090C6F1F6F0F5F5E
:1008D4001F4F83E0801B80931B02DF91CF911F91F8
:0408E4000F910895D3
:1008E80087B1807F87B988B1806288B988B18F7BEA
:1008F80088B982E08A95F1F700C088B1806888B924
:1009080092E09A95F1F700C086B18295807F92E0D7
:100918009A95F1F700C098B19F7798B995E09A95A4
:10092800F1F7000098B1906898B992E09A95F1F7BC
:1009380000C096B1807892E09A95F1F700C098B11E
:100948009F7798B995E09A95F1F700008111D5CF76
:0E09580088B18F7D88B987B18F6087B9089507
:100966000097C9F1FC013297A0913802B091390283
:10097600109759F1408151819C01240F351FA21710
:10098600B30779F412968D919C9113979383828382
:100996002D913C91CA01820F931F02969183808309
:1009A60016C08D919C9111979C012E5F3F4F2A0F87
:1009B6003B1FE217F30731F4840F951F02968D93C0
:1009C6009C930895B383A28302C013821282F0938C
:0809D6003902E0933802089594
:1009DE000F931F93CF93DF938C01C0E0D0E01CC028
:1009EE0022B180911B02AE01480F511DCA018370C6
:1009FE009078992324F401978C6F9F6F0196FC01D8
:100A0E00E25DFD4F9081822F807C892B82B92196E9
:100A1E0084E190E00E945506C017D1070CF3809137
:100A2E001B02C80FD11DC370D078DD2324F421978B
:100A3E00CC6FDF6F2196C0931B02DF91CF911F9178
:040A4E000F91089567
:100A5200282F22952F708F70611104C098B19F7B4F
:100A620098B903C098B1906498B992E09A95F1F759
:100A720000C098B1906898B998B1907F922B98B9BC
:100A820095E09A95F1F7000098B19F7798B995E0B3
:100A92009A95F1F7000098B1906898B998B1907F53
:100AA200892B88B985E08A95F1F7000088B18F77A4
:100AB20088B995E09A95F1F700000E9474040895B0
:100AC200FC014081518180913E0290913F02892B2D
:100AD20041F4809142029091430290933F028093AD
:100AE2003E028091400290914102009719F48DB725
:100AF2009EB7809720913E0230913F022817390716
:100B020048F08CE090E090931D0280931C0280E0FC
:100B120090E00895821B930B8417950790F3420F80
:0E0B2200531F50933F0240933E02C9010895B5
:100B30001F920F920FB60F9211240BB60F922F93A4
:100B40003F934F935F936F937F938F939F93AF9355
:100B5000BF93EF93FF9389E190E00E94550681E0F7
:100B600090E09093010280930002619BFECF89E1A7
:100B700090E00E945506FF91EF91BF91AF919F9138
:100B80008F917F916F915F914F913F912F910F9036
:0C0B90000BBE0F900FBE0F901F90189529
:100B9C001F920F920FB60F9211240BB60F922F9338
:100BAC003F934F935F936F937F938F939F93AF93E9
:100BBC00BF93EF93FF9389E190E00E94550681E08B
:100BCC0080931A02609BFECF89E190E00E9455064B
:100BDC00FF91EF91BF91AF919F918F917F916F9109
:100BEC005F914F913F912F910F900BBE0F900FBEC5
:060BFC000F901F901895F8
:100C02001F920F920FB60F9211240BB60F922F93D1
:100C12003F934F935F936F937F938F939F93AF9382
:100C2200BF93EF93FF930E94AF070E948E07FF913D
:100C3200EF91BF91AF919F918F917F916F915F9152
:100C42004F913F912F910F900BBE0F900FBE0F90BF
:040C52001F90189542
:100C5600CF93DF9381B18F6381B980EF80930B01CE
:100C6600C0E0D0E017C022B1CE01837090789923FE
:100C760024F401978C6F9F6F0196FC01E25DFD4F96
:100C86009081822F807C892B82B984E190E00E943A
:100C9600550621961E99E7CF82E080931B02DF91CD
:040CA600CF9108954D
:100CAA00E1E8F0E020812A6020832BEE33E03093E4
:100CBA00890020938800109285001092840026B340
:100CCA00226026BB20E030E007C0B19B05C046B3D6
:100CDA00426046BB2F5F3F4F28173907B4F3089588
:100CEA00DB01ED91FC91309761F0DA018D919C91D5
:100CFA001197928381838D919C91FB0191838083CB
:100D0A000895DA012D913C911197FC0131832083DA
:0C0D1A008D919C91DB018D939C930895BA
:100D26002F923F924F925F926F927F928F929F92F5
:100D3600AF92BF92CF92DF92EF92FF920F931F93E3
:100D4600CF93DF93CDB7DEB7CA1BDB0B0FB6F89494
:080D5600DEBF0FBECDBF1994F2
:100D5E002A88398848885F846E847D848C849B843D
:100D6E00AA84B984C884DF80EE80FD800C811B814B
:100D7E00AA81B981CE0FD11D0FB6F894DEBF0FBE7A
:060D8E00CDBFED01089548
:100D9400CF92DF92EF926B01E82E07C061E00E94D0
:100DA40029058FEFC81AD80AE80AF6015E2D0E94B9
:100DB4009C07862F6111F2CFEF90DF90CF900895BA
:100DC400FC0180819181DA018D939C93A081B18192
:100DD400109731F011968D919C9112979183808395
:100DE40080819181892B19F4FB011182108208956D
:100DF4008DB384608DBBE9E6F0E0808180638083FD
:100E0400EAE7F0E080818068808380818860808365
:0C0E1400ECE7F0E08081806680830895A8
:100E200084B5836084BDEEE6F0E0808182608083DB
:100E300084B5806884BD85B5826085BD8FE787BD38
:080E400084B1806884B90895B3
:100E480097FB072E16F4009407D077FD09D00E946F
:100E5800380707FC05D03EF4909581959F4F08957B
:080E6800709561957F4F08951C
:100E7000AA1BBB1B51E107C0AA1FBB1FA617B707C0
:100E800010F0A61BB70B881F991F5A95A9F78095DC
:080E90009095BC01CD0108950D
:100E98008DB380638DBBEAE6F0E080818A60808351
:100EA80084B18F6084B98DB18C7F8DB90E94BA07E7
:020EB80008959B
:100EBA00CF93DF93EC0183E090E00E94DB029983F9
:0E0ECA008883FC0112821182DF91CF9108957E
:100ED800181619061CF40E943204089599232CF45C
:0C0EE8009195819591090E94EF040895F6
:100EF400EC010E94C6070E94C507CE010E94C707E5
:060F0400CE010E94C207AD
:100F0A00883230F46111806460E080680E942905AB
:020F1A00089538
:0E0F1C007894EAE7F0E0808180648083089595
:0E0F2A00FC0111821082FB01118210820895D9
:0E0F380057FD03C05BBF679108956081089567
:0C0F4600EAE7F0E080818062808308957B
:0C0F5200EAE7F0E080818F77808308954B
:0C0F5E00EAE7F0E080818068808308955D
:0A0F6A0085B1807F8B6085B9089582
:080F740085B18F6085B9089575
:040F7C000C94C40706
:040F800087BD08958C
:040F84000E94B70010
:020F88001895BA
:020F8A000895C8
:020F8C000895C6
:020F8E000895C4
:100F9000003264CECE00326464CE00323264CE00C1
:040FA00030062805EA
:020FA400FF0349
:020FA600FF0347
:020FA800000047
:020FAA004502FE
:00000001FF
