:100000000C948B000C94FC060C9413080C940E09B1
:100010000C940E090C9497050C9454060C940E093C
:100020000C940E090C940E090C940E090C940E09F4
:100030000C940E090C940E090C940E090C940E09E4
:100040000C940E090C940E090C940E090C940E09D4
:100050000C940E090C940E090C940E090C940E09C4
:100060000C940E090C940E090C940E090C940E09B4
:100070000C940E090C9453050C940E090C940E0963
:100080000C9483080C940E090C940E090C940E0920
:100090000C940E090C940E090C940E090C940E0984
:1000A0000C940E090C940E090C940E090C940E0974
:1000B0000C940E090C940E090C940E090C940E0964
:1000C0000C940E090C940E090C940E090C940E0954
:1000D0000C940E090C940E090C940E090C940E0944
:1000E0000C940E0902000214800214024F00122C1C
:1000F000024F025180025102530012670253025B09
:1001000080025B025F001269025F027180000C9442
:1001100034030C94180611241FBECFEFD1E2DEBFCA
:10012000CDBF00E00CBFE4EEF0E041E019C0B791B4
:10013000A79137912791079107FD0EC0979187915D
:10014000EF01F92FE82F0BBF07900D92A217B3070D
:10015000D9F7FE011BBE04C01D92A217B307E1F739
:10016000ED30F40721F70E94C0000C94C908F89400
:02017000FFCFBF
:0E017200410053005700420052440055530014
:10018000E1E6F0E080E8808381E0808310927002F5
:10019000F89480EF80930A0183E00E940F0560E0ED
:1001A00081E00E948D060E9462080E9492088DE7FD
:1001B00090E00E944F080E94A0080E942B07109216
:1001C0000E0266E072E088E092E00E94E50860E0DE
:1001D00080E00E94D40862E771E080E00E94CE07D0
:1001E00060E083E00E94D40864E771E080E00E9450
:1001F000CE0760E086E00E94D40866E771E080E008
:100200000E94CE0760E089E00E94D40868E771E0B0
:1002100080E00E94CE07789480E180930B0180916A
:100220006D02811102C00E94050980916F0288232E
:1002300029F00E94F3081C9B0E945E0480916802D2
:10024000803339F488EC90E00E94590785E0809370
:10025000700280916E02882359F066E072E088E0B7
:1002600092E00E94BC08892B19F483E0809370020D
:1002700080917002833009F4D3C018F4823041F0C9
:10028000CBCF843009F427C1853009F46FC1C4CFC6
:100290001092700280E480930B01809167028F5F5F
:1002A0008093670280916F02882329F00E94F308EF
:1002B0001C9B0E945E040E940A09E0910802F091D2
:1002C000090280818130F1F008F44AC0823089F15E
:1002D000833009F05AC0E0910E0284E0E89FF001FB
:1002E0001124EC5EFD4F8381082E000C990B0E94B7
:1002F000AE08809166028F5F8093660283E08093F0
:100300000E0243C0E0910E0284E0E89FF001112448
:10031000EC5EFD4F8181082E000C990B0E94AE0807
:10032000809165028F5F8093650281E080930E0269
:100330002CC0E0910E0284E0E89FF0011124EC5EF5
:10034000FD4F8281082E000C990B0E94AE0880910F
:1003500064028F5F8093640282E080930E0215C076
:10036000E0910E0284E0E89FF0011124EC5EFD4F65
:100370008081082E000C990B0E94AE0880916302C8
:100380008F5F8093630210920E020E940509809194
:100390006F02882329F00E94F3081C9B0E945E04D0
:1003A00043E052E066E072E088E092E00E94E607F7
:1003B00080910302909104020E94180680916802C5
:1003C0008F5F8093680261E080E00E94D408809192
:1003D000660262E070E090E00E949B0361E083E0CF
:1003E0000E94D4088091650262E070E090E00E9473
:1003F0009B0361E086E00E94D4088091640262E081
:1004000070E090E00E949B0361E089E00E94D408C4
:100410008091630262E070E090E00E949B03FCCE5A
:1004200080EB80930B0188EC90E00E9459070E94BA
:100430000A0961E080E00E94D4088091660262E0CF
:1004400070E090E00E949B0361E083E00E94D4088A
:100450008091650262E070E090E00E949B0361E0A1
:1004600086E00E94D4088091640262E070E090E02F
:100470000E949B0361E089E00E94D408809163029E
:1004800062E070E090E00E949B0360E08AE00E94DE
:10049000D4086AE771E080E00E94CE0710926602FD
:1004A0001092650210926402109263028FEF93E043
:1004B00090935202809351021092500210924F0278
:1004C00010926C0210926B0210926A0210926902F2
:1004D00010926E024BC080EC80930B010E940A09BF
:1004E00061E080E00E94D4088091660262E070E0E2
:1004F00090E00E949B0361E083E00E94D408809119
:10050000650262E070E090E00E949B0361E086E09B
:100510000E94D4088091640262E070E090E00E9442
:100520009B0361E089E00E94D4088091630262E04D
:1005300070E090E00E949B0360E08EE00E94D4088F
:100540006DE771E080E00E94CE0761E08EE00E94DE
:10055000D40866E072E088E092E00E94BC0862E0A5
:1005600070E00E949B031092700256CE0E94F90820
:0C0570000E94DD08F89480E090E00895FF
:10057C00EF92FF920F931F93CF93DF9360915302EF
:10058C00709154026115710509F45BC0FB01A0E088
:10059C00B0E040E050E0C0E0D0E000811181228169
:1005AC0033810817190771F4109729F013963C93AF
:1005BC002E93129704C03093540220935302CF0110
:1005CC00029641C08017910748F4209729F0E880E3
:1005DC00F9800E151F0510F4AD01EF01DF01211597
:1005EC00310511F0F901D9CF209759F10A811B81FE
:1005FC00FE0121913191281B390B2530310588F0F2
:10060C0099838883DF01A80FB91F225031091196F5
:10061C003C932E9312960C93129713961C9313974C
:10062C008D01C617D70729F4009353021093540277
:10063C0006C0DA0112960C93129713961C93CF01F5
:10064C0002C080E090E0CDB7DEB7E6E00C94BF07C7
:10065C00A2E0B0E0E4E3F3E00C94A1078C0188E1A4
:10066C0096E00115110509F455C0892B79F002307B
:10067C00110510F402E010E0C8010E94BE020097C0
:10068C0009F04FC092E0E92EF12C04C088E1E82E6D
:10069C0086E0F82E809155029091560220915702D7
:1006AC0030915802821B930B6701C00ED11E80172C
:1006BC009107F0F4DA82C982CE0101960E94C50638
:1006CC00009719F480E090E02CC0209155023091F5
:1006DC0056028217930721F0909358028093570289
:1006EC0029813A81820F931F909356028093550271
:1006FC00E0915702F0915802CF01E114F10419F086
:10070C00029611830083CE0EDF1ED0925802C09247
:10071C00570207C0009709F0ADCF7C0101E010E053
:0A072C00B9CF2296E8E00C94BD0757
:10073600EF92FF920F931F93CF93DF9300D00F9208
:100746000F92CDB7DEB77B01FE01319625E0DF01C2
:100756001D922A95E9F724E030E00FC06AE070E0C8
:100766000E942708E1E0F0E0EC0FFD1FE20FF31F07
:100776008083862F972F21503109009779F7BFEF95
:10078600EB16FB0681F403C00F5F1F4F02C000E0AB
:1007960010E0E1E0F0E0EC0FFD1FE00FF11F20811B
:1007A600222391F304C005E010E00E191F099923D6
:1007B60094F461E08DE20E948D060DC0E1E0F0E068
:1007C600EC0FFD1FE00FF11F808161E0805D0E944C
:1007D6008D060F5F1F4F0530110584F30F900F90A4
:1007E6000F900F900F90DF91CF911F910F91FF9077
:0407F600EF900895E3
:1007FA00EF92FF920F931F93CF93DF937C0140E018
:10080A0050E000E010E046C08091110290E0EA0159
:10081A0021969E0123703078332334F42150310914
:10082A002C6F3F6F2F5F3F4F880F991F880F991FBB
:10083A008C5D9D4FFC01E20FF31F808180930F02B4
:10084A0082B1E0910F02F0E0E55BFD4F9081807C80
:10085A00892B82B94E30510544F4FA01EC5CFD4F04
:10086A00808190E00E94590714C0C7010A97841733
:10087A00950754F4F801EE5BFD4F808190E00E94E9
:10088A0059070F5F1F4F05C08091410290E00E94F7
:10089A005907AE014E155F050CF4B6CF80910F02D1
:1008AA0080931102DF91CF911F910F91FF90EF90EA
:0208BA0008959F
:1008BC008CE092E00E947408809151029091520257
:1008CC008238934058F0E0910C02F0910D021082A6
:1008DC0080915F028F5F80935F0231C080915102E3
:1008EC00909152028C3B924060F0E0910C02F0919E
:1008FC000D0282E08083809160028F5F80936002A2
:10090C001EC080915102909152028436910560F084
:10091C00E0910C02F0910D0281E0808380916102E4
:10092C008F5F809361020BC0E0910C02F0910D027D
:10093C0083E08083809162028F5F809362024CE03F
:10094C0052E066E072E088E092E00E9479078FEF57
:10095C0093E09093520280935102109250021092A5
:08096C004F0210926F02089582
:10097400EF92FF920F931F93CF93DF937C01C0E01C
:10098400D0E000E010E03BC0809111029E01280FEE
:10099400311DC901019683709078992324F401973D
:1009A4008C6F9F6F019680930F0282B1E0910F02CA
:1009B400F0E0E55BFD4F9081807C892B82B9CE30DD
:1009C400D10544F4FE01EC5CFD4F808190E00E946F
:1009D400590714C0C7010A978C179D0754F4F801EE
:1009E400EE5BFD4F808190E00E9459070F5F1F4F1F
:1009F40005C08091410290E00E9459072196CE15CE
:100A0400DF0514F280910F0280931102DF91CF91E0
:0A0A14001F910F91FF90EF900895DD
:100A1E00CF93C82F2FEF86E791E021508040904072
:100A2E00E1F700C0000087B18F6087B987B1806899
:100A3E0087B987B1806487B987B1806287B988B179
:100A4E00807F88B988B18F7788B988B18F7D88B952
:100A5E0088B18F7B88B900C000C0000088B1806863
:100A6E0088B988B1826088B925E02A95F1F700002F
:100A7E0088B18F7788B985E08A95F1F700000E94DA
:100A8E00D90560E08C2F8C600E948D0660E088E2B4
:080A9E000E948D06CF9108951E
:100AA6001F920F920FB60F9211242F933F938F939D
:100AB6009F93209178002295269526952370809104
:100AC600790090E0880F991F880F991F820F911D5A
:100AD600909302028093010220910102309102025A
:100AE60080915102909152022817390740F4809163
:100AF60001029091020290935202809351028091DA
:100B06004F029091500201969093500280934F02AB
:100B160081E080936F029F918F913F912F910F906B
:080B26000FBE0F901F901895FF
:100B2E001F920F920FB60F9211240BB60F922F93A6
:100B3E003F934F935F936F937F938F939F93AF9357
:100B4E00BF93EF93FF9384E190E00E94590764995D
:100B5E0016C080916A028F5F80936A0280FF04C084
:100B6E0081E080936D0202C010926D0284E080934A
:100B7E007002649BFECF84E190E00E945907FF91C2
:100B8E00EF91BF91AF919F918F917F916F915F91F7
:100B9E004F913F912F910F900BBE0F900FBE0F9064
:040BAE001F901895E7
:100BB20087B1807F87B988B1806288B988B18F7B1D
:100BC20088B982E08A95F1F700C088B1806888B957
:100BD20092E09A95F1F700C086B18295807F92E00B
:100BE2009A95F1F700C098B19F7798B995E09A95D8
:100BF200F1F7000098B1906898B992E09A95F1F7F0
:100C020000C096B1807892E09A95F1F700C098B151
:100C12009F7798B995E09A95F1F700008111D5CFA9
:0E0C220088B18F7D88B987B18F6087B908953A
:100C30000097C9F1FC013297A0915302B091540280
:100C4000109759F1408151819C01240F351FA21743
:100C5000B30779F412968D919C91139793838283B5
:100C60002D913C91CA01820F931F0296918380833C
:100C700016C08D919C9111979C012E5F3F4F2A0FBA
:100C80003B1FE217F30731F4840F951F02968D93F3
:100C90009C930895B383A28302C013821282F093BF
:080CA0005402E0935302089591
:100CA8001F920F920FB60F9211240BB60F922F932B
:100CB8003F934F935F936F937F938F939F93AF93DC
:100CC800BF93EF93FF9384E190E00E9459076599E1
:100CD8000DC0809169028F5F80936902659BFECF8A
:100CE80084E190E00E9459070E94FE07FF91EF916E
:100CF800BF91AF919F918F917F916F915F914F912C
:100D08003F912F910F900BBE0F900FBE0F901F9029
:020D180018952C
:100D1A00282F22952F708F70611104C098B19F7B84
:100D2A0098B903C098B1906498B992E09A95F1F78E
:100D3A0000C098B1906898B998B1907F922B98B9F1
:100D4A0095E09A95F1F7000098B19F7798B995E0E8
:100D5A009A95F1F7000098B1906898B998B1907F88
:100D6A00892B88B985E08A95F1F7000088B18F77D9
:100D7A0088B995E09A95F1F700000E94D90508957F
:100D8A00FC01408151818091590290915A02892B2C
:100D9A0041F480915D0290915E0290935A02809391
:100DAA00590280915B0290915C02009719F48DB709
:100DBA009EB780972091590230915A022817390715
:100DCA0048F08CE090E0909313028093120280E046
:100DDA0090E00895821B930B8417950790F3420FB6
:0E0DEA00531F50935A0240935902C9010895B5
:100DF8001F920F920FB60F9211240BB60F922F93DA
:100E08003F934F935F936F937F938F939F93AF938A
:100E1800BF93EF93FF930E94FF080E94F30880910D
:100E28006C028F5F80936C02FF91EF91BF91AF913D
:100E38009F918F917F916F915F914F913F912F91EA
:0E0E48000F900BBE0F900FBE0F901F901895CD
:100E5600CF93DF9381B18F6381B980EF80930B01CC
:100E6600C0E0D0E01AC0CE0183709078992324F4B4
:100E760001978C6F9F6F019680930F0282B1E0916C
:100E86000F02F0E0E55BFD4F9081807C892B82B9F3
:100E960082E190E00E94590721961E99E4CF809145
:0C0EA6000F0280931102DF91CF9108959C
:100EB200E1E8F0E020812A60208328EE33E03093DD
:100EC200890020938800109285001092840026B336
:100ED200226026BB20E030E007C0B19B05C046B3CC
:100EE200426046BB2F5F3F4F28173907B4F308957E
:100EF200DB01ED91FC91309761F0DA018D919C91CB
:100F02001197928381838D919C91FB0191838083C0
:100F12000895DA012D913C911197FC0131832083D0
:0C0F22008D919C91DB018D939C930895B0
:100F2E002F923F924F925F926F927F928F929F92EB
:100F3E00AF92BF92CF92DF92EF92FF920F931F93D9
:100F4E00CF93DF93CDB7DEB7CA1BDB0B0FB6F8948A
:080F5E00DEBF0FBECDBF1994E8
:100F66002A88398848885F846E847D848C849B8433
:100F7600AA84B984C884DF80EE80FD800C811B8141
:100F8600AA81B981CE0FD11D0FB6F894DEBF0FBE70
:060F9600CDBFED0108953E
:100F9C00CF92DF92EF926B01E82E07C061E00E94C6
:100FAC008D068FEFC81AD80AE80AF6015E2D0E944A
:100FBC00EC08862F6111F2CFEF90DF90CF9008955F
:100FCC00FC0180819181DA018D939C93A081B18188
:100FDC00109731F011968D919C911297918380838B
:100FEC0080819181892B19F4FB0111821082089563
:100FFC00E1E9F0E080818D60808380E090E4909363
:10100C009900809398001092950010929400E1E75B
:0A101C00F0E0808182608083089577
:101026001F920F920FB60F9211248F9380916B022D
:101036008F5F80936B0282E0809370028F910F9096
:081046000FBE0F901F901895DA
:10104E0097FB072E16F4009407D077FD09D00E9467
:10105E003B0807FC05D03EF4909581959F4F08956F
:08106E00709561957F4F089514
:10107600AA1BBB1B51E107C0AA1FBB1FA617B707B8
:1010860010F0A61BB70B881F991F5A95A9F78095D4
:081096009095BC01CD01089505
:10109E0094B5936094BDEEE6F0E0908192609083FB
:1010AE0094B5906894BD95B5926095BD87BD84B199
:0610BE00806884B908956A
:1010C4008DB381608DBBE9E6F0E08081836080832D
:1010D4008DB382608DBB80818860808384B18F787A
:0410E40084B908952E
:1010E800CF93DF93EC0183E090E00E942E03998375
:0E10F8008883FC0112821182DF91CF9108954E
:101106001F920F920FB60F9211248F9381E0809356
:0E1116006E028F910F900FBE0F901F901895D4
:10112400EAE7F0E080818068808380818860808342
:0C113400ECE7F0E0808180668083089585
:101140008DB380638DBBEAE6F0E080818A608083A6
:0C11500084B18F6084B90E940A090895E0
:10115C00181619061CF40E94FD03089599232CF40B
:0C116C009195819591090E94BA040895A4
:10117800DC01ED91FC9180E090E004C001960180D3
:0A118800F281E02D3097D1F70895B1
:10119200EC010E9414090E941309CE010E94150954
:0611A200CE010E941009BD
:1011A800883230F46111806460E080680E948D06A6
:0211B800089598
:1011BA0085B1807F85B985E090E00E94590708953E
:0E11CA00FC0111821082FB0111821082089537
:0E11D80057FD03C05BBF6791089560810895C5
:0C11E600EAE7F0E08081806480830895D7
:0C11F200EAE7F0E080818F7780830895A9
:0C11FE00EAE7F0E08081806880830895BB
:0A120A0085B1807F8B6085B90895DF
:0812140085B18F6085B90895D2
:04121C000C94120913
:041220000E94B70071
:0212240018951B
:02122600089529
:02122800089527
:02122A00089525
:10122C00003264CECE00326464CE00323264CE0022
:10123C00000302010100030202010003030201008A
:0E124C0014131211100F0E0D0C0B0A090807D7
:09125A0008090A0B0C0E10121415
:0412630035362E2DC1
:02126700FF0383
:02126900000083
:02126B0071020E
:00000001FF
