:100000000C9485000C9401070C9403080C94F208DE
:100010000C94F2080C94CE060C945F060C94F20833
:100020000C94F2080C94F2080C94F2080C94F20868
:100030000C94F2080C94F2080C94F2080C94F20858
:100040000C94F2080C94F2080C94F2080C94F20848
:100050000C94F2080C94F2080C94F2080C94F20838
:100060000C94F2080C94F2080C94F2080C94F20828
:100070000C94F2080C9468050C94F2080C94F208A5
:100080000C94F2080C94F2080C94F2080C94F20808
:100090000C94F2080C94F2080C94F2080C94F208F8
:1000A0000C94F2080C94F2080C94F2080C94F208E8
:1000B0000C94F2080C94F2080C94F2080C94F208D8
:1000C0000C94F2080C94F2080C94F2080C94F208C8
:1000D0000C94F2080C94F2080C94F2080C94F208B8
:1000E0000C94F2080200021F80021F025C0011F44F
:1000F000025C0264800264026800123102680270CD
:1001000080000C9449030C94EB0511241FBECFEF23
:10011000D1E2DEBFCDBF00E00CBFE4EEF0E041E095
:1001200019C0B791A79137912791079107FD0EC08C
:1001300097918791EF01F92FE82F0BBF07900D9250
:10014000A217B307D9F7FE011BBE04C01D92A21768
:10015000B307E1F7E130F40721F70E94B7000C94F0
:06016000AD08F894FFCF8A
:08016600410053005700420064
:10016E000F931F93CF93DF93E1E6F0E080E8808357
:10017E0081E0808310926F02F89480EF80930A01E1
:10018E0083E00E94240560E081E00E9427060E9421
:10019E0052080E9484088DE790E00E943F080E945A
:1001AE0064080E9430071092150268E072E08AE03F
:1001BE0092E00E94C90860E080E00E94B80866E6FE
:1001CE0071E080E00E94D30760E083E00E94B808EF
:1001DE0068E671E080E00E94D30760E086E00E944E
:1001EE00B8086AE671E080E00E94D30760E089E01B
:1001FE000E94B8086CE671E080E00E94D307789404
:10020E0080E180930B010E94E90880916E028823A1
:10021E0029F00E94D7081C9B0E94730480916C02E7
:10022E00803339F488EC90E00E945E0785E080937D
:10023E006F0280916D02882399F068E072E08AE087
:10024E0092E00E94A008892B59F480910102882324
:10025E0039F080E780930B0183E080936F02D8C062
:10026E0080916F02833009F4D3C018F4823041F0CC
:10027E00C7CF843009F419C1853009F46BC1C0CFE2
:10028E0010926F0280E480930B01809101028F5FC8
:10029E008093010280916E02882329F00E94D70874
:1002AE001C9B0E9473040E94EE08E0910A02F091DA
:1002BE000B0280818130F1F008F44AC0823089F15E
:1002CE00833009F05AC0E091150284E0E89FF001F6
:1002DE001124E15EFD4F8381082E000C990B0E94C4
:1002EE00920880916B028F5F80936B0283E0809304
:1002FE00150243C0E091150284E0E89FF00111243D
:10030E00E15EFD4F8181082E000C990B0E94920830
:10031E0080916A028F5F80936A0281E0809315025A
:10032E002CC0E091150284E0E89FF0011124E15EFB
:10033E00FD4F8281082E000C990B0E94920880912D
:10034E0069028F5F8093690282E08093150215C067
:10035E00E091150284E0E89FF0011124E15EFD4F6B
:10036E008081082E000C990B0E94920880916802E1
:10037E008F5F80936802109215020E94E9088091A7
:10038E006E02882329F00E94D7081C9B0E947304DA
:10039E0044E052E068E072E08AE092E00E94EB07EF
:1003AE0080910402909105020E94EB0580916C02EF
:1003BE008F5F80936C0261E080E00E94B8088091AC
:1003CE006B0262E070E090E00E94B00361E083E0B7
:1003DE000E94B80880916A0262E070E090E00E948C
:1003EE00B00361E086E00E94B8088091690262E085
:1003FE0070E090E00E94B00361E089E00E94B808CE
:10040E008091680262E070E090E00E94B003F8CE46
:10041E0080EC80930B010E94EE0861E080E00E9468
:10042E00B80880916B0262E070E090E00E94B00329
:10043E0061E083E00E94B80880916A0262E070E099
:10044E0090E00E94B00361E086E00E94B8088091BF
:10045E00690262E070E090E00E94B00361E089E022
:10046E000E94B8088091680262E070E090E00E94FD
:10047E00B00310926B0210926A02109269021092EF
:10048E0068028FEF93E090935B0280935A02109272
:10049E001802109217021092160210921202109267
:1004AE000E021092190210926F0283E080930B01DC
:1004BE000E94EE0861E080E00E94B808809113026D
:1004CE0062E070E090E00E94B00361E083E00E9481
:1004DE00B80880910F0262E070E090E00E94B003D5
:1004EE0061E086E00E94B8088091140262E070E03C
:1004FE0090E00E94B00361E089E00E94B80880910C
:10050E00070262E070E090E00E94B00310921302C6
:10051E0010920F02109214021092070210926B02A8
:10052E0010926A0210926902109268028FEF93E0A5
:10053E0090935B0280935A02109218021092170247
:10054E00109216021092120210920E0210921902BE
:10055E0010926F020E94DD080E94C108F894C0E05C
:10056E00D0E010C00BE011E080EFF801808384EF43
:10057E0091E00E945E07F801108284EF91E00E94E4
:10058E005E072196CA30D1056CF380E090E0DF91D2
:08059E00CF911F910F91089508
:1005A600EF92FF920F931F93CF93DF9360915C02BC
:1005B60070915D026115710509F45BC0FB01A0E055
:1005C600B0E040E050E0C0E0D0E00081118122813F
:1005D60033810817190771F4109729F013963C9385
:1005E6002E93129704C030935D0220935C02CF01D4
:1005F600029641C08017910748F4209729F0E880B9
:10060600F9800E151F0510F4AD01EF01DF0121156C
:10061600310511F0F901D9CF209759F10A811B81D3
:10062600FE0121913191281B390B2530310588F0C7
:1006360099838883DF01A80FB91F225031091196CB
:100646003C932E9312960C93129713961C93139722
:100656008D01C617D70729F400935C0210935D023B
:1006660006C0DA0112960C93129713961C93CF01CB
:1006760002C080E090E0CDB7DEB7E6E00C94C40798
:10068600A2E0B0E0E9E4F3E00C94A6078C018BEE5F
:1006960095E00115110509F455C0892B79F0023052
:1006A600110510F402E010E0C8010E94D302009781
:1006B60009F04FC092E0E92EF12C04C08BEEE82E33
:1006C60085E0F82E80915E0290915F022091600293
:1006D60030916102821B930B6701C00ED11E8017F9
:1006E6009107F0F4DA82C982CE0101960E9497063C
:1006F600009719F480E090E02CC020915E023091C2
:100706005F028217930721F0909361028093600243
:1007160029813A81820F931F90935F0280935E0234
:10072600E0916002F0916102CF01E114F10419F049
:10073600029611830083CE0EDF1ED0926102C09214
:10074600600207C0009709F0ADCF7C0101E010E020
:0A075600B9CF2296E8E00C94C20728
:10076000EF92FF920F931F93CF93DF9300D00F92DE
:100770000F92CDB7DEB77B01FE01319625E0DF0198
:100780001D922A95E9F724E030E00FC06AE070E09E
:100790000E941708E1E0F0E0EC0FFD1FE20FF31FED
:1007A0008083862F972F21503109009779F7BFEF6B
:1007B000EB16FB0681F403C00F5F1F4F02C000E081
:1007C00010E0E1E0F0E0EC0FFD1FE00FF11F2081F1
:1007D000222391F304C005E010E00E191F099923AC
:1007E00094F461E08DE20E9427060DC0E1E0F0E0A4
:1007F000EC0FFD1FE00FF11F808161E0805D0E9422
:1008000027060F5F1F4F0530110584F30F900F90DF
:100810000F900F900F90DF91CF911F910F91FF904C
:04082000EF900895B8
:10082400EF92FF920F931F93CF93DF937C0140E0ED
:1008340050E000E010E046C080911C0290E0EA0124
:1008440021969E0123703078332334F421503109EA
:100854002C6F3F6F2F5F3F4F880F991F880F991F91
:10086400815D9D4FFC01E20FF31F808180931A028A
:1008740082B1E0911A02F0E0EA5AFD4F9081807C47
:10088400892B82B94E30510544F4FA01E15CFD4FE5
:10089400808190E00E945E0714C0C7010A97841704
:1008A400950754F4F801E35BFD4F808190E00E94CA
:1008B4005E070F5F1F4F05C080914C0290E00E94BD
:1008C4005E07AE014E155F050CF4B6CF80911A0297
:1008D40080931C02DF91CF911F910F91FF90EF90B5
:0208E400089575
:1008E60080E192E00E94750880915A0290915B0225
:1008F6008238934058F0E0911002F0911102108274
:10090600809107028F5F8093070231C080915A025F
:1009160090915B028C3B924060F0E0911002F09166
:10092600110282E08083809114028F5F809314020B
:100936001EC080915A0290915B028436910560F048
:10094600E0911002F091110281E0808380910F0204
:100956008F5F80930F020BC0E0911002F09111029D
:1009660083E08083809113028F5F8093130240E1BE
:1009760052E068E072E08AE092E00E947E078FEF24
:1009860093E090935B0280935A02109218021092A1
:08099600170210926E02089591
:10099E00EF92FF920F931F93CF93DF937C01C0E0F2
:1009AE00D0E000E010E03BC080911C029E01280FB9
:1009BE00311DC901019683709078992324F4019713
:1009CE008C6F9F6F019680931A0282B1E0911A028A
:1009DE00F0E0EA5AFD4F9081807C892B82B9CE30AF
:1009EE00D10544F4FE01E15CFD4F808190E00E9450
:1009FE005E0714C0C7010A978C179D0754F4F801BF
:100A0E00E35BFD4F808190E00E945E070F5F1F4FFA
:100A1E0005C080914C0290E00E945E072196CE1593
:100A2E00DF0514F280911A0280931C02DF91CF91A0
:0A0A3E001F910F91FF90EF900895B3
:100A4800CF93C82F2FEF86E791E021508040904048
:100A5800E1F700C0000087B18F6087B987B180686F
:100A680087B987B1806487B987B1806287B988B14F
:100A7800807F88B988B18F7788B988B18F7D88B928
:100A880088B18F7B88B900C000C0000088B1806839
:100A980088B988B1826088B925E02A95F1F7000005
:100AA80088B18F7788B985E08A95F1F700000E94B0
:100AB800AC0560E08C2F8C600E94270660E088E21D
:080AC8000E942706CF9108955A
:100AD0001F920F920FB60F9211242F933F938F9373
:100AE0009F932091780022952695269523708091DA
:100AF000790090E0880F991F880F991F820F911D30
:100B0000909303028093020220910202309103022B
:100B100080915A0290915B022817390740F4809126
:100B200002029091030290935B0280935A0280919B
:100B30001702909118020196909318028093170261
:100B400081E080936E029F918F913F912F910F9042
:080B50000FBE0F901F901895D5
:100B580087B1807F87B988B1806288B988B18F7B77
:100B680088B982E08A95F1F700C088B1806888B9B1
:100B780092E09A95F1F700C086B18295807F92E065
:100B88009A95F1F700C098B19F7798B995E09A9532
:100B9800F1F7000098B1906898B992E09A95F1F74A
:100BA80000C096B1807892E09A95F1F700C098B1AC
:100BB8009F7798B995E09A95F1F700008111D5CF04
:0E0BC80088B18F7D88B987B18F6087B9089595
:100BD6000097C9F1FC013297A0915C02B0915D02C9
:100BE600109759F1408151819C01240F351FA2179E
:100BF600B30779F412968D919C9113979383828310
:100C06002D913C91CA01820F931F02969183808396
:100C160016C08D919C9111979C012E5F3F4F2A0F14
:100C26003B1FE217F30731F4840F951F02968D934D
:100C36009C930895B383A28302C013821282F09319
:080C46005D02E0935C020895D9
:100C4E00282F22952F708F70611104C098B19F7B51
:100C5E0098B903C098B1906498B992E09A95F1F75B
:100C6E0000C098B1906898B998B1907F922B98B9BE
:100C7E0095E09A95F1F7000098B19F7798B995E0B5
:100C8E009A95F1F7000098B1906898B998B1907F55
:100C9E00892B88B985E08A95F1F7000088B18F77A6
:100CAE0088B995E09A95F1F700000E94AC05089579
:100CBE001F920F920FB60F9211240BB60F922F9315
:100CCE003F934F935F936F937F938F939F93AF93C6
:100CDE00BF93EF93FF93809119028F5F8093190258
:100CEE0089E190E00E945E07619BFECF89E190E072
:100CFE000E945E0781E080936D02FF91EF91BF919C
:100D0E00AF919F918F917F916F915F914F913F9195
:100D1E002F910F900BBE0F900FBE0F901F90189536
:100D2E00FC01408151818091620290916302892B76
:100D3E0041F48091660290916702909363028093D2
:100D4E0062028091640290916502009719F48DB74A
:100D5E009EB780972091620230916302281739075F
:100D6E0048F08CE090E090931E0280931D0280E08C
:100D7E0090E00895821B930B8417950790F3420F12
:0E0D8E00531F5093630240936202C9010895FF
:100D9C001F920F920FB60F9211240BB60F922F9336
:100DAC003F934F935F936F937F938F939F93AF93E7
:100DBC00BF93EF93FF9389E190E00E945E07609BE5
:100DCC00FECF89E190E00E945E0784E080936F0281
:100DDC00FF91EF91BF91AF919F918F917F916F9107
:100DEC005F914F913F912F910F900BBE0F900FBEC3
:060DFC000F901F901895F6
:100E02001F920F920FB60F9211240BB60F922F93CF
:100E12003F934F935F936F937F938F939F93AF9380
:100E2200BF93EF93FF930E94E3080E94D70880913B
:100E320016028F5F80931602FF91EF91BF91AF91DF
:100E42009F918F917F916F915F914F913F912F91E0
:0E0E52000F900BBE0F900FBE0F901F901895C3
:100E6000CF93DF9381B18F6381B980EF80930B01C2
:100E7000C0E0D0E01AC0CE0183709078992324F4AA
:100E800001978C6F9F6F019680931A0282B1E09157
:100E90001A02F0E0EA5AFD4F9081807C892B82B9DA
:100EA00082E190E00E945E0721961E99E4CF809136
:0C0EB0001A0280931C02DF91CF9108957C
:100EBC00E1E8F0E020812A60208328EE33E03093D3
:100ECC00890020938800109285001092840026B32C
:100EDC00226026BB20E030E007C0B19B05C046B3C2
:100EEC00426046BB2F5F3F4F28173907B4F3089574
:100EFC00DB01ED91FC91309761F0DA018D919C91C1
:100F0C001197928381838D919C91FB0191838083B6
:100F1C000895DA012D913C911197FC0131832083C6
:0C0F2C008D919C91DB018D939C930895A6
:100F38002F923F924F925F926F927F928F929F92E1
:100F4800AF92BF92CF92DF92EF92FF920F931F93CF
:100F5800CF93DF93CDB7DEB7CA1BDB0B0FB6F89480
:080F6800DEBF0FBECDBF1994DE
:100F70002A88398848885F846E847D848C849B8429
:100F8000AA84B984C884DF80EE80FD800C811B8137
:100F9000AA81B981CE0FD11D0FB6F894DEBF0FBE66
:060FA000CDBFED01089534
:100FA600CF92DF92EF926B01E82E07C061E00E94BC
:100FB60027068FEFC81AD80AE80AF6015E2D0E94A6
:100FC600D008862F6111F2CFEF90DF90CF90089571
:100FD600FC0180819181DA018D939C93A081B1817E
:100FE600109731F011968D919C9112979183808381
:100FF60080819181892B19F4FB0111821082089559
:101006001F920F920FB60F9211248F9380911202A6
:101016008F5F8093120282E080936F028F910F9010
:081026000FBE0F901F901895FA
:10102E0097FB072E16F4009407D077FD09D00E9487
:10103E002B0807FC05D03EF4909581959F4F08959F
:08104E00709561957F4F089534
:10105600AA1BBB1B51E107C0AA1FBB1FA617B707D8
:1010660010F0A61BB70B881F991F5A95A9F78095F4
:081076009095BC01CD01089525
:10107E0094B5936094BDEEE6F0E09081926090831B
:10108E0094B5906894BD95B5926095BD87BD84B1B9
:06109E00806884B908958A
:1010A4008DB381608DBBE9E6F0E08081836080834D
:1010B4008DB382608DBB80818860808384B18F789A
:0410C40084B908954E
:1010C8008DB380638DBBEAE6F0E080818A6080831F
:1010D8008DB18C7F8DB984B18F6084B90E94EE0880
:0210E800089569
:1010EA00CF93DF93EC0183E090E00E94430399835E
:0E10FA008883FC0112821182DF91CF9108954C
:10110800EAE7F0E08081806880838081886080835E
:0C111800ECE7F0E08081806680830895A1
:10112400181619061CF40E941204089599232CF42D
:0C1134009195819591090E94CF040895C7
:10114000DC01ED91FC9180E090E004C0019601800B
:0A115000F281E02D3097D1F70895E9
:10115A00EC010E94F8080E94F708CE010E94F908E3
:06116A00CE010E94F40812
:10117000883230F46111806460E080680E94270644
:021180000895D0
:1011820085B1807F85B985E090E00E945E07089571
:0E119200FC0111821082FB011182108208956F
:0E11A00057FD03C05BBF6791089560810895FD
:0C11AE00EAE7F0E080818064808308950F
:0C11BA00EAE7F0E080818F7780830895E1
:0C11C600EAE7F0E08081806880830895F3
:0A11D20085B1807F8B6085B9089518
:0811DC0085B18F6085B908950B
:0411E4000C94F60869
:0411E8000E94B100B0
:0211EC00189554
:0211EE00089562
:0211F000089560
:0211F20008955E
:1011F400003264CECE00326464CE00323264CE005B
:1012040000030201010003020201000303020100C2
:0E12140014131211100F0E0D0C0B0A0908070F
:0912220008090A0B0C0E1012144D
:04122B0035362E2DF9
:02122F00FF03BB
:021231000000BB
:02123300700247
:00000001FF
