:100000000C948B000C94D9070C94D9070C941C0603
:100010000C94D9070C94B3050C94E9050C94D907FA
:100020000C94D9070C94D9070C94D9070C94D907D0
:100030000C94D9070C94D9070C94D9070C94D907C0
:100040000C94D9070C94D9070C94D9070C94D907B0
:100050000C94D9070C94D9070C94D9070C94D907A0
:100060000C94D9070C94D9070C94D9070C94D90790
:100070000C94D9070C9409040C94D9070C94D90753
:100080000C94D9070C94D9070C94D9070C94D90770
:100090000C94D9070C94D9070C94D9070C94D90760
:1000A0000C94D9070C94D9070C94D9070C94D90750
:1000B0000C94D9070C94D9070C94D9070C94D90740
:1000C0000C94D9070C94D9070C94D9070C94D90730
:1000D0000C94D9070C94D9070C94D9070C94D90720
:1000E0000C94D9070200021D80021D0233000FC6C6
:1000F000023302358002350237000FDC0237023F3F
:1001000080023F0243000FDE0243024480000C9451
:10011000FC020C94CE0411241FBECFEFD1E2DEBF4F
:10012000CDBF00E00CBFE4EEF0E041E019C0B791B4
:10013000A79137912791079107FD0EC0979187915D
:10014000EF01F92FE82F0BBF07900D92A217B3070D
:10015000D9F7FE011BBE04C01D92A217B307E1F739
:10016000ED30F40721F70E94BD000C949507F89438
:02017000FFCFBF
:08017200420057005300410058
:10017A00F894E1E6F0E080E8808381E0808380EF14
:10018A0080930A0181B18F7381B983E00E94C5030C
:10019A0060E081E00E9444050E9415070E94BE07A4
:1001AA000E942B078CE390E00E94DB070E946707FE
:1001BA0078940E9446061092150268E072E08AE07E
:1001CA0092E00E94B0070E94D00700E010E0C0E071
:1001DA00D0E080E180930B017FC080E280930B0125
:1001EA000E94D507E0910A02F0910B0280818130CA
:1001FA00C9F0F0F1823049F1833009F04AC0E09148
:10020A001502F0E0EE0FFF1FEE0FFF1FE35EFD4F3A
:10021A008381082E000C990B0E94870783E0809344
:10022A00150237C0E0911502F0E0EE0FFF1FEE0F46
:10023A00FF1FE35EFD4F8181082E000C990B0E947F
:10024A00870781E08093150224C0E0911502F0E04F
:10025A00EE0FFF1FEE0FFF1FE35EFD4F8281082E98
:10026A00000C990B0E94870782E08093150211C047
:10027A00E0911502F0E0EE0FFF1FEE0FFF1FE35EA5
:10028A00FD4F8081082E000C990B0E94870710925F
:10029A0015020E94D00784EF91E00E94700661E087
:1002AA008C2F0E94A007E0910A02F0910B02808134
:1002BA0061E070E090E00E946303229646E052E01B
:1002CA0068E072E08AE092E00E94FD0680910602F0
:1002DA00909107020E94CE041D9B7FCF21C00E94ED
:1002EA00A90780EF80930B0180914302882399F03C
:1002FA0020910302309104028091310290913202DE
:10030A002817390740F480910302909104029093D0
:10031A003202809331021092430281E080930E02EE
:10032A001C99DDCF80910E02882309F4C3C080E1B5
:10033A0092E00E9478070E94C40780910C028F5FA6
:10034A0080930C0280910C02813089F480913102F1
:10035A009091320290933602809335028091310255
:10036A0090913202909334028093330226C02091F6
:10037A003502309136028091310290913202821711
:10038A00930740F4809131029091320290933602A1
:10039A0080933502209133023091340280913102E8
:1003AA00909132022817390740F4809131029091D6
:1003BA0032029093340280933302809131029091F9
:1003CA00320283399340A0F0E0911002F0911102B9
:1003DA001082809116028F5F8093160260E0802F50
:1003EA000E94A00762E771E080E00E94E5064CC027
:1003FA00809131029091320280329340A8F0E091CC
:10040A001002F091110282E08083809112028F5FC4
:10041A008093120260E0802F0E94A00764E771E0D7
:10042A0080E00E94E50630C080913102909132024C
:10043A0084369105A8F0E0911002F091110281E052
:10044A00808380910F028F5F80930F0260E0802F7C
:10045A000E94A00766E771E080E00E94E50614C0EA
:10046A00E0911002F091110283E0808380910502ED
:10047A008F5F8093050260E0802F0E94A00768E7E3
:10048A0071E080E00E94E5060E5F1F4F40E152E0F6
:10049A0068E072E08AE092E00E94900610920E02F2
:1004AA0010921802109217028FEF93E09093320283
:1004BA00809331028091430281111092430280910C
:1004CA00000290910102892B11F00E94D5078091B8
:1004DA001902882309F47DCE109234021092330255
:1004EA008FEF93E090933602809335029093320215
:1004FA008093310210920C02109218021092170285
:02050A0068CEB9
:10050C00EF92FF920F931F93CF93DF93609137027B
:10051C00709138026115710509F45BC0FB01A0E014
:10052C00B0E040E050E0C0E0D0E0008111812281D9
:10053C0033810817190771F4109729F013963C931F
:10054C002E93129704C03093380220933702CF01B8
:10055C00029641C08017910748F4209729F0E88053
:10056C00F9800E151F0510F4AD01EF01DF01211507
:10057C00310511F0F901D9CF209759F10A811B816E
:10058C00FE0121913191281B390B2530310588F062
:10059C0099838883DF01A80FB91F22503109119666
:1005AC003C932E9312960C93129713961C931397BD
:1005BC008D01C617D70729F4009337021093380220
:1005CC0006C0DA0112960C93129713961C93CF0166
:1005DC0002C080E090E0CDB7DEB7E6E00C94D60622
:1005EC00A2E0B0E0ECEFF2E00C94B8068C018EECDB
:1005FC0094E00115110509F455C0892B79F00230EE
:10060C00110510F402E010E0C8010E948602009768
:10061C0009F04FC092E0E92EF12C04C08EECE82ECC
:10062C0084E0F82E8091390290913A0220913B029D
:10063C0030913C02821B930B6701C00ED11E8017B8
:10064C009107F0F4DA82C982CE0101960E947C05F2
:10065C00009719F480E090E02CC020913902309181
:10066C003A028217930721F090933C0280933B024D
:10067C0029813A81820F931F90933A028093390219
:10068C00E0913B02F0913C02CF01E114F10419F02E
:10069C00029611830083CE0EDF1ED0923C02C092D4
:1006AC003B0207C0009709F0ADCF7C0101E010E0E0
:0A06BC00B9CF2296E8E00C94D406B2
:1006C600EF92FF920F931F93CF93DF9300D00F9279
:1006D6000F92CDB7DEB77B01FE01319625E0DF0133
:1006E6001D922A95E9F724E030E00FC06AE070E039
:1006F6000E943F07E1E0F0E0EC0FFD1FE20FF31F61
:100706008083862F972F21503109009779F7BFEF05
:10071600EB16FB0681F403C00F5F1F4F02C000E01B
:1007260010E0E1E0F0E0EC0FFD1FE00FF11F20818B
:10073600222391F304C005E010E00E191F09992346
:1007460094F461E08DE20E9444050DC0E1E0F0E022
:10075600EC0FFD1FE00FF11F808161E0805D0E94BC
:1007660044050F5F1F4F0530110584F30F900F905E
:100776000F900F900F90DF91CF911F910F91FF90E7
:04078600EF90089553
:10078A00CF93C82F2FEF86E791E021508040904009
:10079A00E1F700C0000087B18F6087B987B1806830
:1007AA0087B987B1806487B987B1806287B988B110
:1007BA00807F88B988B18F7788B988B18F7D88B9E9
:1007CA0088B18F7B88B900C000C0000088B18068FA
:1007DA0088B988B1826088B925E02A95F1F70000C6
:1007EA0088B18F7788B985E08A95F1F700000E9471
:1007FA008F0460E08C2F8C600E94440560E088E2E0
:08080A000E944405CF910895FE
:100812001F920F920FB60F9211242F933F938F9333
:100822009F9320917800229526952695237080919A
:10083200790090E0880F991F880F991F820F911DF0
:1008420090930402809303022091030230910402E8
:1008520080913102909132022817390740F4809139
:10086200030290910402909332028093310281E05C
:1008720080934302809117029091180201969093FF
:100882001802809317029F918F913F912F910F90A1
:080892000FBE0F901F90189596
:10089A000F931F93CF93DF93EC0100E010E020C089
:1008AA0022B180911A02A801480F511DCA01837012
:1008BA009078992324F401978C6F9F6F0196E3E057
:1008CA00F0E0E81BF90BE35DFD4F9081822F807CFD
:1008DA00892B82B90F5F1F4F84E190E00E94700656
:1008EA000C171D07ECF280911A02080F111D0370F4
:1008FA001078112334F4015011090C6F1F6F0F5F28
:10090A001F4F83E0801B80931A02DF91CF911F91C2
:04091A000F9108959C
:10091E0087B1807F87B988B1806288B988B18F7BB3
:10092E0088B982E08A95F1F700C088B1806888B9ED
:10093E0092E09A95F1F700C086B18295807F92E0A1
:10094E009A95F1F700C098B19F7798B995E09A956E
:10095E00F1F7000098B1906898B992E09A95F1F786
:10096E0000C096B1807892E09A95F1F700C098B1E8
:10097E009F7798B995E09A95F1F700008111D5CF40
:0E098E0088B18F7D88B987B18F6087B90895D1
:10099C000097C9F1FC013297A0913702B09138024F
:1009AC00109759F1408151819C01240F351FA217DA
:1009BC00B30779F412968D919C911397938382834C
:1009CC002D913C91CA01820F931F029691838083D3
:1009DC0016C08D919C9111979C012E5F3F4F2A0F51
:1009EC003B1FE217F30731F4840F951F02968D938A
:1009FC009C930895B383A28302C013821282F09356
:080A0C003802E093370208955F
:100A14000F931F93CF93DF938C01C0E0D0E01CC0F1
:100A240022B180911A02AE01480F511DCA01837090
:100A34009078992324F401978C6F9F6F0196FC01A1
:100A4400E35DFD4F9081822F807C892B82B92196B2
:100A540084E190E00E947006C017D1070CF38091E6
:100A64001A02C80FD11DC370D078DD2324F4219756
:100A7400CC6FDF6F2196C0931A02DF91CF911F9143
:040A84000F91089531
:100A8800282F22952F708F70611104C098B19F7B19
:100A980098B903C098B1906498B992E09A95F1F723
:100AA80000C098B1906898B998B1907F922B98B986
:100AB80095E09A95F1F7000098B19F7798B995E07D
:100AC8009A95F1F7000098B1906898B998B1907F1D
:100AD800892B88B985E08A95F1F7000088B18F776E
:100AE80088B995E09A95F1F700000E948F0408955F
:100AF800FC014081518180913D0290913E02892BF9
:100B080041F4809141029091420290933E02809379
:100B18003D0280913F0290914002009719F48DB7F1
:100B28009EB7809720913D0230913E0228173907E1
:100B380048F08CE090E090931C0280931B0280E0C8
:100B480090E00895821B930B8417950790F3420F4A
:0E0B5800531F50933E0240933D02C901089581
:100B66001F920F920FB60F9211240BB60F922F936E
:100B76003F934F935F936F937F938F939F93AF931F
:100B8600BF93EF93FF9389E190E00E94700681E0A6
:100B960090E09093010280930002619BFECF89E171
:100BA60090E00E947006FF91EF91BF91AF919F91E7
:100BB6008F917F916F915F914F913F912F910F9000
:0C0BC6000BBE0F900FBE0F901F901895F3
:100BD2001F920F920FB60F9211240BB60F922F9302
:100BE2003F934F935F936F937F938F939F93AF93B3
:100BF200BF93EF93FF9389E190E00E94700681E03A
:100C020080931902609BFECF89E190E00E947006FA
:100C1200FF91EF91BF91AF919F918F917F916F91D2
:100C22005F914F913F912F910F900BBE0F900FBE8E
:060C32000F901F901895C1
:100C38001F920F920FB60F9211240BB60F922F939B
:100C48003F934F935F936F937F938F939F93AF934C
:100C5800BF93EF93FF930E94CA070E94A907FF91D1
:100C6800EF91BF91AF919F918F917F916F915F911C
:100C78004F913F912F910F900BBE0F900FBE0F9089
:040C88001F9018950C
:100C8C00CF93DF9381B18F6381B980EF80930B0198
:100C9C00C0E0D0E017C022B1CE01837090789923C8
:100CAC0024F401978C6F9F6F0196FC01E35DFD4F5F
:100CBC009081822F807C892B82B984E190E00E9404
:100CCC00700621961E99E7CF82E080931A02DF917D
:040CDC00CF91089517
:100CE000E1E8F0E020812A6020832BEE33E03093AE
:100CF000890020938800109285001092840026B30A
:100D0000226026BB20E030E007C0B19B05C046B39F
:100D1000426046BB2F5F3F4F28173907B4F3089551
:100D2000DB01ED91FC91309761F0DA018D919C919E
:100D30001197928381838D919C91FB019183808394
:100D40000895DA012D913C911197FC0131832083A4
:0C0D50008D919C91DB018D939C93089584
:100D5C002F923F924F925F926F927F928F929F92BF
:100D6C00AF92BF92CF92DF92EF92FF920F931F93AD
:100D7C00CF93DF93CDB7DEB7CA1BDB0B0FB6F8945E
:080D8C00DEBF0FBECDBF1994BC
:100D94002A88398848885F846E847D848C849B8407
:100DA400AA84B984C884DF80EE80FD800C811B8115
:100DB400AA81B981CE0FD11D0FB6F894DEBF0FBE44
:060DC400CDBFED01089512
:100DCA00CF92DF92EF926B01E82E07C061E00E949A
:100DDA0044058FEFC81AD80AE80AF6015E2D0E9468
:100DEA00B707862F6111F2CFEF90DF90CF90089569
:100DFA00FC0180819181DA018D939C93A081B1815C
:100E0A00109731F011968D919C911297918380835E
:100E1A0080819181892B19F4FB0111821082089536
:100E2A008DB384608DBBE9E6F0E0808180638083C6
:100E3A00EAE7F0E08081806880838081886080832F
:0C0E4A00ECE7F0E0808180668083089572
:100E560084B5836084BDEEE6F0E0808182608083A5
:100E660084B5806884BD85B5826085BD8FE787BD02
:080E760084B1806884B908957D
:100E7E0097FB072E16F4009407D077FD09D00E9439
:100E8E00530707FC05D03EF4909581959F4F08952A
:080E9E00709561957F4F0895E6
:100EA600AA1BBB1B51E107C0AA1FBB1FA617B7078A
:100EB60010F0A61BB70B881F991F5A95A9F78095A6
:080EC6009095BC01CD010895D7
:100ECE008DB380638DBBEAE6F0E080818A6080831B
:100EDE0084B18F6084B98DB18C7F8DB90E94D50796
:020EEE00089565
:100EF000CF93DF93EC0183E090E00E94F6029983A8
:0E0F00008883FC0112821182DF91CF91089547
:100F0E00181619061CF40E944D04089599232CF40A
:0C0F1E009195819591090E940A050895A3
:100F2A00EC010E94E1070E94E007CE010E94E2075D
:060F3A00CE010E94DD075C
:100F4000883230F46111806460E080680E9444055A
:020F5000089502
:0E0F52007894EAE7F0E080818064808308955F
:0E0F6000FC0111821082FB01118210820895A3
:0E0F6E0057FD03C05BBF679108956081089531
:0C0F7C00EAE7F0E0808180628083089545
:0C0F8800EAE7F0E080818F778083089515
:0C0F9400EAE7F0E0808180688083089527
:0A0FA00085B1807F8B6085B908954C
:080FAA0085B18F6085B908953F
:040FB2000C94DF07B5
:040FB60087BD089556
:040FBA000E94B700DA
:020FBE00189584
:020FC000089592
:020FC200089590
:020FC40008958E
:100FC600003264CECE00326464CE00323264CE008B
:040FD60030062805B4
:020FDA00FF0313
:020FDC00FF0311
:020FDE00000011
:020FE0004402C9
:00000001FF
