:100000000C9485000C9435070C9407080C94F008A8
:100010000C94F0080C94D4060C9465060C94F0082B
:100020000C94F0080C94F0080C94F0080C94F00870
:100030000C94F0080C94F0080C94F0080C94F00860
:100040000C94F0080C94F0080C94F0080C94F00850
:100050000C94F0080C94F0080C94F0080C94F00840
:100060000C94F0080C94F0080C94F0080C94F00830
:100070000C94F0080C946E050C94F0080C94F008A5
:100080000C94F0080C94F0080C94F0080C94F00810
:100090000C94F0080C94F0080C94F0080C94F00800
:1000A0000C94F0080C94F0080C94F0080C94F008F0
:1000B0000C94F0080C94F0080C94F0080C94F008E0
:1000C0000C94F0080C94F0080C94F0080C94F008D0
:1000D0000C94F0080C94F0080C94F0080C94F008C0
:1000E0000C94F0080200022480022402610011F046
:1000F00002610269800269026D00122D026D0270B8
:1001000080000C94F1050C944F0311241FBECFEF17
:10011000D1E2DEBFCDBF00E00CBFE4EEF0E041E095
:1001200019C0B791A79137912791079107FD0EC08C
:1001300097918791EF01F92FE82F0BBF07900D9250
:10014000A217B307D9F7FE011BBE04C01D92A21768
:10015000B307E1F7E130F40721F70E94BC000C94EB
:06016000B108F894FFCF86
:10016600410053005700420052414D500050415546
:02017600530034
:100178000F931F93CF93DF93E1E6F0E080E880834D
:1001880081E0808310926F02F89480EF80930A01D7
:1001980083E00E942A0560E081E00E942D060E940B
:1001A80056080E94880883E790E00E9443080E944E
:1001B80068080E9407071092190269E072E08BE054
:1001C80092E00E94CD0860E080E00E94BC0866E6EC
:1001D80071E080E00E94D70760E083E00E94BC08DD
:1001E80068E671E080E00E94D70760E086E00E9440
:1001F800BC086AE671E080E00E94D70760E089E009
:100208000E94BC086CE671E080E00E94D7077894F1
:1002180080E180930B010E94E70880916E028111B2
:100228000E94DB081C9909C080916E02882329F07E
:1002380080E780930B010E94790480910D0280333E
:1002480039F488EC90E00E94620785E080936F02A1
:1002580080916D028823B9F069E072E08BE092E04A
:100268000E94A408892B79F480910102882359F00F
:1002780088EC90E00E94620780E780930B0183E09E
:1002880080936F02D6C080916F02833009F4D1C089
:1002980018F4823041F0BCCF843009F420C1853095
:1002A80009F461C1B5CF10926F0280E480930B010D
:1002B800809101028F5F809301020E94EC08E09117
:1002C8000B02F0910C0280818130F1F008F44AC0F1
:1002D800823089F1833009F05AC0E091190284E034
:1002E800E89FF0011124EC5DFD4F8381082E000C7E
:1002F800990B0E949608809104028F5F80930402F4
:1003080083E08093190243C0E091190284E0E89FDA
:10031800F0011124EC5DFD4F8181082E000C990B32
:100328000E949608809110028F5F8093100281E0EE
:10033800809319022CC0E091190284E0E89FF00133
:100348001124EC5DFD4F8281082E000C990B0E9450
:100358009608809115028F5F8093150282E0809342
:10036800190215C0E091190284E0E89FF0011124F8
:10037800EC5DFD4F8081082E000C990B0E949608B9
:1003880080911B028F5F80931B02109219020E94BA
:10039800E70845E052E069E072E08BE092E00E94F5
:1003A800EF0780910502909106020E94F105809165
:1003B8006E0281110E94DB081C9909C080916E02AF
:1003C800882329F080E780930B010E9479048091AB
:1003D8000D028F5F80930D0261E080E00E94BC08EF
:1003E8008091040262E070E090E00E94B60361E050
:1003F80083E00E94BC088091100262E070E090E007
:100408000E94B60361E086E00E94BC088091150254
:1004180062E070E090E00E94B60361E089E00E942B
:10042800BC0880911B0262E070E090E00E94B60375
:10043800EFCE80EC80930B010E94EC0861E080E035
:100448000E94BC088091040262E070E090E00E9483
:10045800B60361E083E00E94BC088091100262E06C
:1004680070E090E00E94B60361E086E00E94BC085C
:100478008091150262E070E090E00E94B60361E0AE
:1004880089E00E94BC0880911B0262E070E090E065
:100498000E94B60360E08BE00E94BC086EE671E043
:1004A80080E00E94D7071092040210921002109266
:1004B800150210921B028FEF93E0909360028093D5
:1004C8005F0210921D0210921C0210921A021092E2
:1004D80016021092110210921E0210926F0283E00F
:1004E80080930B010E94EC0861E080E00E94BC0848
:1004F8008091170262E070E090E00E94B60361E02C
:1005080083E00E94BC088091120262E070E090E0F3
:100518000E94B60361E086E00E94BC088091180240
:1005280062E070E090E00E94B60361E089E00E941A
:10053800BC088091080262E070E090E00E94B60377
:1005480060E08BE00E94BC0863E771E080E00E94F5
:10055800D7071092170210921202109218021092E6
:10056800080210926F020E94E1080E94C508F894E0
:10057800C0E0D0E010C00BE011E080EFF80180830C
:1005880084EF91E00E946207F801108284EF91E005
:100598000E9462072196CA30D1056CF380E090E092
:0A05A800DF91CF911F910F9108958C
:1005B200EF92FF920F931F93CF93DF9360916102AB
:1005C200709162026115710509F45BC0FB01A0E044
:1005D200B0E040E050E0C0E0D0E000811181228133
:1005E20033810817190771F4109729F013963C9379
:1005F2002E93129704C03093620220936102CF01BE
:10060200029641C08017910748F4209729F0E880AC
:10061200F9800E151F0510F4AD01EF01DF01211560
:10062200310511F0F901D9CF209759F10A811B81C7
:10063200FE0121913191281B390B2530310588F0BB
:1006420099838883DF01A80FB91F225031091196BF
:100652003C932E9312960C93129713961C93139716
:100662008D01C617D70729F4009361021093620225
:1006720006C0DA0112960C93129713961C93CF01BF
:1006820002C080E090E0CDB7DEB7E6E00C94C80788
:10069200A2E0B0E0EFE4F3E00C94AA078C0181EF52
:1006A20095E00115110509F455C0892B79F0023046
:1006B200110510F402E010E0C8010E94D90200976F
:1006C20009F04FC092E0E92EF12C04C081EFE82E30
:1006D20085E0F82E80916302909164022091650278
:1006E20030916602821B930B6701C00ED11E8017E8
:1006F2009107F0F4DA82C982CE0101960E949D062A
:10070200009719F480E090E02CC0209163023091B0
:1007120064028217930721F0909366028093650228
:1007220029813A81820F931F90936402809363021E
:10073200E0916502F0916602CF01E114F10419F033
:10074200029611830083CE0EDF1ED0926602C09203
:10075200650207C0009709F0ADCF7C0101E010E00F
:0A076200B9CF2296E8E00C94C60718
:10076C00EF92FF920F931F93CF93DF9300D00F92D2
:10077C000F92CDB7DEB77B01FE01319625E0DF018C
:10078C001D922A95E9F724E030E00FC06AE070E092
:10079C000E941B08E1E0F0E0EC0FFD1FE20FF31FDD
:1007AC008083862F972F21503109009779F7BFEF5F
:1007BC00EB16FB0681F403C00F5F1F4F02C000E075
:1007CC0010E0E1E0F0E0EC0FFD1FE00FF11F2081E5
:1007DC00222391F304C005E010E00E191F099923A0
:1007EC0094F461E08DE20E942D060DC0E1E0F0E092
:1007FC00EC0FFD1FE00FF11F808161E0805D0E9416
:10080C002D060F5F1F4F0530110584F30F900F90CD
:10081C000F900F900F90DF91CF911F910F91FF9040
:04082C00EF900895AC
:10083000EF92FF920F931F93CF93DF937C0140E0E1
:1008400050E000E010E046C08091210290E0EA0113
:1008500021969E0123703078332334F421503109DE
:100860002C6F3F6F2F5F3F4F880F991F880F991F85
:100870008C5C9D4FFC01E20FF31F808180931F026F
:1008800082B1E0911F02F0E0E55AFD4F9081807C3B
:10089000892B82B94E30510544F4FA01EC5BFD4FCF
:1008A000808190E00E94620714C0C7010A978417F4
:1008B000950754F4F801EE5AFD4F808190E00E94B4
:1008C00062070F5F1F4F05C08091510290E00E94A8
:1008D0006207AE014E155F050CF4B6CF80911F0282
:1008E00080932102DF91CF911F910F91FF90EF90A4
:0208F000089569
:1008F20083E192E00E94790880915F029091600208
:100902008339934058F0E0911302F091140210825F
:10091200809108028F5F8093080231C080915F024C
:10092200909160028C3B924060F0E0911302F09152
:10093200140282E08083809118028F5F80931802F4
:100942001EC080915F02909160028039914060F0F8
:10095200E0911302F091140281E0808380911202EF
:100962008F5F809312020BC0E0911302F091140288
:1009720083E08083809117028F5F8093170243E1A7
:1009820052E069E072E08BE092E00E9482078FEF12
:1009920093E09093600280935F0210921D02109286
:0809A2001C0210926E02089580
:1009AA00EF92FF920F931F93CF93DF937C01C0E0E6
:1009BA00D0E000E010E03BC0809121029E01280FA8
:1009CA00311DC901019683709078992324F4019707
:1009DA008C6F9F6F019680931F0282B1E0911F0274
:1009EA00F0E0E55AFD4F9081807C892B82B9CE30A8
:1009FA00D10544F4FE01EC5BFD4F808190E00E943A
:100A0A00620714C0C7010A978C179D0754F4F801AE
:100A1A00EE5AFD4F808190E00E9462070F5F1F4FE0
:100A2A0005C08091510290E00E9462072196CE157E
:100A3A00DF0514F280911F0280932102DF91CF918A
:0A0A4A001F910F91FF90EF900895A7
:100A5400CF93C82F2FEF86E791E02150804090403C
:100A6400E1F700C0000087B18F6087B987B1806863
:100A740087B987B1806487B987B1806287B988B143
:100A8400807F88B988B18F7788B988B18F7D88B91C
:100A940088B18F7B88B900C000C0000088B180682D
:100AA40088B988B1826088B925E02A95F1F70000F9
:100AB40088B18F7788B985E08A95F1F700000E94A4
:100AC400B20560E08C2F8C600E942D0660E088E205
:080AD4000E942D06CF91089548
:100ADC001F920F920FB60F9211242F933F938F9367
:100AEC009F932091780022952695269523708091CE
:100AFC00790090E0880F991F880F991F820F911D24
:100B0C00909303028093020220910202309103021F
:100B1C0080915F02909160022817390740F4809110
:100B2C000202909103029093600280935F02809185
:100B3C001C0290911D02019690931D0280931C0241
:100B4C0081E080936E029F918F913F912F910F9036
:080B5C000FBE0F901F901895C9
:100B640087B1807F87B988B1806288B988B18F7B6B
:100B740088B982E08A95F1F700C088B1806888B9A5
:100B840092E09A95F1F700C086B18295807F92E059
:100B94009A95F1F700C098B19F7798B995E09A9526
:100BA400F1F7000098B1906898B992E09A95F1F73E
:100BB40000C096B1807892E09A95F1F700C098B1A0
:100BC4009F7798B995E09A95F1F700008111D5CFF8
:0E0BD40088B18F7D88B987B18F6087B9089589
:100BE2000097C9F1FC013297A0916102B0916202B3
:100BF200109759F1408151819C01240F351FA21792
:100C0200B30779F412968D919C9113979383828303
:100C12002D913C91CA01820F931F0296918380838A
:100C220016C08D919C9111979C012E5F3F4F2A0F08
:100C32003B1FE217F30731F4840F951F02968D9341
:100C42009C930895B383A28302C013821282F0930D
:080C52006202E09361020895C3
:100C5A00282F22952F708F70611104C098B19F7B45
:100C6A0098B903C098B1906498B992E09A95F1F74F
:100C7A0000C098B1906898B998B1907F922B98B9B2
:100C8A0095E09A95F1F7000098B19F7798B995E0A9
:100C9A009A95F1F7000098B1906898B998B1907F49
:100CAA00892B88B985E08A95F1F7000088B18F779A
:100CBA0088B995E09A95F1F700000E94B205089567
:100CCA001F920F920FB60F9211240BB60F922F9309
:100CDA003F934F935F936F937F938F939F93AF93BA
:100CEA00BF93EF93FF9380911E028F5F80931E0242
:100CFA0089E190E00E946207619BFECF89E190E062
:100D0A000E94620781E080936D02FF91EF91BF918B
:100D1A00AF919F918F917F916F915F914F913F9189
:100D2A002F910F900BBE0F900FBE0F901F9018952A
:100D3A00FC01408151818091670290916802892B60
:100D4A0041F480916B0290916C02909368028093B7
:100D5A0067028091690290916A02009719F48DB72F
:100D6A009EB7809720916702309168022817390749
:100D7A0048F08CE090E0909323028093220280E076
:100D8A0090E00895821B930B8417950790F3420F06
:0E0D9A00531F5093680240936702C9010895E9
:100DA8001F920F920FB60F9211240BB60F922F932A
:100DB8003F934F935F936F937F938F939F93AF93DB
:100DC800BF93EF93FF9389E190E00E946207609BD5
:100DD800FECF89E190E00E94620784E080936F0271
:100DE800FF91EF91BF91AF919F918F917F916F91FB
:100DF8005F914F913F912F910F900BBE0F900FBEB7
:060E08000F901F901895E9
:100E0E00CF93DF9381B18F6381B980EF80930B0114
:100E1E00C0E0D0E01AC0CE0183709078992324F4FC
:100E2E0001978C6F9F6F019680931F0282B1E091A4
:100E3E001F02F0E0E55AFD4F9081807C892B82B92C
:100E4E0082E190E00E94620721961E99E4CF809184
:0C0E5E001F0280932102DF91CF910895C4
:100E6A001F920F920FB60F9211240BB60F922F9367
:100E7A003F934F935F936F937F938F939F93AF9318
:100E8A00BF93EF93FF930E94DB0880911A028F5F52
:100E9A0080931A02FF91EF91BF91AF919F918F9129
:100EAA007F916F915F914F913F912F910F900BBE60
:0A0EBA000F900FBE0F901F901895C7
:100EC400E1E8F0E020812A60208328EE33E03093CB
:100ED400890020938800109285001092840026B324
:100EE400226026BB20E030E007C0B19B05C046B3BA
:100EF400426046BB2F5F3F4F28173907B4F308956C
:100F0400DB01ED91FC91309761F0DA018D919C91B8
:100F14001197928381838D919C91FB0191838083AE
:100F24000895DA012D913C911197FC0131832083BE
:0C0F34008D919C91DB018D939C9308959E
:100F40002F923F924F925F926F927F928F929F92D9
:100F5000AF92BF92CF92DF92EF92FF920F931F93C7
:100F6000CF93DF93CDB7DEB7CA1BDB0B0FB6F89478
:080F7000DEBF0FBECDBF1994D6
:100F78002A88398848885F846E847D848C849B8421
:100F8800AA84B984C884DF80EE80FD800C811B812F
:100F9800AA81B981CE0FD11D0FB6F894DEBF0FBE5E
:060FA800CDBFED0108952C
:100FAE00CF92DF92EF926B01E82E07C061E00E94B4
:100FBE002D068FEFC81AD80AE80AF6015E2D0E9498
:100FCE00D408862F6111F2CFEF90DF90CF90089565
:100FDE00FC0180819181DA018D939C93A081B18176
:100FEE00109731F011968D919C9112979183808379
:100FFE0080819181892B19F4FB0111821082089551
:10100E001F920F920FB60F9211248F93809116029A
:10101E008F5F8093160282E080936F028F910F9004
:08102E000FBE0F901F901895F2
:1010360097FB072E16F4009407D077FD09D00E947F
:101046002F0807FC05D03EF4909581959F4F089593
:08105600709561957F4F08952C
:10105E00AA1BBB1B51E107C0AA1FBB1FA617B707D0
:10106E0010F0A61BB70B881F991F5A95A9F78095EC
:08107E009095BC01CD0108951D
:1010860094B5936094BDEEE6F0E090819260908313
:1010960094B5906894BD95B5926095BD87BD84B1B1
:0610A600806884B9089582
:1010AC008DB381608DBBE9E6F0E080818360808345
:1010BC008DB382608DBB80818860808384B18F7892
:0410CC0084B9089546
:1010D0008DB380638DBBEAE6F0E080818A60808317
:1010E0008DB18C7F8DB984B18F6084B90E94EC087A
:0210F000089561
:1010F200CF93DF93EC0183E090E00E944903998350
:0E1102008883FC0112821182DF91CF91089543
:10111000EAE7F0E080818068808380818860808356
:0C112000ECE7F0E0808180668083089599
:10112C00181619061CF40E941804089599232CF41F
:0C113C009195819591090E94D5040895B9
:10114800DC01ED91FC9180E090E004C00196018003
:0A115800F281E02D3097D1F70895E1
:10116200EC010E94F6080E94F508CE010E94F708E1
:06117200CE010E94F2080C
:10117800883230F46111806460E080680E942D0636
:021188000895C8
:10118A0085B1807F85B985E090E00E946207089565
:0E119A00FC0111821082FB0111821082089567
:0E11A80057FD03C05BBF6791089560810895F5
:0C11B600EAE7F0E0808180648083089507
:0C11C200EAE7F0E080818F7780830895D9
:0A11CE0085B1807F8B6085B908951C
:0811D80085B18F6085B908950F
:0411E0000C94F4086F
:0411E4000E94B100B4
:0211E800189558
:0211EA00089566
:0211EC00089564
:0211EE00089562
:1011F000003264CECE00326464CE00323264CE005F
:1012000000030201010003020201000303020100C6
:0E12100014131211100F0E0D0C0B0A09080713
:09121E0008090A0B0C0E10121451
:0412270035362E2DFD
:02122B00FF03BF
:02122D000000BF
:02122F0070024B
:00000001FF
