:100000000C9482000C94A2070C94A2070C94A706EF
:100010000C94BB060C94B9050C94A2070C94A2078F
:100020000C94A2070C94A2070C94A2070C94A207AC
:100030000C94A2070C94A2070C94A2070C94A2079C
:100040000C94A2070C94A2070C94A2070C94A2078C
:100050000C94A2070C94A2070C94A2070C94A2077C
:100060000C94A2070C94A2070C94A2070C94A2076C
:100070000C94A2070C948B040C94A2070C94A20776
:100080000C94A2070C94A2070C94A2070C94A2074C
:100090000C94A2070C94A2070C94A2070C94A2073C
:1000A0000C94A2070C94A2070C94A2070C94A2072C
:1000B0000C94A2070C94A2070C94A2070C94A2071C
:1000C0000C94A2070C94A2070C94A2070C94A2070C
:1000D0000C94A2070C94A2070C94A2070C94A207FC
:1000E0000C94A20702000220800220025C000F5440
:1000F000025C02648002640268000F900C94BE02ED
:100100000C940E0511241FBECFEFD1E2DEBFCDBF90
:1001100000E00CBFE4EEF0E040E019C0B791A79119
:1001200037912791079107FD0EC097918791EF01B5
:10013000F92FE82F0BBF07900D92A217B307D9F73D
:10014000FE011BBE04C01D92A217B307E1F7EC3FEE
:10015000F40721F70E94B0000C945807F894FFCFE1
:10016000E1E6F0E080E8808381E0808310920D0278
:10017000F89480EF80930A0183E00E94470460E0D6
:1001800081E00E944A050E940A070E943C070E94E3
:10019000870786E490E00E94F7060E941C070E94F1
:1001A000EC051092160268E072E08AE092E00E948C
:1001B0007407789480E180930B0160E080E00E94F6
:1001C000630780910D0261E070E090E00E942503DA
:1001D00060E08AE00E94630780910F0262E070E0B5
:1001E00090E00E94250360E08EE00E94630780910A
:1001F000070262E070E090E00E9425030E949907E8
:100200001C996BC080910E02882309F466C080E7B8
:1002100080930B010E948D070E94810783E192E089
:100220000E942D0780915A0290915B02833993407E
:1002300030F0E0911302F0911402108222C08091FC
:100240005A0290915B028C3B924038F0E09113028D
:10025000F091140282E0808314C080915A02909140
:100260005B02883C910538F0E0911302F091140292
:1002700081E0808306C0E0911302F091140283E0D4
:10028000808343E152E068E072E08AE092E00E94FD
:100290003A0661E08AE00E9463078091180290911B
:1002A000190264E070E00E94250360E085E00E948E
:1002B000630780915A0290915B0264E070E00E94B3
:1002C00025038FEF93E090935B0280935A02109284
:1002D00019021092180210920E0280910D028230C3
:1002E000A9F018F4813041F065CF843009F4ABC037
:1002F000853009F4C3C05ECF80E280930B010E9479
:1003000093070E947B0710920D0254CF80E48093E4
:100310000B010E949E07E0910A02F0910B0280817E
:100320008130F1F008F44AC0823089F1833009F05D
:100330005AC0E091160284E0E89FF0011124EA5BC4
:10034000FD4F8381082E000C990B0E944A07809173
:1003500003028F5F8093030283E08093160243C001
:10036000E091160224E0E29FF0011124EA5BFD4FC8
:100370008181082E000C990B0E944A07809112027D
:100380008F5F8093120281E0809316022CC0E0916F
:10039000160284E0E89FF0011124EA5BFD4F8281A0
:1003A000082E000C990B0E944A07809115028F5F5E
:1003B0008093150282E08093160215C0E091160228
:1003C00024E0E29FF0011124EA5BFD4F8081082EBA
:1003D000000C990B0E944A07809117028F5F80934F
:1003E0001702109216020E94990788EC90E00E9472
:1003F0001A0660E080E00E94630780910D0261E0D0
:1004000070E090E00E94250361E080E00E946307B5
:10041000E0910A02F0910B02808161E070E090E0CF
:100420000E94250344E052E068E072E08AE092E036
:100430000E948F0680910402909105020E940E0591
:1004400010920D02B7CE80EF80930B010E949E07A1
:100450008FEF93E090935B0280935A0210921902FF
:1004600010921802109203021092120210921702B8
:100470001092150210920F021092070280EF8093E3
:100480000B010E948D070E946C0780E090E00895A8
:10049000EF92FF920F931F93CF93DF9360915C02D3
:1004A00070915D026115710509F45BC0FB01A0E06C
:1004B000B0E040E050E0C0E0D0E000811181228156
:1004C00033810817190771F4109729F013963C939C
:1004D0002E93129704C030935D0220935C02CF01EB
:1004E000029641C08017910748F4209729F0E880D0
:1004F000F9800E151F0510F4AD01EF01DF01211584
:10050000310511F0F901D9CF209759F10A811B81EA
:10051000FE0121913191281B390B2530310588F0DE
:1005200099838883DF01A80FB91F225031091196E2
:100530003C932E9312960C93129713961C93139739
:100540008D01C617D70729F400935C0210935D0252
:1005500006C0DA0112960C93129713961C93CF01E2
:1005600002C080E090E0CDB7DEB7E6E00C948006F4
:10057000A2E0B0E0EEEBF2E00C9462068C018EE0BB
:1005800095E00115110509F455C0892B79F0023069
:10059000110510F402E010E0C8010E944802009723
:1005A00009F04FC092E0E92EF12C04C08EE0E82E55
:1005B00085E0F82E80915E0290915F0220916002AA
:1005C00030916102821B930B6701C00ED11E801710
:1005D0009107F0F4DA82C982CE0101960E94820569
:1005E000009719F480E090E02CC020915E023091D9
:1005F0005F028217930721F090936102809360025B
:1006000029813A81820F931F90935F0280935E024B
:10061000E0916002F0916102CF01E114F10419F060
:10062000029611830083CE0EDF1ED0926102C0922B
:10063000600207C0009709F0ADCF7C0101E010E037
:0A064000B9CF2296E8E00C947E0684
:10064A00EF92FF920F931F93CF93DF9300D00F92F5
:10065A000F92CDB7DEB77B01FE01319625E0DF01AF
:10066A001D922A95E9F724E030E00FC06AE070E0B5
:10067A000E94CF06E1E0F0E0EC0FFD1FE20FF31F4E
:10068A008083862F972F21503109009779F7BFEF82
:10069A00EB16FB0681F403C00F5F1F4F02C000E098
:1006AA0010E0E1E0F0E0EC0FFD1FE00FF11F208108
:1006BA00222391F304C005E010E00E191F099923C3
:1006CA0094F461E08DE20E944A050DC0E1E0F0E099
:1006DA00EC0FFD1FE00FF11F808161E0805D0E9439
:1006EA004A050F5F1F4F0530110584F30F900F90D5
:1006FA000F900F900F90DF91CF911F910F91FF9064
:04070A00EF900895CF
:10070E00EF92FF920F931F93CF93DF937C01C2E082
:10071E00D0E000E010E044C080911D029E01280F41
:10072E00311DC90183709078992324F401978C6F41
:10073E009F6F019693E0981B90931B0282B1E091FC
:10074E001B02F0E0EA5AFD4F9081807C892B82B922
:10075E00CE0102978A30910554F4FE01EE0FFF1F71
:10076E00E05EFD4F808191810E941A0618C09701AC
:10077E002A5031092817390764F4F801EE0FFF1FCC
:10078E00EC5CFD4F808191810E941A060F5F1F4F16
:10079E0006C080913202909133020E941A06219671
:1007AE00C7010296C817D9070CF4B6CF80911B0269
:1007BE0080931D02DF91CF911F910F91FF90EF90CB
:0207CE0008958C
:1007D000EF92FF920F931F93CF93DF937C01C1E0C1
:1007E000D0E000E010E042C080911D029E01280F81
:1007F000311DC90183709078992324F401978C6F7F
:100800009F6F019680931B0282B1E0911B02F0E082
:10081000EA5AFD4F9081807C892B82B9CE010197E5
:100820008A30910554F4FE01EE0FFF1FE05EFD4F8C
:10083000808191810E941A0618C097012A503109BF
:100840002817390764F4F801EE0FFF1FEC5CFD4F29
:10085000808191810E941A060F5F1F4F06C0809110
:100860003202909133020E941A062196C701019626
:10087000C817D9070CF4B8CF80911B0280931D02D2
:0E088000DF91CF911F910F91FF90EF9008959F
:10088E00CF93C82F2FEF86E791E021508040904004
:10089E00E1F700C0000087B18F6087B987B180682B
:1008AE0087B987B1806487B987B1806287B988B10B
:1008BE00807F88B988B18F7788B988B18F7D88B9E4
:1008CE0088B18F7B88B900C000C0000088B18068F5
:1008DE0088B988B1826088B925E02A95F1F70000C1
:1008EE0088B18F7788B985E08A95F1F700000E946C
:1008FE00CF0460E08C2F8C600E944A0560E088E295
:08090E000E944A05CF910895F3
:100916001F920F920FB60F9211242F933F938F932E
:100926009F93209178002295269526952370809195
:10093600790090E0880F991F880F991F820F911DEB
:1009460090930202809301022091010230910202EB
:1009560080915A0290915B022817390740F48091E2
:1009660001029091020290935B0280935A02809159
:100976001802909119020196909319028093180219
:1009860081E080930E029F918F913F912F910F905E
:080996000FBE0F901F90189591
:10099E0087B1807F87B988B1806288B988B18F7B33
:1009AE0088B982E08A95F1F700C088B1806888B96D
:1009BE0092E09A95F1F700C086B18295807F92E021
:1009CE009A95F1F700C098B19F7798B995E09A95EE
:1009DE00F1F7000098B1906898B992E09A95F1F706
:1009EE0000C096B1807892E09A95F1F700C098B168
:1009FE009F7798B995E09A95F1F700008111D5CFC0
:0E0A0E0088B18F7D88B987B18F6087B9089550
:100A1C000097C9F1FC013297A0915C02B0915D0284
:100A2C00109759F1408151819C01240F351FA21759
:100A3C00B30779F412968D919C91139793838283CB
:100A4C002D913C91CA01820F931F02969183808352
:100A5C0016C08D919C9111979C012E5F3F4F2A0FD0
:100A6C003B1FE217F30731F4840F951F02968D9309
:100A7C009C930895B383A28302C013821282F093D5
:080A8C005D02E0935C02089595
:100A9400282F22952F708F70611104C098B19F7B0D
:100AA40098B903C098B1906498B992E09A95F1F717
:100AB40000C098B1906898B998B1907F922B98B97A
:100AC40095E09A95F1F7000098B19F7798B995E071
:100AD4009A95F1F7000098B1906898B998B1907F11
:100AE400892B88B985E08A95F1F7000088B18F7762
:100AF40088B995E09A95F1F700000E94CF04089513
:100B0400FC01408151818091620290916302892BA2
:100B140041F48091660290916702909363028093FE
:100B240062028091640290916502009719F48DB776
:100B34009EB780972091620230916302281739078B
:100B440048F08CE090E090931F0280931E0280E0B6
:100B540090E00895821B930B8417950790F3420F3E
:0E0B6400531F5093630240936202C90108952B
:100B72001F920F920FB60F9211240BB60F922F9362
:100B82003F934F935F936F937F938F939F93AF9313
:100B9200BF93EF93FF9389E190E00E941A06609B56
:100BA200FECF89E190E00E941A0684E080930D0254
:100BB200FF91EF91BF91AF919F918F917F916F9133
:100BC2005F914F913F912F910F900BBE0F900FBEEF
:060BD2000F901F90189522
:100BD800CF93DF9381B18F6381B980EF80930B014D
:100BE800C0E0D0E01AC0CE0183709078992324F435
:100BF80001978C6F9F6F019680931B0282B1E091E1
:100C08001B02F0E0EA5AFD4F9081807C892B82B963
:100C180082E190E00E941A0621961E99E4CF809105
:0C0C28001B0280931D02DF91CF91089504
:100C3400E1E8F0E020812A60208328EE33E030935D
:100C4400890020938800109285001092840026B3B6
:100C5400226026BB20E030E007C0B19B05C046B34C
:100C6400426046BB2F5F3F4F28173907B4F30895FE
:100C7400DB01ED91FC91309761F0DA018D919C914B
:100C84001197928381838D919C91FB019183808341
:100C94000895DA012D913C911197FC013183208351
:0C0CA4008D919C91DB018D939C93089531
:100CB0002F923F924F925F926F927F928F929F926C
:100CC000AF92BF92CF92DF92EF92FF920F931F935A
:100CD000CF93DF93CDB7DEB7CA1BDB0B0FB6F8940B
:080CE000DEBF0FBECDBF199469
:100CE8002A88398848885F846E847D848C849B84B4
:100CF800AA84B984C884DF80EE80FD800C811B81C2
:100D0800AA81B981CE0FD11D0FB6F894DEBF0FBEF0
:060D1800CDBFED010895BE
:100D1E00FC0180819181DA018D939C93A081B18138
:100D2E00109731F011968D919C911297918380833B
:100D3E0080819181892B19F4FB0111821082089513
:100D4E001F920F920FB60F9211248F9380910F0264
:100D5E008F5F80930F0281E080930D028F910F9031
:080D6E000FBE0F901F901895B5
:100D76001F920F920FB60F9211248F938091070244
:100D86008F5F8093070282E080930D028F910F9010
:080D96000FBE0F901F9018958D
:100D9E0097FB072E16F4009407D077FD09D00E941A
:100DAE00E30607FC05D03EF4909581959F4F08957C
:080DBE00709561957F4F0895C7
:100DC600AA1BBB1B51E107C0AA1FBB1FA617B7076B
:100DD60010F0A61BB70B881F991F5A95A9F7809587
:080DE6009095BC01CD010895B8
:100DEE0094B5936094BDEEE6F0E0908192609083AE
:100DFE0094B5906894BD95B5926095BD87BD84B14C
:060E0E00806884B908951C
:100E14008DB384608DBBE9E6F0E0808180638083DC
:100E24008DB388608DBB80818068808384B18F7826
:040E340084B90895E0
:100E38008DB380618DBBEAE6F0E0808182608083BB
:100E48008DB18C7F8DB984B18F6084B90E949E0763
:020E58000895FB
:100E5A00CF93DF93EC0183E090E00E94B80299837C
:0E0E6A008883FC0112821182DF91CF910895DE
:100E7800EAE7F0E0808180688083808188608083F1
:0C0E8800ECE7F0E0808180668083089534
:100E9400181619061CF40E948703089599232CF44C
:0C0EA4009195819591090E94E803089542
:100EB000EC010E94A8070E94A707CE010E94A90783
:060EC000CE010E94A40710
:100EC600883230F46111806460E080680E944A05CF
:020ED60008957D
:100ED80085B1807F85B985E090E00E941A06089563
:0E0EE800FC0111821082FB011182108208951C
:0C0EF600EAE7F0E08081806480830895CA
:0C0F0200EAE7F0E080818F7B8083089597
:0C0F0E00EAE7F0E08081806280830895B3
:0C0F1A00EAE7F0E080818F778083089583
:0C0F2600EAE7F0E0808180688083089595
:0A0F320085B1807F8B6085B90895BA
:080F3C0085B18F6085B90895AD
:040F44000C94A6075C
:040F48000E94AE0055
:020F4C001895F6
:020F4E00089504
:020F5000089502
:020F5200089500
:100F5400140013001200110010000F000E000D0009
:040F64000C000B0072
:100F68000C000D000E000F001000110012001300FD
:020F7800140063
:100F7A00003264CECE00326464CE00323264CE00D7
:040F8A0035362E2D9D
:020F8E00FF035F
:020F900000005F
:020F92006802F3
:00000001FF
