:100000000C9481000C946D040C946D040C948A0380
:100010000C946D040C9421030C9457030C946D0400
:100020000C946D040C946D040C946D040C946D048C
:100030000C946D040C946D040C946D040C946D047C
:100040000C946D040C946D040C946D040C946D046C
:100050000C946D040C946D040C946D040C946D045C
:100060000C946D040C946D040C946D040C946D044C
:100070000C946D040C9466020C946D040C946D0445
:100080000C946D040C946D040C946D040C946D042C
:100090000C946D040C946D040C946D040C946D041C
:1000A0000C946D040C946D040C946D040C946D040C
:1000B0000C946D040C946D040C946D040C946D04FC
:1000C0000C946D040C946D040C946D040C946D04EC
:1000D0000C946D040C946D040C946D040C946D04DC
:1000E0000C946D040200021580021502170008EE40
:1000F00002170219800219021B0008F0021B021CE1
:10010000800011241FBECFEFD1E2DEBFCDBF00E0E3
:100110000CBFE4EEF0E041E019C0B791A791379130
:100120002791079107FD0EC097918791EF01F92F55
:10013000E82F0BBF07900D92A217B307D9F7FE0166
:100140001BBE04C01D92A217B307E1F7E130F4070C
:0E01500021F70E94AF000C943704F894FFCF03
:10015E00F894E1E6F0E080E8808381E0808380EF30
:10016E0080930A0181B18F7381B983E00E942202CC
:10017E0060E081E00E94E9020E94D4030E945204D2
:10018E000E94EA038CE390E00E946F040E94260412
:10019E000E94640484E080931102789480E180933D
:1001AE000B0160E08AE00E94420483B1807261E03C
:1001BE0070E090E00E94C00105C080E280930B01C8
:1001CE000E9469041D9BF9CF0E94640421C00E9405
:1001DE004B0480E880930B0180911B02882399F0D9
:1001EE002091030230910402809115029091160223
:1001FE002817390740F480910302909104029093DE
:10020E0016028093150210921B0281E080930D025C
:10021E001C99DDCF80910D02882309F483C00E94C2
:10022E00580480910B028F5F80930B0280910B021A
:10023E00813089F4809115029091160290931A02E2
:10024E0080931902809115029091160290931802D4
:10025E008093170226C02091190230911A028091C4
:10026E001502909116028217930740F480911502A1
:10027E009091160290931A02809319022091170200
:10028E0030911802809115029091160228173907A5
:10029E0040F480911502909116029093180280936B
:1002AE00170260E080E00E94420480910B0263E03E
:1002BE0070E090E00E94C00160E085E00E94420480
:1002CE00809112029091130265E070E00E94C001CD
:1002DE0061E080E00E9442048091190290911A021E
:1002EE0064E070E00E94C00161E085E00E9442047B
:1002FE00809117029091180264E070E00E94C00194
:10030E0061E08AE00E9442048091150290911602EB
:10031E0064E070E00E94C00110920D021092130270
:10032E001092120280911B02811110921B02809179
:10033E00000290910102892B11F00E9469048091B4
:10034E001402882309F42ACF109218021092170271
:10035E008FEF93E090931A028093190290931602F6
:10036E008093150210920B02109213021092120239
:02037E0015CF99
:10038000EF92FF920F931F93CF93DF9300D00F92C2
:100390000F92CDB7DEB77B01FE01319625E0DF017C
:1003A0001D922A95E9F724E030E00FC06AE070E082
:1003B0000E94FE03E1E0F0E0EC0FFD1FE20FF31FEF
:1003C0008083862F972F21503109009779F7BFEF4F
:1003D000EB16FB0681F403C00F5F1F4F02C000E065
:1003E00010E0E1E0F0E0EC0FFD1FE00FF11F2081D5
:1003F000222391F304C005E010E00E191F09992390
:1004000094F461E08DE20E94E9020DC0E1E0F0E0C9
:10041000EC0FFD1FE00FF11F808161E0805D0E9405
:10042000E9020F5F1F4F0530110584F30F900F9005
:100430000F900F900F90DF91CF911F910F91FF9030
:04044000EF9008959C
:10044400CF93C82F2FEF86E791E021508040904052
:10045400E1F700C0000087B18F6087B987B1806879
:1004640087B987B1806487B987B1806287B988B159
:10047400807F88B988B18F7788B988B18F7D88B932
:1004840088B18F7B88B900C000C0000088B1806843
:1004940088B988B1826088B925E02A95F1F700000F
:1004A40088B18F7788B985E08A95F1F700000E94BA
:1004B400AA0260E08C2F8C600E94E90260E088E26E
:0804C4000E94E902CF910895A6
:1004CC001F920F920FB60F9211242F933F938F937D
:1004DC009F932091780022952695269523708091E4
:1004EC00790090E0880F991F880F991F820F911D3A
:1004FC009093040280930302209103023091040232
:10050C0080911502909116022817390740F48091BA
:10051C00030290910402909316028093150281E0DD
:10052C0080931B028091120290911302019690937A
:10053C001302809312029F918F913F912F910F90F4
:08054C000FBE0F901F901895DF
:1005540087B1807F87B988B1806288B988B18F7B81
:1005640088B982E08A95F1F700C088B1806888B9BB
:1005740092E09A95F1F700C086B18295807F92E06F
:100584009A95F1F700C098B19F7798B995E09A953C
:10059400F1F7000098B1906898B992E09A95F1F754
:1005A40000C096B1807892E09A95F1F700C098B1B6
:1005B4009F7798B995E09A95F1F700008111D5CF0E
:0E05C40088B18F7D88B987B18F6087B908959F
:1005D200282F22952F708F70611104C098B19F7BD4
:1005E20098B903C098B1906498B992E09A95F1F7DE
:1005F20000C098B1906898B998B1907F922B98B941
:1006020095E09A95F1F7000098B19F7798B995E037
:100612009A95F1F7000098B1906898B998B1907FD7
:10062200892B88B985E08A95F1F7000088B18F7728
:1006320088B995E09A95F1F700000E94AA02089500
:100642001F920F920FB60F9211240BB60F922F9397
:100652003F934F935F936F937F938F939F93AF9348
:10066200BF93EF93FF9389E190E00E94B40381E08E
:1006720090E09093010280930002619BFECF89E19A
:1006820090E00E94B403FF91EF91BF91AF919F91CF
:100692008F917F916F915F914F913F912F910F9029
:0C06A2000BBE0F900FBE0F901F9018951C
:1006AE001F920F920FB60F9211240BB60F922F932B
:1006BE003F934F935F936F937F938F939F93AF93DC
:1006CE00BF93EF93FF9389E190E00E94B40381E022
:1006DE0080931402609BFECF89E190E00E94B403E8
:1006EE00FF91EF91BF91AF919F918F917F916F91FC
:1006FE005F914F913F912F910F900BBE0F900FBEB8
:06070E000F901F901895EA
:100714001F920F920FB60F9211240BB60F922F93C4
:100724003F934F935F936F937F938F939F93AF9375
:10073400BF93EF93FF930E945E040E944B04FF91CA
:10074400EF91BF91AF919F918F917F916F915F9145
:100754004F913F912F910F900BBE0F900FBE0F90B2
:040764001F90189535
:10076800E1E8F0E020812A6020832BEE33E030932B
:10077800890020938800109285001092840026B387
:10078800226026BB20E030E007C0B19B05C046B31D
:10079800426046BB2F5F3F4F28173907B4F30895CF
:1007A8008DB384608DBBE9E6F0E08081806380834F
:1007B800EAE7F0E0808180688083808188608083B8
:0C07C800ECE7F0E08081806680830895FB
:1007D40084B5836084BDEEE6F0E08081826080832E
:1007E40084B5806884BD85B5826085BD8FE787BD8B
:0807F40084B1806884B9089506
:1007FC0097FB072E16F4009407D077FD09D00E94C2
:10080C00120407FC05D03EF4909581959F4F0895F6
:08081C00709561957F4F08956E
:10082400AA1BBB1B51E107C0AA1FBB1FA617B70712
:1008340010F0A61BB70B881F991F5A95A9F780952E
:080844009095BC01CD0108955F
:10084C008DB380638DBBEAE6F0E080818A608083A3
:10085C0084B18F6084B98DB18C7F8DB90E9469048D
:02086C000895ED
:10086E00EC010E9475040E947404CE010E9476046D
:06087E00CE010E9471048E
:10088400883230F46111806460E080680E94E9027B
:020894000895C5
:0E0896007894EAE7F0E0808180648083089522
:0C08A400EAE7F0E0808180628083089524
:0C08B000EAE7F0E080818F7780830895F4
:0C08BC00EAE7F0E0808180688083089506
:0A08C80085B1807F8B6085B908952B
:0808D20085B18F6085B908951E
:0408DA000C94730403
:0408DE0087BD089535
:0408E2000E94AD00C3
:0208E600189563
:0208E800089571
:0208EA0008956F
:0208EC0008956D
:0208EE00FF0306
:0208F000FF0304
:00000001FF
