:100000000C948B000C94F3060C940A080C940509CC
:100010000C9405090C948E050C944B060C94050960
:100020000C9405090C9405090C9405090C94050918
:100030000C9405090C9405090C9405090C94050908
:100040000C9405090C9405090C9405090C940509F8
:100050000C9405090C9405090C9405090C940509E8
:100060000C9405090C9405090C9405090C940509D8
:100070000C9405090C944A050C9405090C94050987
:100080000C947A080C9405090C9405090C94050944
:100090000C9405090C9405090C9405090C940509A8
:1000A0000C9405090C9405090C9405090C94050998
:1000B0000C9405090C9405090C9405090C94050988
:1000C0000C9405090C9405090C9405090C94050978
:1000D0000C9405090C9405090C9405090C94050968
:1000E0000C94050902000214800214024F00121A37
:1000F000024F025180025102530012550253025B1B
:1001000080025B025F001257025F026D80000C9458
:100110003F030C940F0611241FBECFEFD1E2DEBFC8
:10012000CDBF00E00CBFE4EEF0E041E019C0B791B4
:10013000A79137912791079107FD0EC0979187915D
:10014000EF01F92FE82F0BBF07900D92A217B3070D
:10015000D9F7FE011BBE04C01D92A217B307E1F739
:10016000ED30F40721F70E94BF000C94C008F8940A
:02017000FFCFBF
:0B0172004100530057004200555300AD
:10017E00E1E6F0E080E8808381E0808310926C02FB
:10018E00F89480EF80930A0183E00E94060560E0F8
:10019E0081E00E9484060E9459080E9489088DE71A
:1001AE0090E00E9446080E9497080E942207109233
:1001BE000E0266E072E088E092E00E94DC0860E0E9
:1001CE0080E00E94CB0862E771E080E00E94C507E4
:1001DE0060E083E00E94CB0864E771E080E00E945B
:1001EE00C50760E086E00E94CB0866E771E080E01C
:1001FE000E94C50760E089E00E94CB0868E771E0C5
:10020E0080E00E94C507789480E180930B01809175
:10021E006902811102C00E94FC0880916B02882342
:10022E0029F00E94EA081C9B0E94BE048091640281
:10023E00803339F488EC90E00E94500785E080937B
:10024E006C0280916A02882359F066E072E088E0C1
:10025E0092E00E94B308892B19F483E080936C021C
:10026E0080916C02833009F4E6C018F4823041F0BC
:10027E00CBCF843009F431C1853009F479C1C4CFB4
:10028E0010926C0280E480930B01809163028F5F69
:10029E008093630280916B02882329F00E94EA0802
:1002AE001C9B0E94BE040E940109E0910802F0917D
:1002BE00090280818130F1F008F44AC0823089F160
:1002CE00833009F05AC0E0910E0284E0E89FF001FD
:1002DE001124EC5EFD4F8381082E000C990B0E94B9
:1002EE00A508809162028F5F8093620283E0809303
:1002FE000E0243C0E0910E0284E0E89FF00111244B
:10030E00EC5EFD4F8181082E000C990B0E94A50812
:10031E00809161028F5F8093610281E080930E0273
:10032E002CC0E0910E0284E0E89FF0011124EC5EF7
:10033E00FD4F8281082E000C990B0E94A50880911A
:10034E0060028F5F8093600282E080930E0215C080
:10035E00E0910E0284E0E89FF0011124EC5EFD4F67
:10036E008081082E000C990B0E94A50880915F02D7
:10037E008F5F80935F0210920E020E94FC088091A4
:10038E006B02882329F00E94EA081C9B0E94BE047F
:10039E0043E052E066E072E088E092E00E94DD0702
:1003AE0080910302909104020E940F0680916402D4
:1003BE008F5F8093640261E080E00E94CB088091A1
:1003CE00620262E070E090E00E94A60361E083E0CA
:1003DE000E94CB088091610262E070E090E00E9482
:1003EE00A60361E086E00E94CB088091600262E085
:1003FE0070E090E00E94A60361E089E00E94CB08C5
:10040E0080915F0262E070E090E00E94A60380910E
:10041E006602882309F4F8CE61E08EE00E94CB08D4
:10042E0066E072E088E092E00E94B30862E070E05D
:10043E000E94A603E9CE80EB80930B0188EC90E03E
:10044E000E9450070E94010961E080E00E94CB08E3
:10045E008091620262E070E090E00E94A60361E08B
:10046E0083E00E94CB088091610262E070E090E030
:10047E000E94A60361E086E00E94CB088091600294
:10048E0062E070E090E00E94A60361E089E00E94C5
:10049E00CB0880915F0262E070E090E00E94A603BC
:1004AE0010926202109261021092600210925F022C
:1004BE008FEF93E09093520280935102109250026C
:1004CE0010924F021092680210926702109266020A
:1004DE001092650210926A024BC080EC80930B0161
:1004EE000E94010961E080E00E94CB0880916202C7
:1004FE0062E070E090E00E94A60361E083E00E945B
:10050E00CB088091610262E070E090E00E94A60349
:10051E0061E086E00E94CB088091600262E070E0AC
:10052E0090E00E94A60361E089E00E94CB088091D2
:10053E005F0262E070E090E00E94A60360E08EE051
:10054E000E94CB086AE771E080E00E94C50761E077
:10055E008EE00E94CB0866E072E088E092E00E9496
:10056E00B30862E070E00E94A60310926C024CCEBB
:10057E000E9401090E94F0080E94D408F89480E0BD
:04058E0090E008955C
:10059200EF92FF920F931F93CF93DF9360915302D9
:1005A200709154026115710509F45BC0FB01A0E072
:1005B200B0E040E050E0C0E0D0E000811181228153
:1005C20033810817190771F4109729F013963C9399
:1005D2002E93129704C03093540220935302CF01FA
:1005E200029641C08017910748F4209729F0E880CD
:1005F200F9800E151F0510F4AD01EF01DF01211581
:10060200310511F0F901D9CF209759F10A811B81E7
:10061200FE0121913191281B390B2530310588F0DB
:1006220099838883DF01A80FB91F225031091196DF
:100632003C932E9312960C93129713961C93139736
:100642008D01C617D70729F4009353021093540261
:1006520006C0DA0112960C93129713961C93CF01DF
:1006620002C080E090E0CDB7DEB7E6E00C94B607BA
:10067200A2E0B0E0EFE3F3E00C9498078C018FE086
:1006820096E00115110509F455C0892B79F0023065
:10069200110510F402E010E0C8010E94C90200979F
:1006A20009F04FC092E0E92EF12C04C08FE0E82E51
:1006B20086E0F82E809155029091560220915702C1
:1006C20030915802821B930B6701C00ED11E801716
:1006D2009107F0F4DA82C982CE0101960E94BC062B
:1006E200009719F480E090E02CC0209155023091DF
:1006F20056028217930721F0909358028093570273
:1007020029813A81820F931F90935602809355025A
:10071200E0915702F0915802CF01E114F10419F06F
:10072200029611830083CE0EDF1ED0925802C09231
:10073200570207C0009709F0ADCF7C0101E010E03D
:0A074200B9CF2296E8E00C94B4074A
:10074C00EF92FF920F931F93CF93DF9300D00F92F2
:10075C000F92CDB7DEB77B01FE01319625E0DF01AC
:10076C001D922A95E9F724E030E00FC06AE070E0B2
:10077C000E941E08E1E0F0E0EC0FFD1FE20FF31FFA
:10078C008083862F972F21503109009779F7BFEF7F
:10079C00EB16FB0681F403C00F5F1F4F02C000E095
:1007AC0010E0E1E0F0E0EC0FFD1FE00FF11F208105
:1007BC00222391F304C005E010E00E191F099923C0
:1007CC0094F461E08DE20E9484060DC0E1E0F0E05B
:1007DC00EC0FFD1FE00FF11F808161E0805D0E9436
:1007EC0084060F5F1F4F0530110584F30F900F9097
:1007FC000F900F900F90DF91CF911F910F91FF9061
:04080C00EF900895CC
:10081000EF92FF920F931F93CF93DF937C0140E001
:1008200050E000E010E046C08091110290E0EA0143
:1008300021969E0123703078332334F421503109FE
:100840002C6F3F6F2F5F3F4F880F991F880F991FA5
:100850008C5D9D4FFC01E20FF31F808180930F029E
:1008600082B1E0910F02F0E0E55BFD4F9081807C6A
:10087000892B82B94E30510544F4FA01EC5CFD4FEE
:10088000808190E00E94500714C0C7010A97841726
:10089000950754F4F801EE5BFD4F808190E00E94D3
:1008A00050070F5F1F4F05C08091410290E00E94EA
:1008B0005007AE014E155F050CF4B6CF80910F02C4
:1008C00080931102DF91CF911F910F91FF90EF90D4
:0208D000089589
:1008D200EF92FF920F931F93CF93DF937C01C0E0BF
:1008E200D0E000E010E03BC0809111029E01280F91
:1008F200311DC901019683709078992324F40197E0
:100902008C6F9F6F019680930F0282B1E0910F026C
:10091200F0E0E55BFD4F9081807C892B82B9CE307F
:10092200D10544F4FE01EC5CFD4F808190E00E9411
:10093200500714C0C7010A978C179D0754F4F80199
:10094200EE5BFD4F808190E00E9450070F5F1F4FCA
:1009520005C08091410290E00E9450072196CE1579
:10096200DF0514F280910F0280931102DF91CF9183
:0A0972001F910F91FF90EF90089580
:10097C008CE092E00E946B0880915102909152029F
:10098C008238934030F0E0910C02F0910D0210820D
:10099C0022C080915102909152028C3B924038F0CF
:1009AC00E0910C02F0910D0282E0808314C08091E2
:1009BC005102909152028436910538F0E0910C026C
:1009CC00F0910D0281E0808306C0E0910C02F09161
:1009DC000D0283E080834CE052E066E072E088E038
:1009EC0092E00E9470078FEF93E0909352028093F5
:1009FC0051021092500210924F0210926B02089505
:100A0C00CF93C82F2FEF86E791E021508040904084
:100A1C00E1F700C0000087B18F6087B987B18068AB
:100A2C0087B987B1806487B987B1806287B988B18B
:100A3C00807F88B988B18F7788B988B18F7D88B964
:100A4C0088B18F7B88B900C000C0000088B1806875
:100A5C0088B988B1826088B925E02A95F1F7000041
:100A6C0088B18F7788B985E08A95F1F700000E94EC
:100A7C00D00560E08C2F8C600E94840660E088E2D8
:080A8C000E948406CF91089539
:100A94001F920F920FB60F9211242F933F938F93AF
:100AA4009F93209178002295269526952370809116
:100AB400790090E0880F991F880F991F820F911D6C
:100AC400909302028093010220910102309102026C
:100AD40080915102909152022817390740F4809175
:100AE40001029091020290935202809351028091EC
:100AF4004F029091500201969093500280934F02BE
:100B040081E080936B029F918F913F912F910F9081
:080B14000FBE0F901F90189511
:100B1C001F920F920FB60F9211240BB60F922F93B8
:100B2C003F934F935F936F937F938F939F93AF9369
:100B3C00BF93EF93FF9384E190E00E945007649978
:100B4C0016C0809166028F5F8093660280FF04C09E
:100B5C0081E08093690202C01092690284E0809364
:100B6C006C02649BFECF84E190E00E945007FF91E1
:100B7C00EF91BF91AF919F918F917F916F915F9109
:100B8C004F913F912F910F900BBE0F900FBE0F9076
:040B9C001F901895F9
:100BA00087B1807F87B988B1806288B988B18F7B2F
:100BB00088B982E08A95F1F700C088B1806888B969
:100BC00092E09A95F1F700C086B18295807F92E01D
:100BD0009A95F1F700C098B19F7798B995E09A95EA
:100BE000F1F7000098B1906898B992E09A95F1F702
:100BF00000C096B1807892E09A95F1F700C098B164
:100C00009F7798B995E09A95F1F700008111D5CFBB
:0E0C100088B18F7D88B987B18F6087B908954C
:100C1E000097C9F1FC013297A0915302B091540292
:100C2E00109759F1408151819C01240F351FA21755
:100C3E00B30779F412968D919C91139793838283C7
:100C4E002D913C91CA01820F931F0296918380834E
:100C5E0016C08D919C9111979C012E5F3F4F2A0FCC
:100C6E003B1FE217F30731F4840F951F02968D9305
:100C7E009C930895B383A28302C013821282F093D1
:080C8E005402E09353020895A3
:100C96001F920F920FB60F9211240BB60F922F933D
:100CA6003F934F935F936F937F938F939F93AF93EE
:100CB600BF93EF93FF9384E190E00E9450076599FC
:100CC6000DC0809165028F5F80936502659BFECFA4
:100CD60084E190E00E9450070E94F507FF91EF9192
:100CE600BF91AF919F918F917F916F915F914F913E
:100CF6003F912F910F900BBE0F900FBE0F901F903C
:020D060018953E
:100D0800282F22952F708F70611104C098B19F7B96
:100D180098B903C098B1906498B992E09A95F1F7A0
:100D280000C098B1906898B998B1907F922B98B903
:100D380095E09A95F1F7000098B19F7798B995E0FA
:100D48009A95F1F7000098B1906898B998B1907F9A
:100D5800892B88B985E08A95F1F7000088B18F77EB
:100D680088B995E09A95F1F700000E94D00508959A
:100D7800FC01408151818091590290915A02892B3E
:100D880041F480915D0290915E0290935A028093A3
:100D9800590280915B0290915C02009719F48DB71B
:100DA8009EB780972091590230915A022817390727
:100DB80048F08CE090E0909313028093120280E058
:100DC80090E00895821B930B8417950790F3420FC8
:0E0DD800531F50935A0240935902C9010895C7
:100DE6001F920F920FB60F9211240BB60F922F93EC
:100DF6003F934F935F936F937F938F939F93AF939D
:100E0600BF93EF93FF930E94F6080E94EA08809131
:100E160068028F5F80936802FF91EF91BF91AF9157
:100E26009F918F917F916F915F914F913F912F91FC
:0E0E36000F900BBE0F900FBE0F901F901895DF
:100E4400CF93DF9381B18F6381B980EF80930B01DE
:100E5400C0E0D0E01AC0CE0183709078992324F4C6
:100E640001978C6F9F6F019680930F0282B1E0917E
:100E74000F02F0E0E55BFD4F9081807C892B82B905
:100E840082E190E00E94500721961E99E4CF809160
:0C0E94000F0280931102DF91CF910895AE
:100EA000E1E8F0E020812A60208328EE33E03093EF
:100EB000890020938800109285001092840026B348
:100EC000226026BB20E030E007C0B19B05C046B3DE
:100ED000426046BB2F5F3F4F28173907B4F3089590
:100EE000DB01ED91FC91309761F0DA018D919C91DD
:100EF0001197928381838D919C91FB0191838083D3
:100F00000895DA012D913C911197FC0131832083E2
:0C0F10008D919C91DB018D939C930895C2
:100F1C002F923F924F925F926F927F928F929F92FD
:100F2C00AF92BF92CF92DF92EF92FF920F931F93EB
:100F3C00CF93DF93CDB7DEB7CA1BDB0B0FB6F8949C
:080F4C00DEBF0FBECDBF1994FA
:100F54002A88398848885F846E847D848C849B8445
:100F6400AA84B984C884DF80EE80FD800C811B8153
:100F7400AA81B981CE0FD11D0FB6F894DEBF0FBE82
:060F8400CDBFED01089550
:100F8A00CF92DF92EF926B01E82E07C061E00E94D8
:100F9A0084068FEFC81AD80AE80AF6015E2D0E9465
:100FAA00E308862F6111F2CFEF90DF90CF9008957A
:100FBA00FC0180819181DA018D939C93A081B1819A
:100FCA00109731F011968D919C911297918380839D
:100FDA0080819181892B19F4FB0111821082089575
:100FEA00E1E9F0E080818D60808380E090E4909375
:100FFA009900809398001092950010929400E1E76E
:0A100A00F0E0808182608083089589
:101014001F920F920FB60F9211248F938091670243
:101024008F5F8093670282E080936C028F910F90B0
:081034000FBE0F901F901895EC
:10103C0097FB072E16F4009407D077FD09D00E9479
:10104C00320807FC05D03EF4909581959F4F08958A
:08105C00709561957F4F089526
:10106400AA1BBB1B51E107C0AA1FBB1FA617B707CA
:1010740010F0A61BB70B881F991F5A95A9F78095E6
:081084009095BC01CD01089517
:10108C0094B5936094BDEEE6F0E09081926090830D
:10109C0094B5906894BD95B5926095BD87BD84B1AB
:0610AC00806884B908957C
:1010B2008DB381608DBBE9E6F0E08081836080833F
:1010C2008DB382608DBB80818860808384B18F788C
:0410D20084B9089540
:1010D600CF93DF93EC0183E090E00E94390399837C
:0E10E6008883FC0112821182DF91CF91089560
:1010F4001F920F920FB60F9211248F9381E0809369
:0E1104006A028F910F900FBE0F901F901895EA
:10111200EAE7F0E080818068808380818860808354
:0C112200ECE7F0E0808180668083089597
:10112E008DB380638DBBEAE6F0E080818A608083B8
:0C113E0084B18F6084B90E9401090895FB
:10114A00181619061CF40E940804089599232CF411
:0C115A009195819591090E946904089507
:10116600DC01ED91FC9180E090E004C001960180E5
:0A117600F281E02D3097D1F70895C3
:10118000EC010E940B090E940A09CE010E940C0981
:06119000CE010E940709D8
:10119600883230F46111806460E080680E948406C1
:0211A6000895AA
:1011A80085B1807F85B985E090E00E945007089559
:0E11B800FC0111821082FB0111821082089549
:0E11C60057FD03C05BBF6791089560810895D7
:0C11D400EAE7F0E08081806480830895E9
:0C11E000EAE7F0E080818F7780830895BB
:0C11EC00EAE7F0E08081806880830895CD
:0A11F80085B1807F8B6085B90895F2
:0812020085B18F6085B90895E4
:04120A000C9409092E
:04120E000E94B70083
:0212120018952D
:0212140008953B
:02121600089539
:02121800089537
:10121A00003264CECE00326464CE00323264CE0034
:10122A00000302010100030202010003030201009C
:0E123A0014131211100F0E0D0C0B0A090807E9
:0912480008090A0B0C0E10121427
:0412510035362E2DD3
:02125500FF0395
:02125700000095
:021259006D0224
:00000001FF
